{
    "_format": "hh-sol-artifact-1",
    "contractName": "PaxSender",
    "sourceName": "contracts/Pax/PaxSender.sol",
    "abi": [
        {
            "inputs": [
                {
                    "internalType": "contract IPax",
                    "name": "_pax",
                    "type": "address"
                },
                {
                    "internalType": "address",
                    "name": "_signer",
                    "type": "address"
                }
            ],
            "stateMutability": "nonpayable",
            "type": "constructor"
        },
        {
            "anonymous": false,
            "inputs": [
                {
                    "indexed": true,
                    "internalType": "address",
                    "name": "previousOwner",
                    "type": "address"
                },
                {
                    "indexed": true,
                    "internalType": "address",
                    "name": "newOwner",
                    "type": "address"
                }
            ],
            "name": "OwnershipTransferred",
            "type": "event"
        },
        {
            "anonymous": false,
            "inputs": [
                {
                    "indexed": true,
                    "internalType": "address",
                    "name": "receiver",
                    "type": "address"
                },
                {
                    "indexed": true,
                    "internalType": "uint256",
                    "name": "fromChain",
                    "type": "uint256"
                },
                {
                    "indexed": true,
                    "internalType": "address",
                    "name": "sender",
                    "type": "address"
                },
                {
                    "indexed": false,
                    "internalType": "uint256",
                    "name": "sendId",
                    "type": "uint256"
                },
                {
                    "indexed": false,
                    "internalType": "uint256",
                    "name": "amount",
                    "type": "uint256"
                }
            ],
            "name": "ReceiveOverHorizon",
            "type": "event"
        },
        {
            "anonymous": false,
            "inputs": [
                {
                    "indexed": true,
                    "internalType": "address",
                    "name": "sender",
                    "type": "address"
                },
                {
                    "indexed": true,
                    "internalType": "uint256",
                    "name": "toChain",
                    "type": "uint256"
                },
                {
                    "indexed": true,
                    "internalType": "address",
                    "name": "receiver",
                    "type": "address"
                },
                {
                    "indexed": false,
                    "internalType": "uint256",
                    "name": "sendId",
                    "type": "uint256"
                },
                {
                    "indexed": false,
                    "internalType": "uint256",
                    "name": "amount",
                    "type": "uint256"
                }
            ],
            "name": "SendOverHorizon",
            "type": "event"
        },
        {
            "anonymous": false,
            "inputs": [
                {
                    "indexed": true,
                    "internalType": "address",
                    "name": "signer",
                    "type": "address"
                }
            ],
            "name": "SetSigner",
            "type": "event"
        },
        {
            "inputs": [],
            "name": "owner",
            "outputs": [
                {
                    "internalType": "address",
                    "name": "",
                    "type": "address"
                }
            ],
            "stateMutability": "view",
            "type": "function"
        },
        {
            "inputs": [],
            "name": "pax",
            "outputs": [
                {
                    "internalType": "contract IPax",
                    "name": "",
                    "type": "address"
                }
            ],
            "stateMutability": "view",
            "type": "function"
        },
        {
            "inputs": [
                {
                    "internalType": "uint256",
                    "name": "fromChain",
                    "type": "uint256"
                },
                {
                    "internalType": "address",
                    "name": "sender",
                    "type": "address"
                },
                {
                    "internalType": "uint256",
                    "name": "sendId",
                    "type": "uint256"
                },
                {
                    "internalType": "uint256",
                    "name": "amount",
                    "type": "uint256"
                },
                {
                    "internalType": "bytes",
                    "name": "signature",
                    "type": "bytes"
                }
            ],
            "name": "receiveOverHorizon",
            "outputs": [],
            "stateMutability": "nonpayable",
            "type": "function"
        },
        {
            "inputs": [
                {
                    "internalType": "address",
                    "name": "",
                    "type": "address"
                },
                {
                    "internalType": "uint256",
                    "name": "",
                    "type": "uint256"
                },
                {
                    "internalType": "address",
                    "name": "",
                    "type": "address"
                },
                {
                    "internalType": "uint256",
                    "name": "",
                    "type": "uint256"
                }
            ],
            "name": "received",
            "outputs": [
                {
                    "internalType": "bool",
                    "name": "",
                    "type": "bool"
                }
            ],
            "stateMutability": "view",
            "type": "function"
        },
        {
            "inputs": [],
            "name": "renounceOwnership",
            "outputs": [],
            "stateMutability": "nonpayable",
            "type": "function"
        },
        {
            "inputs": [
                {
                    "internalType": "address",
                    "name": "sender",
                    "type": "address"
                },
                {
                    "internalType": "uint256",
                    "name": "toChain",
                    "type": "uint256"
                },
                {
                    "internalType": "address",
                    "name": "receiver",
                    "type": "address"
                }
            ],
            "name": "sendCount",
            "outputs": [
                {
                    "internalType": "uint256",
                    "name": "",
                    "type": "uint256"
                }
            ],
            "stateMutability": "view",
            "type": "function"
        },
        {
            "inputs": [
                {
                    "internalType": "uint256",
                    "name": "toChain",
                    "type": "uint256"
                },
                {
                    "internalType": "address",
                    "name": "receiver",
                    "type": "address"
                },
                {
                    "internalType": "uint256",
                    "name": "amount",
                    "type": "uint256"
                }
            ],
            "name": "sendOverHorizon",
            "outputs": [
                {
                    "internalType": "uint256",
                    "name": "",
                    "type": "uint256"
                }
            ],
            "stateMutability": "nonpayable",
            "type": "function"
        },
        {
            "inputs": [
                {
                    "internalType": "address",
                    "name": "",
                    "type": "address"
                },
                {
                    "internalType": "uint256",
                    "name": "",
                    "type": "uint256"
                },
                {
                    "internalType": "address",
                    "name": "",
                    "type": "address"
                },
                {
                    "internalType": "uint256",
                    "name": "",
                    "type": "uint256"
                }
            ],
            "name": "sended",
            "outputs": [
                {
                    "internalType": "uint256",
                    "name": "",
                    "type": "uint256"
                }
            ],
            "stateMutability": "view",
            "type": "function"
        },
        {
            "inputs": [
                {
                    "internalType": "address",
                    "name": "_signer",
                    "type": "address"
                }
            ],
            "name": "setSigner",
            "outputs": [],
            "stateMutability": "nonpayable",
            "type": "function"
        },
        {
            "inputs": [],
            "name": "signer",
            "outputs": [
                {
                    "internalType": "address",
                    "name": "",
                    "type": "address"
                }
            ],
            "stateMutability": "view",
            "type": "function"
        },
        {
            "inputs": [
                {
                    "internalType": "address",
                    "name": "newOwner",
                    "type": "address"
                }
            ],
            "name": "transferOwnership",
            "outputs": [],
            "stateMutability": "nonpayable",
            "type": "function"
        }
    ],
    "bytecode": "0x608060405234801561001057600080fd5b50604051610c2a380380610c2a83398101604081905261002f916100d1565b61003833610069565b600180546001600160a01b039384166001600160a01b0319918216179091556002805492909316911617905561010b565b600080546001600160a01b038381166001600160a01b0319831681178455604051919092169283917f8be0079c531659141344cd1fd0a4f28419497f9722a3daafe3b4186f6b6457e09190a35050565b6001600160a01b03811681146100ce57600080fd5b50565b600080604083850312156100e457600080fd5b82516100ef816100b9565b6020840151909250610100816100b9565b809150509250929050565b610b108061011a6000396000f3fe608060405234801561001057600080fd5b50600436106100a95760003560e01c80636c19e783116100715780636c19e783146101a2578063715018a6146101b55780638da5cb5b146101bd578063ba133b33146101ce578063ec79b185146101e1578063f2fde38b146101f457600080fd5b80630d268d0a146100ae5780631c5489b7146100c3578063238ac9331461011557806352a701b4146101405780635acfbbd314610153575b600080fd5b6100c16100bc3660046108cd565b610207565b005b6101006100d13660046109ac565b600460209081526000948552604080862082529385528385208152918452828420909152825290205460ff1681565b60405190151581526020015b60405180910390f35b600254610128906001600160a01b031681565b6040516001600160a01b03909116815260200161010c565b600154610128906001600160a01b031681565b6101946101613660046109f0565b6001600160a01b039283166000908152600360209081526040808320948352938152838220929094168152925290205490565b60405190815260200161010c565b6100c16101b0366004610a2c565b6105b9565b6100c161062d565b6000546001600160a01b0316610128565b6101946101dc3660046109ac565b610663565b6101946101ef366004610a4e565b6106ae565b6100c1610202366004610a2c565b6107b0565b805160411461025d5760405162461bcd60e51b815260206004820152601860248201527f696e76616c6964207369676e6174757265206c656e677468000000000000000060448201526064015b60405180910390fd5b33600090815260046020908152604080832088845282528083206001600160a01b0388168452825280832086845290915290205460ff161561029e57600080fd5b6040516bffffffffffffffffffffffff1933606090811b821660208401526034830188905246605484015286901b1660748201526088810184905260a8810183905260009060c80160405160208183030381529060405280519060200120905060008160405160200161033d91907f19457468657265756d205369676e6564204d6573736167653a0a3332000000008152601c810191909152603c0190565b60408051601f19818403018152918152815160209283012091850151908501516060860151929350909160001a7f7fffffffffffffffffffffffffffffff5d576e7357a4501ddfe92f46681b20a08211156103da5760405162461bcd60e51b815260206004820152601b60248201527f696e76616c6964207369676e6174757265202773272076616c756500000000006044820152606401610254565b8060ff16601b14806103ef57508060ff16601c145b61043b5760405162461bcd60e51b815260206004820152601b60248201527f696e76616c6964207369676e6174757265202776272076616c756500000000006044820152606401610254565b60025460408051600081526020810180835287905260ff84169181019190915260608101859052608081018490526001600160a01b039091169060019060a0016020604051602081039080840390855afa15801561049d573d6000803e3d6000fd5b505050602060405103516001600160a01b0316146104ba57600080fd5b60015460405163a9059cbb60e01b8152336004820152602481018990526001600160a01b039091169063a9059cbb906044016020604051808303816000875af115801561050b573d6000803e3d6000fd5b505050506040513d601f19601f8201168201806040525081019061052f9190610a83565b503360008181526004602090815260408083208e845282528083206001600160a01b038e168085529083528184208d8552835292819020805460ff1916600117905580518c81529182018b905291928d9290917f9b8cc913c3e25613faea2e6cfeb6dce457ef77c33f5d9f12119326580bec128f910160405180910390a450505050505050505050565b6000546001600160a01b031633146105e35760405162461bcd60e51b815260040161025490610aa5565b600280546001600160a01b0319166001600160a01b0383169081179091556040517fbb10aee7ef5a307b8097c6a7f2892b909ff1736fd24a6a5260640c185f7153b690600090a250565b6000546001600160a01b031633146106575760405162461bcd60e51b815260040161025490610aa5565b610661600061084b565b565b6003602052836000526040600020602052826000526040600020602052816000526040600020818154811061069757600080fd5b906000526020600020016000935093505050505481565b6001546040516323b872dd60e01b8152336004820152306024820152604481018390526000916001600160a01b0316906323b872dd906064016020604051808303816000875af1158015610706573d6000803e3d6000fd5b505050506040513d601f19601f8201168201806040525081019061072a9190610a83565b5033600081815260036020908152604080832088845282528083206001600160a01b0388168085529083528184208054600181018255818652948490208501889055825185815293840188905294909289927f88a9fbb0dbf3ab14fab2aaeca87654c792e7f2de49b08a01bdc60820e4429e46910160405180910390a495945050505050565b6000546001600160a01b031633146107da5760405162461bcd60e51b815260040161025490610aa5565b6001600160a01b03811661083f5760405162461bcd60e51b815260206004820152602660248201527f4f776e61626c653a206e6577206f776e657220697320746865207a65726f206160448201526564647265737360d01b6064820152608401610254565b6108488161084b565b50565b600080546001600160a01b038381166001600160a01b0319831681178455604051919092169283917f8be0079c531659141344cd1fd0a4f28419497f9722a3daafe3b4186f6b6457e09190a35050565b80356001600160a01b03811681146108b257600080fd5b919050565b634e487b7160e01b600052604160045260246000fd5b600080600080600060a086880312156108e557600080fd5b853594506108f56020870161089b565b93506040860135925060608601359150608086013567ffffffffffffffff8082111561092057600080fd5b818801915088601f83011261093457600080fd5b813581811115610946576109466108b7565b604051601f8201601f19908116603f0116810190838211818310171561096e5761096e6108b7565b816040528281528b602084870101111561098757600080fd5b8260208601602083013760006020848301015280955050505050509295509295909350565b600080600080608085870312156109c257600080fd5b6109cb8561089b565b9350602085013592506109e06040860161089b565b9396929550929360600135925050565b600080600060608486031215610a0557600080fd5b610a0e8461089b565b925060208401359150610a236040850161089b565b90509250925092565b600060208284031215610a3e57600080fd5b610a478261089b565b9392505050565b600080600060608486031215610a6357600080fd5b83359250610a736020850161089b565b9150604084013590509250925092565b600060208284031215610a9557600080fd5b81518015158114610a4757600080fd5b6020808252818101527f4f776e61626c653a2063616c6c6572206973206e6f7420746865206f776e657260408201526060019056fea2646970667358221220546c7f408a4c9d2221333baf21a4411698c49f8a569814518decb20165303de064736f6c634300080a0033",
    "linkReferences": {},
    "deployedLinkReferences": {}
}