{
  "_format": "hh-sol-artifact-1",
  "contractName": "MyGovernor1",
  "sourceName": "contracts/openzeppelin/contracts/mocks/wizard/MyGovernor1.sol",
  "abi": [
    {
      "inputs": [
        {
          "internalType": "contract ERC20Votes",
          "name": "_token",
          "type": "address"
        },
        {
          "internalType": "contract TimelockController",
          "name": "_timelock",
          "type": "address"
        }
      ],
      "stateMutability": "nonpayable",
      "type": "constructor"
    },
    {
      "anonymous": false,
      "inputs": [
        {
          "indexed": false,
          "internalType": "uint256",
          "name": "proposalId",
          "type": "uint256"
        }
      ],
      "name": "ProposalCanceled",
      "type": "event"
    },
    {
      "anonymous": false,
      "inputs": [
        {
          "indexed": false,
          "internalType": "uint256",
          "name": "proposalId",
          "type": "uint256"
        },
        {
          "indexed": false,
          "internalType": "address",
          "name": "proposer",
          "type": "address"
        },
        {
          "indexed": false,
          "internalType": "address[]",
          "name": "targets",
          "type": "address[]"
        },
        {
          "indexed": false,
          "internalType": "uint256[]",
          "name": "values",
          "type": "uint256[]"
        },
        {
          "indexed": false,
          "internalType": "string[]",
          "name": "signatures",
          "type": "string[]"
        },
        {
          "indexed": false,
          "internalType": "bytes[]",
          "name": "calldatas",
          "type": "bytes[]"
        },
        {
          "indexed": false,
          "internalType": "uint256",
          "name": "startBlock",
          "type": "uint256"
        },
        {
          "indexed": false,
          "internalType": "uint256",
          "name": "endBlock",
          "type": "uint256"
        },
        {
          "indexed": false,
          "internalType": "string",
          "name": "description",
          "type": "string"
        }
      ],
      "name": "ProposalCreated",
      "type": "event"
    },
    {
      "anonymous": false,
      "inputs": [
        {
          "indexed": false,
          "internalType": "uint256",
          "name": "proposalId",
          "type": "uint256"
        }
      ],
      "name": "ProposalExecuted",
      "type": "event"
    },
    {
      "anonymous": false,
      "inputs": [
        {
          "indexed": false,
          "internalType": "uint256",
          "name": "proposalId",
          "type": "uint256"
        },
        {
          "indexed": false,
          "internalType": "uint256",
          "name": "eta",
          "type": "uint256"
        }
      ],
      "name": "ProposalQueued",
      "type": "event"
    },
    {
      "anonymous": false,
      "inputs": [
        {
          "indexed": false,
          "internalType": "uint256",
          "name": "oldQuorumNumerator",
          "type": "uint256"
        },
        {
          "indexed": false,
          "internalType": "uint256",
          "name": "newQuorumNumerator",
          "type": "uint256"
        }
      ],
      "name": "QuorumNumeratorUpdated",
      "type": "event"
    },
    {
      "anonymous": false,
      "inputs": [
        {
          "indexed": false,
          "internalType": "address",
          "name": "oldTimelock",
          "type": "address"
        },
        {
          "indexed": false,
          "internalType": "address",
          "name": "newTimelock",
          "type": "address"
        }
      ],
      "name": "TimelockChange",
      "type": "event"
    },
    {
      "anonymous": false,
      "inputs": [
        {
          "indexed": true,
          "internalType": "address",
          "name": "voter",
          "type": "address"
        },
        {
          "indexed": false,
          "internalType": "uint256",
          "name": "proposalId",
          "type": "uint256"
        },
        {
          "indexed": false,
          "internalType": "uint8",
          "name": "support",
          "type": "uint8"
        },
        {
          "indexed": false,
          "internalType": "uint256",
          "name": "weight",
          "type": "uint256"
        },
        {
          "indexed": false,
          "internalType": "string",
          "name": "reason",
          "type": "string"
        }
      ],
      "name": "VoteCast",
      "type": "event"
    },
    {
      "inputs": [],
      "name": "BALLOT_TYPEHASH",
      "outputs": [
        {
          "internalType": "bytes32",
          "name": "",
          "type": "bytes32"
        }
      ],
      "stateMutability": "view",
      "type": "function"
    },
    {
      "inputs": [],
      "name": "COUNTING_MODE",
      "outputs": [
        {
          "internalType": "string",
          "name": "",
          "type": "string"
        }
      ],
      "stateMutability": "pure",
      "type": "function"
    },
    {
      "inputs": [
        {
          "internalType": "uint256",
          "name": "proposalId",
          "type": "uint256"
        },
        {
          "internalType": "uint8",
          "name": "support",
          "type": "uint8"
        }
      ],
      "name": "castVote",
      "outputs": [
        {
          "internalType": "uint256",
          "name": "",
          "type": "uint256"
        }
      ],
      "stateMutability": "nonpayable",
      "type": "function"
    },
    {
      "inputs": [
        {
          "internalType": "uint256",
          "name": "proposalId",
          "type": "uint256"
        },
        {
          "internalType": "uint8",
          "name": "support",
          "type": "uint8"
        },
        {
          "internalType": "uint8",
          "name": "v",
          "type": "uint8"
        },
        {
          "internalType": "bytes32",
          "name": "r",
          "type": "bytes32"
        },
        {
          "internalType": "bytes32",
          "name": "s",
          "type": "bytes32"
        }
      ],
      "name": "castVoteBySig",
      "outputs": [
        {
          "internalType": "uint256",
          "name": "",
          "type": "uint256"
        }
      ],
      "stateMutability": "nonpayable",
      "type": "function"
    },
    {
      "inputs": [
        {
          "internalType": "uint256",
          "name": "proposalId",
          "type": "uint256"
        },
        {
          "internalType": "uint8",
          "name": "support",
          "type": "uint8"
        },
        {
          "internalType": "string",
          "name": "reason",
          "type": "string"
        }
      ],
      "name": "castVoteWithReason",
      "outputs": [
        {
          "internalType": "uint256",
          "name": "",
          "type": "uint256"
        }
      ],
      "stateMutability": "nonpayable",
      "type": "function"
    },
    {
      "inputs": [
        {
          "internalType": "address[]",
          "name": "targets",
          "type": "address[]"
        },
        {
          "internalType": "uint256[]",
          "name": "values",
          "type": "uint256[]"
        },
        {
          "internalType": "bytes[]",
          "name": "calldatas",
          "type": "bytes[]"
        },
        {
          "internalType": "bytes32",
          "name": "descriptionHash",
          "type": "bytes32"
        }
      ],
      "name": "execute",
      "outputs": [
        {
          "internalType": "uint256",
          "name": "",
          "type": "uint256"
        }
      ],
      "stateMutability": "payable",
      "type": "function"
    },
    {
      "inputs": [
        {
          "internalType": "address",
          "name": "account",
          "type": "address"
        },
        {
          "internalType": "uint256",
          "name": "blockNumber",
          "type": "uint256"
        }
      ],
      "name": "getVotes",
      "outputs": [
        {
          "internalType": "uint256",
          "name": "",
          "type": "uint256"
        }
      ],
      "stateMutability": "view",
      "type": "function"
    },
    {
      "inputs": [
        {
          "internalType": "uint256",
          "name": "proposalId",
          "type": "uint256"
        },
        {
          "internalType": "address",
          "name": "account",
          "type": "address"
        }
      ],
      "name": "hasVoted",
      "outputs": [
        {
          "internalType": "bool",
          "name": "",
          "type": "bool"
        }
      ],
      "stateMutability": "view",
      "type": "function"
    },
    {
      "inputs": [
        {
          "internalType": "address[]",
          "name": "targets",
          "type": "address[]"
        },
        {
          "internalType": "uint256[]",
          "name": "values",
          "type": "uint256[]"
        },
        {
          "internalType": "bytes[]",
          "name": "calldatas",
          "type": "bytes[]"
        },
        {
          "internalType": "bytes32",
          "name": "descriptionHash",
          "type": "bytes32"
        }
      ],
      "name": "hashProposal",
      "outputs": [
        {
          "internalType": "uint256",
          "name": "",
          "type": "uint256"
        }
      ],
      "stateMutability": "pure",
      "type": "function"
    },
    {
      "inputs": [],
      "name": "name",
      "outputs": [
        {
          "internalType": "string",
          "name": "",
          "type": "string"
        }
      ],
      "stateMutability": "view",
      "type": "function"
    },
    {
      "inputs": [
        {
          "internalType": "uint256",
          "name": "proposalId",
          "type": "uint256"
        }
      ],
      "name": "proposalDeadline",
      "outputs": [
        {
          "internalType": "uint256",
          "name": "",
          "type": "uint256"
        }
      ],
      "stateMutability": "view",
      "type": "function"
    },
    {
      "inputs": [
        {
          "internalType": "uint256",
          "name": "proposalId",
          "type": "uint256"
        }
      ],
      "name": "proposalEta",
      "outputs": [
        {
          "internalType": "uint256",
          "name": "",
          "type": "uint256"
        }
      ],
      "stateMutability": "view",
      "type": "function"
    },
    {
      "inputs": [
        {
          "internalType": "uint256",
          "name": "proposalId",
          "type": "uint256"
        }
      ],
      "name": "proposalSnapshot",
      "outputs": [
        {
          "internalType": "uint256",
          "name": "",
          "type": "uint256"
        }
      ],
      "stateMutability": "view",
      "type": "function"
    },
    {
      "inputs": [],
      "name": "proposalThreshold",
      "outputs": [
        {
          "internalType": "uint256",
          "name": "",
          "type": "uint256"
        }
      ],
      "stateMutability": "view",
      "type": "function"
    },
    {
      "inputs": [
        {
          "internalType": "uint256",
          "name": "proposalId",
          "type": "uint256"
        }
      ],
      "name": "proposalVotes",
      "outputs": [
        {
          "internalType": "uint256",
          "name": "againstVotes",
          "type": "uint256"
        },
        {
          "internalType": "uint256",
          "name": "forVotes",
          "type": "uint256"
        },
        {
          "internalType": "uint256",
          "name": "abstainVotes",
          "type": "uint256"
        }
      ],
      "stateMutability": "view",
      "type": "function"
    },
    {
      "inputs": [
        {
          "internalType": "address[]",
          "name": "targets",
          "type": "address[]"
        },
        {
          "internalType": "uint256[]",
          "name": "values",
          "type": "uint256[]"
        },
        {
          "internalType": "bytes[]",
          "name": "calldatas",
          "type": "bytes[]"
        },
        {
          "internalType": "string",
          "name": "description",
          "type": "string"
        }
      ],
      "name": "propose",
      "outputs": [
        {
          "internalType": "uint256",
          "name": "",
          "type": "uint256"
        }
      ],
      "stateMutability": "nonpayable",
      "type": "function"
    },
    {
      "inputs": [
        {
          "internalType": "address[]",
          "name": "targets",
          "type": "address[]"
        },
        {
          "internalType": "uint256[]",
          "name": "values",
          "type": "uint256[]"
        },
        {
          "internalType": "bytes[]",
          "name": "calldatas",
          "type": "bytes[]"
        },
        {
          "internalType": "bytes32",
          "name": "descriptionHash",
          "type": "bytes32"
        }
      ],
      "name": "queue",
      "outputs": [
        {
          "internalType": "uint256",
          "name": "",
          "type": "uint256"
        }
      ],
      "stateMutability": "nonpayable",
      "type": "function"
    },
    {
      "inputs": [
        {
          "internalType": "uint256",
          "name": "blockNumber",
          "type": "uint256"
        }
      ],
      "name": "quorum",
      "outputs": [
        {
          "internalType": "uint256",
          "name": "",
          "type": "uint256"
        }
      ],
      "stateMutability": "view",
      "type": "function"
    },
    {
      "inputs": [],
      "name": "quorumDenominator",
      "outputs": [
        {
          "internalType": "uint256",
          "name": "",
          "type": "uint256"
        }
      ],
      "stateMutability": "view",
      "type": "function"
    },
    {
      "inputs": [],
      "name": "quorumNumerator",
      "outputs": [
        {
          "internalType": "uint256",
          "name": "",
          "type": "uint256"
        }
      ],
      "stateMutability": "view",
      "type": "function"
    },
    {
      "inputs": [
        {
          "internalType": "address",
          "name": "target",
          "type": "address"
        },
        {
          "internalType": "uint256",
          "name": "value",
          "type": "uint256"
        },
        {
          "internalType": "bytes",
          "name": "data",
          "type": "bytes"
        }
      ],
      "name": "relay",
      "outputs": [],
      "stateMutability": "nonpayable",
      "type": "function"
    },
    {
      "inputs": [
        {
          "internalType": "uint256",
          "name": "proposalId",
          "type": "uint256"
        }
      ],
      "name": "state",
      "outputs": [
        {
          "internalType": "enum IGovernor.ProposalState",
          "name": "",
          "type": "uint8"
        }
      ],
      "stateMutability": "view",
      "type": "function"
    },
    {
      "inputs": [
        {
          "internalType": "bytes4",
          "name": "interfaceId",
          "type": "bytes4"
        }
      ],
      "name": "supportsInterface",
      "outputs": [
        {
          "internalType": "bool",
          "name": "",
          "type": "bool"
        }
      ],
      "stateMutability": "view",
      "type": "function"
    },
    {
      "inputs": [],
      "name": "timelock",
      "outputs": [
        {
          "internalType": "address",
          "name": "",
          "type": "address"
        }
      ],
      "stateMutability": "view",
      "type": "function"
    },
    {
      "inputs": [],
      "name": "token",
      "outputs": [
        {
          "internalType": "contract ERC20Votes",
          "name": "",
          "type": "address"
        }
      ],
      "stateMutability": "view",
      "type": "function"
    },
    {
      "inputs": [
        {
          "internalType": "uint256",
          "name": "newQuorumNumerator",
          "type": "uint256"
        }
      ],
      "name": "updateQuorumNumerator",
      "outputs": [],
      "stateMutability": "nonpayable",
      "type": "function"
    },
    {
      "inputs": [
        {
          "internalType": "contract TimelockController",
          "name": "newTimelock",
          "type": "address"
        }
      ],
      "name": "updateTimelock",
      "outputs": [],
      "stateMutability": "nonpayable",
      "type": "function"
    },
    {
      "inputs": [],
      "name": "version",
      "outputs": [
        {
          "internalType": "string",
          "name": "",
          "type": "string"
        }
      ],
      "stateMutability": "view",
      "type": "function"
    },
    {
      "inputs": [],
      "name": "votingDelay",
      "outputs": [
        {
          "internalType": "uint256",
          "name": "",
          "type": "uint256"
        }
      ],
      "stateMutability": "pure",
      "type": "function"
    },
    {
      "inputs": [],
      "name": "votingPeriod",
      "outputs": [
        {
          "internalType": "uint256",
          "name": "",
          "type": "uint256"
        }
      ],
      "stateMutability": "pure",
      "type": "function"
    },
    {
      "stateMutability": "payable",
      "type": "receive"
    }
  ],
  "bytecode": "0x6101606040523480156200001257600080fd5b5060405162002ea038038062002ea0833981016040819052620000359162000353565b600482826040518060400160405280600a81526020016926bca3b7bb32b93737b960b11b815250806200006d6200014360201b60201c565b815160208084019190912082518383012060e08290526101008190524660a0818152604080517f8b73c3c69bb8fe3d512ecc4cf759cc79239f7b179b0ffacaa9a75d522b39400f81880181905281830187905260608201869052608082019490945230818401528151808203909301835260c00190528051940193909320919290916080523060c052610120525050825162000113925060009150602084019062000294565b50620001219050816200015e565b506001600160a01b0316610140526200013a81620001c7565b505050620003cf565b6040805180820190915260018152603160f81b602082015290565b600254604080516001600160a01b03928316815291831660208301527f08f74ea46ef7894f65eabfb5e6e695de773a000b47c529ab559178069b226401910160405180910390a1600280546001600160a01b0319166001600160a01b0392909216919091179055565b60648111156200024f5760405162461bcd60e51b815260206004820152604360248201527f476f7665726e6f72566f74657351756f72756d4672616374696f6e3a2071756f60448201527f72756d4e756d657261746f72206f7665722071756f72756d44656e6f6d696e616064820152623a37b960e91b608482015260a40160405180910390fd5b600480549082905560408051828152602081018490527f0553476bf02ef2726e8ce5ced78d63e26e602e4a2257b1f559418e24b4633997910160405180910390a15050565b828054620002a29062000392565b90600052602060002090601f016020900481019282620002c6576000855562000311565b82601f10620002e157805160ff191683800117855562000311565b8280016001018555821562000311579182015b8281111562000311578251825591602001919060010190620002f4565b506200031f92915062000323565b5090565b5b808211156200031f576000815560010162000324565b6001600160a01b03811681146200035057600080fd5b50565b600080604083850312156200036757600080fd5b825162000374816200033a565b602084015190925062000387816200033a565b809150509250929050565b600181811c90821680620003a757607f821691505b60208210811415620003c957634e487b7160e01b600052602260045260246000fd5b50919050565b60805160a05160c05160e051610100516101205161014051612a686200043860003960008181610647015281816114cb01526115550152600061170f0152600061175e0152600061173901526000611692015260006116bc015260006116e60152612a686000f3fe6080604052600436106101d15760003560e01c80637d5e81e2116100f7578063c28bc2fa11610095578063deaaa7cc11610064578063deaaa7cc146105c1578063eb9019d4146105f5578063f8ce560a14610615578063fc0c546a1461063557600080fd5b8063c28bc2fa14610509578063c59057e414610529578063d33219b414610549578063dd4e2ba51461057b57600080fd5b8063a890c910116100d1578063a890c91014610495578063ab58fb8e146104b5578063b58131b0146104d5578063c01f9e37146104e957600080fd5b80637d5e81e21461044c57806397c3d3341461046c578063a7713a701461048057600080fd5b80633932abb11161016f578063544ffc9c1161013e578063544ffc9c1461038d57806354fd4d50146103e2578063567813881461040c5780637b3c71d31461042c57600080fd5b80633932abb1146102e25780633bccf4fd146102f65780633e4f49e614610316578063438596321461034357600080fd5b806306fdde03116101ab57806306fdde031461026d578063160cbed71461028f5780632656227d146102af5780632d63f693146102c257600080fd5b806301ffc9a7146101f957806302a251a31461022e57806306f3f9e61461024d57600080fd5b366101f457306101df610669565b6001600160a01b0316146101f257600080fd5b005b600080fd5b34801561020557600080fd5b50610219610214366004611ed8565b610682565b60405190151581526020015b60405180910390f35b34801561023a57600080fd5b5061b2fa5b604051908152602001610225565b34801561025957600080fd5b506101f2610268366004611f02565b610693565b34801561027957600080fd5b506102826106e0565b6040516102259190611f77565b34801561029b57600080fd5b5061023f6102aa3660046121c2565b610772565b61023f6102bd3660046121c2565b610972565b3480156102ce57600080fd5b5061023f6102dd366004611f02565b610a45565b3480156102ee57600080fd5b50600161023f565b34801561030257600080fd5b5061023f610311366004612267565b610a7c565b34801561032257600080fd5b50610336610331366004611f02565b610b10565b60405161022591906122cb565b34801561034f57600080fd5b5061021961035e3660046122f3565b60008281526005602090815260408083206001600160a01b038516845260030190915290205460ff1692915050565b34801561039957600080fd5b506103c76103a8366004611f02565b6000908152600560205260409020805460018201546002909201549092565b60408051938452602084019290925290820152606001610225565b3480156103ee57600080fd5b506040805180820190915260018152603160f81b6020820152610282565b34801561041857600080fd5b5061023f610427366004612323565b610b1b565b34801561043857600080fd5b5061023f610447366004612397565b610b44565b34801561045857600080fd5b5061023f6104673660046123f0565b610b96565b34801561047857600080fd5b50606461023f565b34801561048c57600080fd5b5060045461023f565b3480156104a157600080fd5b506101f26104b03660046124b0565b610bad565b3480156104c157600080fd5b5061023f6104d0366004611f02565b610bee565b3480156104e157600080fd5b50600061023f565b3480156104f557600080fd5b5061023f610504366004611f02565b610c89565b34801561051557600080fd5b506101f26105243660046124cd565b610cb8565b34801561053557600080fd5b5061023f6105443660046121c2565b610d39565b34801561055557600080fd5b506002546001600160a01b03165b6040516001600160a01b039091168152602001610225565b34801561058757600080fd5b506040805180820190915260208082527f737570706f72743d627261766f2671756f72756d3d666f722c6162737461696e90820152610282565b3480156105cd57600080fd5b5061023f7f150214d74d59b7d1e90c73fc22ef3d991dd0a76b046543d4d80ab92d2a50328f81565b34801561060157600080fd5b5061023f610610366004612510565b610d73565b34801561062157600080fd5b5061023f610630366004611f02565b610d7f565b34801561064157600080fd5b506105637f000000000000000000000000000000000000000000000000000000000000000081565b600061067d6002546001600160a01b031690565b905090565b600061068d82610d8a565b92915050565b61069b610669565b6001600160a01b0316336001600160a01b0316146106d45760405162461bcd60e51b81526004016106cb9061253c565b60405180910390fd5b6106dd81610daf565b50565b6060600080546106ef90612573565b80601f016020809104026020016040519081016040528092919081815260200182805461071b90612573565b80156107685780601f1061073d57610100808354040283529160200191610768565b820191906000526020600020905b81548152906001019060200180831161074b57829003601f168201915b5050505050905090565b60008061078186868686610d39565b9050600461078e82610b10565b600781111561079f5761079f6122b5565b146107bc5760405162461bcd60e51b81526004016106cb906125ae565b6002546040805163793d064960e11b815290516000926001600160a01b03169163f27a0c929160048083019260209291908290030181865afa158015610806573d6000803e3d6000fd5b505050506040513d601f19601f8201168201806040525081019061082a91906125ef565b60025460405163b1c5f42760e01b81529192506001600160a01b03169063b1c5f42790610864908a908a908a906000908b906004016126d1565b602060405180830381865afa158015610881573d6000803e3d6000fd5b505050506040513d601f19601f820116820180604052508101906108a591906125ef565b6000838152600360205260408082209290925560025491516308f2a0bb60e41b81526001600160a01b0390921691638f2a0bb0916108f0918b918b918b91908b90899060040161271f565b600060405180830381600087803b15801561090a57600080fd5b505af115801561091e573d6000803e3d6000fd5b505050507f9a2e42fd6722813d69113e7d0079d3d940171428df7373df9c7f7617cfda2892828242610950919061278d565b6040805192835260208301919091520160405180910390a15095945050505050565b60008061098186868686610d39565b9050600061098e82610b10565b905060048160078111156109a4576109a46122b5565b14806109c1575060058160078111156109bf576109bf6122b5565b145b6109dd5760405162461bcd60e51b81526004016106cb906125ae565b600082815260016020818152604092839020600201805460ff191690921790915590518381527f712ae1383f79ac853f8d882153778e0260ef8f03b504e2866e0593e04d2b291f910160405180910390a1610a3b8288888888610e77565b5095945050505050565b60008181526001602090815260408083208151928301909152546001600160401b0316908190525b6001600160401b031692915050565b604080517f150214d74d59b7d1e90c73fc22ef3d991dd0a76b046543d4d80ab92d2a50328f602082015290810186905260ff851660608201526000908190610ae890610ae09060800160405160208183030381529060405280519060200120610e84565b868686610ed2565b9050610b0587828860405180602001604052806000815250610ef0565b979650505050505050565b600061068d82610ffb565b600080339050610b3c84828560405180602001604052806000815250610ef0565b949350505050565b600080339050610b8c86828787878080601f016020809104026020016040519081016040528093929190818152602001838380828437600092019190915250610ef092505050565b9695505050505050565b6000610ba485858585611145565b95945050505050565b610bb5610669565b6001600160a01b0316336001600160a01b031614610be55760405162461bcd60e51b81526004016106cb9061253c565b6106dd81611413565b60025460008281526003602052604080822054905163d45c443560e01b81526004810191909152909182916001600160a01b039091169063d45c443590602401602060405180830381865afa158015610c4b573d6000803e3d6000fd5b505050506040513d601f19601f82011682018060405250810190610c6f91906125ef565b905080600114610c7f5780610c82565b60005b9392505050565b60008181526001602081815260408084208151928301909152909101546001600160401b031690819052610a6d565b610cc0610669565b6001600160a01b0316336001600160a01b031614610cf05760405162461bcd60e51b81526004016106cb9061253c565b610d328483838080601f01602080910402602001604051908101604052809392919081815260200183838082843760009201919091525088925061147c915050565b5050505050565b600084848484604051602001610d5294939291906127a5565b60408051601f19818403018152919052805160209091012095945050505050565b6000610c8283836114a2565b600061068d82611538565b60006001600160e01b03198216636e665ced60e01b148061068d575061068d826115dc565b6064811115610e325760405162461bcd60e51b815260206004820152604360248201527f476f7665726e6f72566f74657351756f72756d4672616374696f6e3a2071756f60448201527f72756d4e756d657261746f72206f7665722071756f72756d44656e6f6d696e616064820152623a37b960e91b608482015260a4016106cb565b600480549082905560408051828152602081018490527f0553476bf02ef2726e8ce5ced78d63e26e602e4a2257b1f559418e24b4633997910160405180910390a15050565b610d328585858585611611565b600061068d610e91611685565b8360405161190160f01b6020820152602281018390526042810182905260009060620160405160208183030381529060405280519060200120905092915050565b6000806000610ee3878787876117ac565b91509150610a3b81611899565b6000848152600160208190526040822090610f0a87610b10565b6007811115610f1b57610f1b6122b5565b14610f745760405162461bcd60e51b815260206004820152602360248201527f476f7665726e6f723a20766f7465206e6f742063757272656e746c792061637460448201526269766560e81b60648201526084016106cb565b604080516020810190915281546001600160401b031690819052600090610f9c908790610d73565b9050610faa87878784611a54565b856001600160a01b03167fb8e138887d0aa13bab447e82de9d5c1777041ecd21ca36ba824ff1e6c07ddda488878488604051610fe994939291906127f0565b60405180910390a29695505050505050565b60008061100783611bd3565b9050600481600781111561101d5761101d6122b5565b146110285792915050565b60008381526003602052604090205480611043575092915050565b600254604051632ab0f52960e01b8152600481018390526001600160a01b0390911690632ab0f52990602401602060405180830381865afa15801561108c573d6000803e3d6000fd5b505050506040513d601f19601f820116820180604052508101906110b09190612818565b156110bf575060079392505050565b600254604051632c258a9f60e11b8152600481018390526001600160a01b039091169063584b153e90602401602060405180830381865afa158015611108573d6000803e3d6000fd5b505050506040513d601f19601f8201168201806040525081019061112c9190612818565b1561113b575060059392505050565b5060029392505050565b6000806111573361061060014361283a565b10156111d75760405162461bcd60e51b815260206004820152604360248201527f476f7665726e6f72436f6d7061746962696c697479427261766f3a2070726f7060448201527f6f73657220766f7465732062656c6f772070726f706f73616c207468726573686064820152621bdb1960ea1b608482015260a4016106cb565b60006111ec8686868680519060200120610d39565b9050845186511461120f5760405162461bcd60e51b81526004016106cb90612851565b83518651146112305760405162461bcd60e51b81526004016106cb90612851565b60008651116112815760405162461bcd60e51b815260206004820152601860248201527f476f7665726e6f723a20656d7074792070726f706f73616c000000000000000060448201526064016106cb565b600081815260016020908152604091829020825191820190925281546001600160401b031690819052156113015760405162461bcd60e51b815260206004820152602160248201527f476f7665726e6f723a2070726f706f73616c20616c72656164792065786973746044820152607360f81b60648201526084016106cb565b600061130d6001611cdf565b61131643611cdf565b6113209190612892565b9050600061132f61b2fa611cdf565b6113399083612892565b835467ffffffffffffffff19166001600160401b038416178455905060018301805467ffffffffffffffff19166001600160401b0383161790557f7d84a6263ae0d98d3329bd7b46bb4e8d6f98cd35a7adb45c274c8b7fd5ebd5e084338b8b8d516001600160401b038111156113b1576113b1611f8a565b6040519080825280602002602001820160405280156113e457816020015b60608152602001906001900390816113cf5790505b508c88888e6040516113fe999897969594939291906128bd565b60405180910390a15091979650505050505050565b600254604080516001600160a01b03928316815291831660208301527f08f74ea46ef7894f65eabfb5e6e695de773a000b47c529ab559178069b226401910160405180910390a1600280546001600160a01b0319166001600160a01b0392909216919091179055565b6060610b3c848484604051806060016040528060298152602001612a0a60299139611d4b565b604051630748d63560e31b81526001600160a01b038381166004830152602482018390526000917f000000000000000000000000000000000000000000000000000000000000000090911690633a46b1a890604401602060405180830381865afa158015611514573d6000803e3d6000fd5b505050506040513d601f19601f82011682018060405250810190610c8291906125ef565b60006064600454604051632394e7a360e21b8152600481018590527f00000000000000000000000000000000000000000000000000000000000000006001600160a01b031690638e539e8c90602401602060405180830381865afa1580156115a4573d6000803e3d6000fd5b505050506040513d601f19601f820116820180604052508101906115c891906125ef565b6115d291906129ac565b61068d91906129cb565b60006001600160e01b0319821663bf26d89760e01b148061068d57506301ffc9a760e01b6001600160e01b031983161461068d565b60025460405163e38335e560e01b81526001600160a01b039091169063e38335e590349061164c9088908890889060009089906004016126d1565b6000604051808303818588803b15801561166557600080fd5b505af1158015611679573d6000803e3d6000fd5b50505050505050505050565b6000306001600160a01b037f0000000000000000000000000000000000000000000000000000000000000000161480156116de57507f000000000000000000000000000000000000000000000000000000000000000046145b1561170857507f000000000000000000000000000000000000000000000000000000000000000090565b50604080517f00000000000000000000000000000000000000000000000000000000000000006020808301919091527f0000000000000000000000000000000000000000000000000000000000000000828401527f000000000000000000000000000000000000000000000000000000000000000060608301524660808301523060a0808401919091528351808403909101815260c0909201909252805191012090565b6000807f7fffffffffffffffffffffffffffffff5d576e7357a4501ddfe92f46681b20a08311156117e35750600090506003611890565b8460ff16601b141580156117fb57508460ff16601c14155b1561180c5750600090506004611890565b6040805160008082526020820180845289905260ff881692820192909252606081018690526080810185905260019060a0016020604051602081039080840390855afa158015611860573d6000803e3d6000fd5b5050604051601f1901519150506001600160a01b03811661188957600060019250925050611890565b9150600090505b94509492505050565b60008160048111156118ad576118ad6122b5565b14156118b65750565b60018160048111156118ca576118ca6122b5565b14156119185760405162461bcd60e51b815260206004820152601860248201527f45434453413a20696e76616c6964207369676e6174757265000000000000000060448201526064016106cb565b600281600481111561192c5761192c6122b5565b141561197a5760405162461bcd60e51b815260206004820152601f60248201527f45434453413a20696e76616c6964207369676e6174757265206c656e6774680060448201526064016106cb565b600381600481111561198e5761198e6122b5565b14156119e75760405162461bcd60e51b815260206004820152602260248201527f45434453413a20696e76616c6964207369676e6174757265202773272076616c604482015261756560f01b60648201526084016106cb565b60048160048111156119fb576119fb6122b5565b14156106dd5760405162461bcd60e51b815260206004820152602260248201527f45434453413a20696e76616c6964207369676e6174757265202776272076616c604482015261756560f01b60648201526084016106cb565b60008481526005602090815260408083206001600160a01b0387168452600381019092529091205460ff1615611adc5760405162461bcd60e51b815260206004820152602760248201527f476f7665726e6f72566f74696e6753696d706c653a20766f746520616c726561604482015266191e4818d85cdd60ca1b60648201526084016106cb565b6001600160a01b03841660009081526003820160205260408120805460ff1916600117905560ff168360ff161415611b2d5781816000016000828254611b22919061278d565b90915550610d329050565b60ff831660011415611b4d5781816001016000828254611b22919061278d565b60ff831660021415611b6d5781816002016000828254611b22919061278d565b60405162461bcd60e51b815260206004820152603560248201527f476f7665726e6f72566f74696e6753696d706c653a20696e76616c69642076616044820152746c756520666f7220656e756d20566f74655479706560581b60648201526084016106cb565b6000818152600160205260408120600281015460ff1615611bf75750600792915050565b6002810154610100900460ff1615611c125750600292915050565b6000611c1d84610a45565b905080611c6c5760405162461bcd60e51b815260206004820152601d60248201527f476f7665726e6f723a20756e6b6e6f776e2070726f706f73616c20696400000060448201526064016106cb565b438110611c7d575060009392505050565b6000611c8885610c89565b9050438110611c9c57506001949350505050565b611ca585611e68565b8015611cc4575060008581526005602052604090208054600190910154115b15611cd457506004949350505050565b506003949350505050565b60006001600160401b03821115611d475760405162461bcd60e51b815260206004820152602660248201527f53616665436173743a2076616c756520646f65736e27742066697420696e203660448201526534206269747360d01b60648201526084016106cb565b5090565b606082471015611dac5760405162461bcd60e51b815260206004820152602660248201527f416464726573733a20696e73756666696369656e742062616c616e636520666f6044820152651c8818d85b1b60d21b60648201526084016106cb565b843b611dfa5760405162461bcd60e51b815260206004820152601d60248201527f416464726573733a2063616c6c20746f206e6f6e2d636f6e747261637400000060448201526064016106cb565b600080866001600160a01b03168587604051611e1691906129ed565b60006040518083038185875af1925050503d8060008114611e53576040519150601f19603f3d011682016040523d82523d6000602084013e611e58565b606091505b5091509150610b05828286611e9f565b600081815260056020526040812060028101546001820154611e8a919061278d565b611e9661063085610a45565b11159392505050565b60608315611eae575081610c82565b825115611ebe5782518084602001fd5b8160405162461bcd60e51b81526004016106cb9190611f77565b600060208284031215611eea57600080fd5b81356001600160e01b031981168114610c8257600080fd5b600060208284031215611f1457600080fd5b5035919050565b60005b83811015611f36578181015183820152602001611f1e565b83811115611f45576000848401525b50505050565b60008151808452611f63816020860160208601611f1b565b601f01601f19169290920160200192915050565b602081526000610c826020830184611f4b565b634e487b7160e01b600052604160045260246000fd5b604051601f8201601f191681016001600160401b0381118282101715611fc857611fc8611f8a565b604052919050565b60006001600160401b03821115611fe957611fe9611f8a565b5060051b60200190565b6001600160a01b03811681146106dd57600080fd5b600082601f83011261201957600080fd5b8135602061202e61202983611fd0565b611fa0565b82815260059290921b8401810191818101908684111561204d57600080fd5b8286015b8481101561207157803561206481611ff3565b8352918301918301612051565b509695505050505050565b600082601f83011261208d57600080fd5b8135602061209d61202983611fd0565b82815260059290921b840181019181810190868411156120bc57600080fd5b8286015b8481101561207157803583529183019183016120c0565b60006001600160401b038311156120f0576120f0611f8a565b612103601f8401601f1916602001611fa0565b905082815283838301111561211757600080fd5b828260208301376000602084830101529392505050565b600082601f83011261213f57600080fd5b8135602061214f61202983611fd0565b82815260059290921b8401810191818101908684111561216e57600080fd5b8286015b848110156120715780356001600160401b038111156121915760008081fd5b8701603f810189136121a35760008081fd5b6121b48986830135604084016120d7565b845250918301918301612172565b600080600080608085870312156121d857600080fd5b84356001600160401b03808211156121ef57600080fd5b6121fb88838901612008565b9550602087013591508082111561221157600080fd5b61221d8883890161207c565b9450604087013591508082111561223357600080fd5b506122408782880161212e565b949793965093946060013593505050565b803560ff8116811461226257600080fd5b919050565b600080600080600060a0868803121561227f57600080fd5b8535945061228f60208701612251565b935061229d60408701612251565b94979396509394606081013594506080013592915050565b634e487b7160e01b600052602160045260246000fd5b60208101600883106122ed57634e487b7160e01b600052602160045260246000fd5b91905290565b6000806040838503121561230657600080fd5b82359150602083013561231881611ff3565b809150509250929050565b6000806040838503121561233657600080fd5b8235915061234660208401612251565b90509250929050565b60008083601f84011261236157600080fd5b5081356001600160401b0381111561237857600080fd5b60208301915083602082850101111561239057600080fd5b9250929050565b600080600080606085870312156123ad57600080fd5b843593506123bd60208601612251565b925060408501356001600160401b038111156123d857600080fd5b6123e48782880161234f565b95989497509550505050565b6000806000806080858703121561240657600080fd5b84356001600160401b038082111561241d57600080fd5b61242988838901612008565b9550602087013591508082111561243f57600080fd5b61244b8883890161207c565b9450604087013591508082111561246157600080fd5b61246d8883890161212e565b9350606087013591508082111561248357600080fd5b508501601f8101871361249557600080fd5b6124a4878235602084016120d7565b91505092959194509250565b6000602082840312156124c257600080fd5b8135610c8281611ff3565b600080600080606085870312156124e357600080fd5b84356124ee81611ff3565b93506020850135925060408501356001600160401b038111156123d857600080fd5b6000806040838503121561252357600080fd5b823561252e81611ff3565b946020939093013593505050565b60208082526018908201527f476f7665726e6f723a206f6e6c79476f7665726e616e63650000000000000000604082015260600190565b600181811c9082168061258757607f821691505b602082108114156125a857634e487b7160e01b600052602260045260246000fd5b50919050565b60208082526021908201527f476f7665726e6f723a2070726f706f73616c206e6f74207375636365737366756040820152601b60fa1b606082015260800190565b60006020828403121561260157600080fd5b5051919050565b600081518084526020808501945080840160005b838110156126415781516001600160a01b03168752958201959082019060010161261c565b509495945050505050565b600081518084526020808501945080840160005b8381101561264157815187529582019590820190600101612660565b600081518084526020808501808196508360051b8101915082860160005b858110156126c45782840389526126b2848351611f4b565b9885019893509084019060010161269a565b5091979650505050505050565b60a0815260006126e460a0830188612608565b82810360208401526126f6818861264c565b9050828103604084015261270a818761267c565b60608401959095525050608001529392505050565b60c08152600061273260c0830189612608565b8281036020840152612744818961264c565b90508281036040840152612758818861267c565b60608401969096525050608081019290925260a0909101529392505050565b634e487b7160e01b600052601160045260246000fd5b600082198211156127a0576127a0612777565b500190565b6080815260006127b86080830187612608565b82810360208401526127ca818761264c565b905082810360408401526127de818661267c565b91505082606083015295945050505050565b84815260ff84166020820152826040820152608060608201526000610b8c6080830184611f4b565b60006020828403121561282a57600080fd5b81518015158114610c8257600080fd5b60008282101561284c5761284c612777565b500390565b60208082526021908201527f476f7665726e6f723a20696e76616c69642070726f706f73616c206c656e67746040820152600d60fb1b606082015260800190565b60006001600160401b038083168185168083038211156128b4576128b4612777565b01949350505050565b60006101208b8352602060018060a01b038c16818501528160408501526128e68285018c612608565b915083820360608501526128fa828b61264c565b915083820360808501528189518084528284019150828160051b850101838c0160005b8381101561294b57601f19878403018552612939838351611f4b565b9486019492509085019060010161291d565b505086810360a088015261295f818c61267c565b94505050505061297a60c08401876001600160401b03169052565b6001600160401b03851660e084015282810361010084015261299c8185611f4b565b9c9b505050505050505050505050565b60008160001904831182151516156129c6576129c6612777565b500290565b6000826129e857634e487b7160e01b600052601260045260246000fd5b500490565b600082516129ff818460208701611f1b565b919091019291505056fe416464726573733a206c6f772d6c6576656c2063616c6c20776974682076616c7565206661696c6564a2646970667358221220b34e3248710668c5354cf46a66dec61d6221b0beeac283abbb4004e130f4477564736f6c634300080a0033",
  "linkReferences": {},
  "deployedLinkReferences": {}
}