{
  "_format": "hh-sol-artifact-1",
  "contractName": "ERC721Dividend",
  "sourceName": "contracts/Pool/ERC721Dividend.sol",
  "abi": [
    {
      "inputs": [
        {
          "internalType": "contract IPaxEmitter",
          "name": "_paxEmitter",
          "type": "address"
        },
        {
          "internalType": "uint256",
          "name": "_pid",
          "type": "uint256"
        },
        {
          "internalType": "contract IERC721Enumerable",
          "name": "_nft",
          "type": "address"
        },
        {
          "internalType": "uint256",
          "name": "_maxNFTSupply",
          "type": "uint256"
        }
      ],
      "stateMutability": "nonpayable",
      "type": "constructor"
    },
    {
      "anonymous": false,
      "inputs": [
        {
          "indexed": true,
          "internalType": "uint256",
          "name": "id",
          "type": "uint256"
        },
        {
          "indexed": false,
          "internalType": "uint256",
          "name": "claimed",
          "type": "uint256"
        }
      ],
      "name": "Claim",
      "type": "event"
    },
    {
      "anonymous": false,
      "inputs": [
        {
          "indexed": true,
          "internalType": "address",
          "name": "by",
          "type": "address"
        },
        {
          "indexed": false,
          "internalType": "uint256",
          "name": "distributed",
          "type": "uint256"
        }
      ],
      "name": "Distribute",
      "type": "event"
    },
    {
      "inputs": [],
      "name": "accumulativeOf",
      "outputs": [
        {
          "internalType": "uint256",
          "name": "",
          "type": "uint256"
        }
      ],
      "stateMutability": "view",
      "type": "function"
    },
    {
      "inputs": [
        {
          "internalType": "uint256[]",
          "name": "ids",
          "type": "uint256[]"
        }
      ],
      "name": "claim",
      "outputs": [
        {
          "internalType": "uint256",
          "name": "totalClaimable",
          "type": "uint256"
        }
      ],
      "stateMutability": "nonpayable",
      "type": "function"
    },
    {
      "inputs": [
        {
          "internalType": "uint256",
          "name": "id",
          "type": "uint256"
        }
      ],
      "name": "claimableOf",
      "outputs": [
        {
          "internalType": "uint256",
          "name": "",
          "type": "uint256"
        }
      ],
      "stateMutability": "view",
      "type": "function"
    },
    {
      "inputs": [
        {
          "internalType": "uint256",
          "name": "id",
          "type": "uint256"
        }
      ],
      "name": "claimedOf",
      "outputs": [
        {
          "internalType": "uint256",
          "name": "",
          "type": "uint256"
        }
      ],
      "stateMutability": "view",
      "type": "function"
    },
    {
      "inputs": [],
      "name": "maxNFTSupply",
      "outputs": [
        {
          "internalType": "uint256",
          "name": "",
          "type": "uint256"
        }
      ],
      "stateMutability": "view",
      "type": "function"
    },
    {
      "inputs": [],
      "name": "nft",
      "outputs": [
        {
          "internalType": "contract IERC721Enumerable",
          "name": "",
          "type": "address"
        }
      ],
      "stateMutability": "view",
      "type": "function"
    },
    {
      "inputs": [],
      "name": "pax",
      "outputs": [
        {
          "internalType": "contract IPax",
          "name": "",
          "type": "address"
        }
      ],
      "stateMutability": "view",
      "type": "function"
    },
    {
      "inputs": [],
      "name": "paxEmitter",
      "outputs": [
        {
          "internalType": "contract IPaxEmitter",
          "name": "",
          "type": "address"
        }
      ],
      "stateMutability": "view",
      "type": "function"
    },
    {
      "inputs": [],
      "name": "pid",
      "outputs": [
        {
          "internalType": "uint256",
          "name": "",
          "type": "uint256"
        }
      ],
      "stateMutability": "view",
      "type": "function"
    }
  ],
  "bytecode": "0x60806040526000600555600060065534801561001a57600080fd5b50604051610a7f380380610a7f8339810160408190526100399161010c565b600080546001600160a01b0319166001600160a01b038616908117909155604080516314a9c06d60e21b815290516352a701b4916004808201926020929091908290030181865afa158015610092573d6000803e3d6000fd5b505050506040513d601f19601f820116820180604052508101906100b69190610155565b600180546001600160a01b03199081166001600160a01b03938416179091556002949094556003805490941692169190911790915560045550610179565b6001600160a01b038116811461010957600080fd5b50565b6000806000806080858703121561012257600080fd5b845161012d816100f4565b602086015160408701519195509350610145816100f4565b6060959095015193969295505050565b60006020828403121561016757600080fd5b8151610172816100f4565b9392505050565b6108f7806101886000396000f3fe608060405234801561001057600080fd5b50600436106100935760003560e01c8063513bed1211610066578063513bed121461010757806352a701b41461011a5780636ba4c1381461012d578063a448e84e14610140578063f10684541461015357600080fd5b80631c9e005e1461009857806324c979a3146100b357806347ccca02146100bc57806349e8e06a146100e7575b600080fd5b6100a061015c565b6040519081526020015b60405180910390f35b6100a060045481565b6003546100cf906001600160a01b031681565b6040516001600160a01b0390911681526020016100aa565b6100a06100f5366004610733565b60009081526007602052604090205490565b6100a0610115366004610733565b6102c2565b6001546100cf906001600160a01b031681565b6100a061013b36600461074c565b6102f9565b6000546100cf906001600160a01b031681565b6100a060025481565b60065460045460009190156102ba576001546040516370a0823160e01b815230600482015260009161025a916001600160a01b03909116906370a0823190602401602060405180830381865afa1580156101ba573d6000803e3d6000fd5b505050506040513d601f19601f820116820180604052508101906101de91906107c1565b6000546002546040516334b2590160e01b81526001600160a01b03909216916334b25901916102139160040190815260200190565b602060405180830381865afa158015610230573d6000803e3d6000fd5b505050506040513d601f19601f8201168201806040525081019061025491906107c1565b9061056c565b905060006102736005548361057f90919063ffffffff16565b905080156102a4576004546102a19061029a9061029484600160801b61058b565b90610597565b849061056c565b92505b6102b283600160801b610597565b935050505090565b600091505090565b600060045482106102d257600080fd5b6000828152600760205260409020546102f3906102ed61015c565b9061057f565b92915050565b60006103036105a3565b8160005b81811015610453576000858583818110610323576103236107da565b905060200201359050600454811080156103b55750336003546040516331a9108f60e11b8152600481018490526001600160a01b039283169290911690636352211e90602401602060405180830381865afa158015610386573d6000803e3d6000fd5b505050506040513d601f19601f820116820180604052508101906103aa91906107f0565b6001600160a01b0316145b6103be57600080fd5b60006103c982610704565b9050801561043e576000828152600760205260409020546103ea908261056c565b600083815260076020908152604091829020929092555182815283917f022e3d29644ead4083349ca84d24bcac368b2461819b70f5921fea15de4dec4d910160405180910390a261043b858261056c565b94505b5061044c905081600161082f565b9050610307565b506001546001600160a01b03166379cc67903361047185600a610597565b6040516001600160e01b031960e085901b1681526001600160a01b0390921660048301526024820152604401600060405180830381600087803b1580156104b757600080fd5b505af11580156104cb573d6000803e3d6000fd5b50506001546001600160a01b0316915063a9059cbb9050336040516001600160e01b031960e084901b1681526001600160a01b039091166004820152602481018590526044016020604051808303816000875af1158015610530573d6000803e3d6000fd5b505050506040513d601f19601f820116820180604052508101906105549190610847565b50600554610562908361057f565b6005555092915050565b6000610578828461082f565b9392505050565b60006105788284610869565b60006105788284610880565b6000610578828461089f565b60045415610702576000546002546040516328f582d360e11b81526001600160a01b03909216916351eb05a6916105e09160040190815260200190565b600060405180830381600087803b1580156105fa57600080fd5b505af115801561060e573d6000803e3d6000fd5b50506001546040516370a0823160e01b8152306004820152600093506001600160a01b0390911691506370a0823190602401602060405180830381865afa15801561065d573d6000803e3d6000fd5b505050506040513d601f19601f8201168201806040525081019061068191906107c1565b9050600061069a6005548361057f90919063ffffffff16565b905080156106fd576004546106c4906106bb9061029484600160801b61058b565b6006549061056c565b60065560405181815233907fc1d32ad5cca423e7dda2123dbf8c482f8e77d00b631c06e903a47f2cec1334df9060200160405180910390a25b506005555b565b6000818152600760205260408120546102f3906102ed60065460009061072e90600160801b610597565b905090565b60006020828403121561074557600080fd5b5035919050565b6000806020838503121561075f57600080fd5b823567ffffffffffffffff8082111561077757600080fd5b818501915085601f83011261078b57600080fd5b81358181111561079a57600080fd5b8660208260051b85010111156107af57600080fd5b60209290920196919550909350505050565b6000602082840312156107d357600080fd5b5051919050565b634e487b7160e01b600052603260045260246000fd5b60006020828403121561080257600080fd5b81516001600160a01b038116811461057857600080fd5b634e487b7160e01b600052601160045260246000fd5b6000821982111561084257610842610819565b500190565b60006020828403121561085957600080fd5b8151801515811461057857600080fd5b60008282101561087b5761087b610819565b500390565b600081600019048311821515161561089a5761089a610819565b500290565b6000826108bc57634e487b7160e01b600052601260045260246000fd5b50049056fea26469706673582212204116c4f5780ee3e06c653f6c238dc2625a87ec913e423cc5cfb1d23243cab80164736f6c634300080a0033",
  "linkReferences": {},
  "deployedLinkReferences": {}
}