{
  "_format": "hh-sol-artifact-1",
  "contractName": "GovernorCompatibilityBravoMock",
  "sourceName": "contracts/openzeppelin/contracts/mocks/GovernorCompatibilityBravoMock.sol",
  "abi": [
    {
      "inputs": [
        {
          "internalType": "string",
          "name": "name_",
          "type": "string"
        },
        {
          "internalType": "contract ERC20VotesComp",
          "name": "token_",
          "type": "address"
        },
        {
          "internalType": "uint256",
          "name": "votingDelay_",
          "type": "uint256"
        },
        {
          "internalType": "uint256",
          "name": "votingPeriod_",
          "type": "uint256"
        },
        {
          "internalType": "uint256",
          "name": "proposalThreshold_",
          "type": "uint256"
        },
        {
          "internalType": "contract ICompoundTimelock",
          "name": "timelock_",
          "type": "address"
        }
      ],
      "stateMutability": "nonpayable",
      "type": "constructor"
    },
    {
      "anonymous": false,
      "inputs": [
        {
          "indexed": false,
          "internalType": "uint256",
          "name": "proposalId",
          "type": "uint256"
        }
      ],
      "name": "ProposalCanceled",
      "type": "event"
    },
    {
      "anonymous": false,
      "inputs": [
        {
          "indexed": false,
          "internalType": "uint256",
          "name": "proposalId",
          "type": "uint256"
        },
        {
          "indexed": false,
          "internalType": "address",
          "name": "proposer",
          "type": "address"
        },
        {
          "indexed": false,
          "internalType": "address[]",
          "name": "targets",
          "type": "address[]"
        },
        {
          "indexed": false,
          "internalType": "uint256[]",
          "name": "values",
          "type": "uint256[]"
        },
        {
          "indexed": false,
          "internalType": "string[]",
          "name": "signatures",
          "type": "string[]"
        },
        {
          "indexed": false,
          "internalType": "bytes[]",
          "name": "calldatas",
          "type": "bytes[]"
        },
        {
          "indexed": false,
          "internalType": "uint256",
          "name": "startBlock",
          "type": "uint256"
        },
        {
          "indexed": false,
          "internalType": "uint256",
          "name": "endBlock",
          "type": "uint256"
        },
        {
          "indexed": false,
          "internalType": "string",
          "name": "description",
          "type": "string"
        }
      ],
      "name": "ProposalCreated",
      "type": "event"
    },
    {
      "anonymous": false,
      "inputs": [
        {
          "indexed": false,
          "internalType": "uint256",
          "name": "proposalId",
          "type": "uint256"
        }
      ],
      "name": "ProposalExecuted",
      "type": "event"
    },
    {
      "anonymous": false,
      "inputs": [
        {
          "indexed": false,
          "internalType": "uint256",
          "name": "proposalId",
          "type": "uint256"
        },
        {
          "indexed": false,
          "internalType": "uint256",
          "name": "eta",
          "type": "uint256"
        }
      ],
      "name": "ProposalQueued",
      "type": "event"
    },
    {
      "anonymous": false,
      "inputs": [
        {
          "indexed": false,
          "internalType": "uint256",
          "name": "oldProposalThreshold",
          "type": "uint256"
        },
        {
          "indexed": false,
          "internalType": "uint256",
          "name": "newProposalThreshold",
          "type": "uint256"
        }
      ],
      "name": "ProposalThresholdSet",
      "type": "event"
    },
    {
      "anonymous": false,
      "inputs": [
        {
          "indexed": false,
          "internalType": "address",
          "name": "oldTimelock",
          "type": "address"
        },
        {
          "indexed": false,
          "internalType": "address",
          "name": "newTimelock",
          "type": "address"
        }
      ],
      "name": "TimelockChange",
      "type": "event"
    },
    {
      "anonymous": false,
      "inputs": [
        {
          "indexed": true,
          "internalType": "address",
          "name": "voter",
          "type": "address"
        },
        {
          "indexed": false,
          "internalType": "uint256",
          "name": "proposalId",
          "type": "uint256"
        },
        {
          "indexed": false,
          "internalType": "uint8",
          "name": "support",
          "type": "uint8"
        },
        {
          "indexed": false,
          "internalType": "uint256",
          "name": "weight",
          "type": "uint256"
        },
        {
          "indexed": false,
          "internalType": "string",
          "name": "reason",
          "type": "string"
        }
      ],
      "name": "VoteCast",
      "type": "event"
    },
    {
      "anonymous": false,
      "inputs": [
        {
          "indexed": false,
          "internalType": "uint256",
          "name": "oldVotingDelay",
          "type": "uint256"
        },
        {
          "indexed": false,
          "internalType": "uint256",
          "name": "newVotingDelay",
          "type": "uint256"
        }
      ],
      "name": "VotingDelaySet",
      "type": "event"
    },
    {
      "anonymous": false,
      "inputs": [
        {
          "indexed": false,
          "internalType": "uint256",
          "name": "oldVotingPeriod",
          "type": "uint256"
        },
        {
          "indexed": false,
          "internalType": "uint256",
          "name": "newVotingPeriod",
          "type": "uint256"
        }
      ],
      "name": "VotingPeriodSet",
      "type": "event"
    },
    {
      "inputs": [],
      "name": "BALLOT_TYPEHASH",
      "outputs": [
        {
          "internalType": "bytes32",
          "name": "",
          "type": "bytes32"
        }
      ],
      "stateMutability": "view",
      "type": "function"
    },
    {
      "inputs": [],
      "name": "COUNTING_MODE",
      "outputs": [
        {
          "internalType": "string",
          "name": "",
          "type": "string"
        }
      ],
      "stateMutability": "pure",
      "type": "function"
    },
    {
      "inputs": [],
      "name": "__acceptAdmin",
      "outputs": [],
      "stateMutability": "nonpayable",
      "type": "function"
    },
    {
      "inputs": [
        {
          "internalType": "uint256",
          "name": "proposalId",
          "type": "uint256"
        }
      ],
      "name": "cancel",
      "outputs": [],
      "stateMutability": "nonpayable",
      "type": "function"
    },
    {
      "inputs": [
        {
          "internalType": "address[]",
          "name": "targets",
          "type": "address[]"
        },
        {
          "internalType": "uint256[]",
          "name": "values",
          "type": "uint256[]"
        },
        {
          "internalType": "bytes[]",
          "name": "calldatas",
          "type": "bytes[]"
        },
        {
          "internalType": "bytes32",
          "name": "salt",
          "type": "bytes32"
        }
      ],
      "name": "cancel",
      "outputs": [
        {
          "internalType": "uint256",
          "name": "proposalId",
          "type": "uint256"
        }
      ],
      "stateMutability": "nonpayable",
      "type": "function"
    },
    {
      "inputs": [
        {
          "internalType": "uint256",
          "name": "proposalId",
          "type": "uint256"
        },
        {
          "internalType": "uint8",
          "name": "support",
          "type": "uint8"
        }
      ],
      "name": "castVote",
      "outputs": [
        {
          "internalType": "uint256",
          "name": "",
          "type": "uint256"
        }
      ],
      "stateMutability": "nonpayable",
      "type": "function"
    },
    {
      "inputs": [
        {
          "internalType": "uint256",
          "name": "proposalId",
          "type": "uint256"
        },
        {
          "internalType": "uint8",
          "name": "support",
          "type": "uint8"
        },
        {
          "internalType": "uint8",
          "name": "v",
          "type": "uint8"
        },
        {
          "internalType": "bytes32",
          "name": "r",
          "type": "bytes32"
        },
        {
          "internalType": "bytes32",
          "name": "s",
          "type": "bytes32"
        }
      ],
      "name": "castVoteBySig",
      "outputs": [
        {
          "internalType": "uint256",
          "name": "",
          "type": "uint256"
        }
      ],
      "stateMutability": "nonpayable",
      "type": "function"
    },
    {
      "inputs": [
        {
          "internalType": "uint256",
          "name": "proposalId",
          "type": "uint256"
        },
        {
          "internalType": "uint8",
          "name": "support",
          "type": "uint8"
        },
        {
          "internalType": "string",
          "name": "reason",
          "type": "string"
        }
      ],
      "name": "castVoteWithReason",
      "outputs": [
        {
          "internalType": "uint256",
          "name": "",
          "type": "uint256"
        }
      ],
      "stateMutability": "nonpayable",
      "type": "function"
    },
    {
      "inputs": [
        {
          "internalType": "address[]",
          "name": "targets",
          "type": "address[]"
        },
        {
          "internalType": "uint256[]",
          "name": "values",
          "type": "uint256[]"
        },
        {
          "internalType": "bytes[]",
          "name": "calldatas",
          "type": "bytes[]"
        },
        {
          "internalType": "bytes32",
          "name": "salt",
          "type": "bytes32"
        }
      ],
      "name": "execute",
      "outputs": [
        {
          "internalType": "uint256",
          "name": "",
          "type": "uint256"
        }
      ],
      "stateMutability": "payable",
      "type": "function"
    },
    {
      "inputs": [
        {
          "internalType": "uint256",
          "name": "proposalId",
          "type": "uint256"
        }
      ],
      "name": "execute",
      "outputs": [],
      "stateMutability": "payable",
      "type": "function"
    },
    {
      "inputs": [
        {
          "internalType": "uint256",
          "name": "proposalId",
          "type": "uint256"
        }
      ],
      "name": "getActions",
      "outputs": [
        {
          "internalType": "address[]",
          "name": "targets",
          "type": "address[]"
        },
        {
          "internalType": "uint256[]",
          "name": "values",
          "type": "uint256[]"
        },
        {
          "internalType": "string[]",
          "name": "signatures",
          "type": "string[]"
        },
        {
          "internalType": "bytes[]",
          "name": "calldatas",
          "type": "bytes[]"
        }
      ],
      "stateMutability": "view",
      "type": "function"
    },
    {
      "inputs": [
        {
          "internalType": "uint256",
          "name": "proposalId",
          "type": "uint256"
        },
        {
          "internalType": "address",
          "name": "voter",
          "type": "address"
        }
      ],
      "name": "getReceipt",
      "outputs": [
        {
          "components": [
            {
              "internalType": "bool",
              "name": "hasVoted",
              "type": "bool"
            },
            {
              "internalType": "uint8",
              "name": "support",
              "type": "uint8"
            },
            {
              "internalType": "uint96",
              "name": "votes",
              "type": "uint96"
            }
          ],
          "internalType": "struct IGovernorCompatibilityBravo.Receipt",
          "name": "",
          "type": "tuple"
        }
      ],
      "stateMutability": "view",
      "type": "function"
    },
    {
      "inputs": [
        {
          "internalType": "address",
          "name": "account",
          "type": "address"
        },
        {
          "internalType": "uint256",
          "name": "blockNumber",
          "type": "uint256"
        }
      ],
      "name": "getVotes",
      "outputs": [
        {
          "internalType": "uint256",
          "name": "",
          "type": "uint256"
        }
      ],
      "stateMutability": "view",
      "type": "function"
    },
    {
      "inputs": [
        {
          "internalType": "uint256",
          "name": "proposalId",
          "type": "uint256"
        },
        {
          "internalType": "address",
          "name": "account",
          "type": "address"
        }
      ],
      "name": "hasVoted",
      "outputs": [
        {
          "internalType": "bool",
          "name": "",
          "type": "bool"
        }
      ],
      "stateMutability": "view",
      "type": "function"
    },
    {
      "inputs": [
        {
          "internalType": "address[]",
          "name": "targets",
          "type": "address[]"
        },
        {
          "internalType": "uint256[]",
          "name": "values",
          "type": "uint256[]"
        },
        {
          "internalType": "bytes[]",
          "name": "calldatas",
          "type": "bytes[]"
        },
        {
          "internalType": "bytes32",
          "name": "descriptionHash",
          "type": "bytes32"
        }
      ],
      "name": "hashProposal",
      "outputs": [
        {
          "internalType": "uint256",
          "name": "",
          "type": "uint256"
        }
      ],
      "stateMutability": "pure",
      "type": "function"
    },
    {
      "inputs": [],
      "name": "name",
      "outputs": [
        {
          "internalType": "string",
          "name": "",
          "type": "string"
        }
      ],
      "stateMutability": "view",
      "type": "function"
    },
    {
      "inputs": [
        {
          "internalType": "uint256",
          "name": "proposalId",
          "type": "uint256"
        }
      ],
      "name": "proposalDeadline",
      "outputs": [
        {
          "internalType": "uint256",
          "name": "",
          "type": "uint256"
        }
      ],
      "stateMutability": "view",
      "type": "function"
    },
    {
      "inputs": [
        {
          "internalType": "uint256",
          "name": "proposalId",
          "type": "uint256"
        }
      ],
      "name": "proposalEta",
      "outputs": [
        {
          "internalType": "uint256",
          "name": "",
          "type": "uint256"
        }
      ],
      "stateMutability": "view",
      "type": "function"
    },
    {
      "inputs": [
        {
          "internalType": "uint256",
          "name": "proposalId",
          "type": "uint256"
        }
      ],
      "name": "proposalSnapshot",
      "outputs": [
        {
          "internalType": "uint256",
          "name": "",
          "type": "uint256"
        }
      ],
      "stateMutability": "view",
      "type": "function"
    },
    {
      "inputs": [],
      "name": "proposalThreshold",
      "outputs": [
        {
          "internalType": "uint256",
          "name": "",
          "type": "uint256"
        }
      ],
      "stateMutability": "view",
      "type": "function"
    },
    {
      "inputs": [
        {
          "internalType": "uint256",
          "name": "proposalId",
          "type": "uint256"
        }
      ],
      "name": "proposals",
      "outputs": [
        {
          "internalType": "uint256",
          "name": "id",
          "type": "uint256"
        },
        {
          "internalType": "address",
          "name": "proposer",
          "type": "address"
        },
        {
          "internalType": "uint256",
          "name": "eta",
          "type": "uint256"
        },
        {
          "internalType": "uint256",
          "name": "startBlock",
          "type": "uint256"
        },
        {
          "internalType": "uint256",
          "name": "endBlock",
          "type": "uint256"
        },
        {
          "internalType": "uint256",
          "name": "forVotes",
          "type": "uint256"
        },
        {
          "internalType": "uint256",
          "name": "againstVotes",
          "type": "uint256"
        },
        {
          "internalType": "uint256",
          "name": "abstainVotes",
          "type": "uint256"
        },
        {
          "internalType": "bool",
          "name": "canceled",
          "type": "bool"
        },
        {
          "internalType": "bool",
          "name": "executed",
          "type": "bool"
        }
      ],
      "stateMutability": "view",
      "type": "function"
    },
    {
      "inputs": [
        {
          "internalType": "address[]",
          "name": "targets",
          "type": "address[]"
        },
        {
          "internalType": "uint256[]",
          "name": "values",
          "type": "uint256[]"
        },
        {
          "internalType": "bytes[]",
          "name": "calldatas",
          "type": "bytes[]"
        },
        {
          "internalType": "string",
          "name": "description",
          "type": "string"
        }
      ],
      "name": "propose",
      "outputs": [
        {
          "internalType": "uint256",
          "name": "",
          "type": "uint256"
        }
      ],
      "stateMutability": "nonpayable",
      "type": "function"
    },
    {
      "inputs": [
        {
          "internalType": "address[]",
          "name": "targets",
          "type": "address[]"
        },
        {
          "internalType": "uint256[]",
          "name": "values",
          "type": "uint256[]"
        },
        {
          "internalType": "string[]",
          "name": "signatures",
          "type": "string[]"
        },
        {
          "internalType": "bytes[]",
          "name": "calldatas",
          "type": "bytes[]"
        },
        {
          "internalType": "string",
          "name": "description",
          "type": "string"
        }
      ],
      "name": "propose",
      "outputs": [
        {
          "internalType": "uint256",
          "name": "",
          "type": "uint256"
        }
      ],
      "stateMutability": "nonpayable",
      "type": "function"
    },
    {
      "inputs": [
        {
          "internalType": "address[]",
          "name": "targets",
          "type": "address[]"
        },
        {
          "internalType": "uint256[]",
          "name": "values",
          "type": "uint256[]"
        },
        {
          "internalType": "bytes[]",
          "name": "calldatas",
          "type": "bytes[]"
        },
        {
          "internalType": "bytes32",
          "name": "salt",
          "type": "bytes32"
        }
      ],
      "name": "queue",
      "outputs": [
        {
          "internalType": "uint256",
          "name": "",
          "type": "uint256"
        }
      ],
      "stateMutability": "nonpayable",
      "type": "function"
    },
    {
      "inputs": [
        {
          "internalType": "uint256",
          "name": "proposalId",
          "type": "uint256"
        }
      ],
      "name": "queue",
      "outputs": [],
      "stateMutability": "nonpayable",
      "type": "function"
    },
    {
      "inputs": [
        {
          "internalType": "uint256",
          "name": "",
          "type": "uint256"
        }
      ],
      "name": "quorum",
      "outputs": [
        {
          "internalType": "uint256",
          "name": "",
          "type": "uint256"
        }
      ],
      "stateMutability": "pure",
      "type": "function"
    },
    {
      "inputs": [],
      "name": "quorumVotes",
      "outputs": [
        {
          "internalType": "uint256",
          "name": "",
          "type": "uint256"
        }
      ],
      "stateMutability": "view",
      "type": "function"
    },
    {
      "inputs": [
        {
          "internalType": "address",
          "name": "target",
          "type": "address"
        },
        {
          "internalType": "uint256",
          "name": "value",
          "type": "uint256"
        },
        {
          "internalType": "bytes",
          "name": "data",
          "type": "bytes"
        }
      ],
      "name": "relay",
      "outputs": [],
      "stateMutability": "nonpayable",
      "type": "function"
    },
    {
      "inputs": [
        {
          "internalType": "uint256",
          "name": "newProposalThreshold",
          "type": "uint256"
        }
      ],
      "name": "setProposalThreshold",
      "outputs": [],
      "stateMutability": "nonpayable",
      "type": "function"
    },
    {
      "inputs": [
        {
          "internalType": "uint256",
          "name": "newVotingDelay",
          "type": "uint256"
        }
      ],
      "name": "setVotingDelay",
      "outputs": [],
      "stateMutability": "nonpayable",
      "type": "function"
    },
    {
      "inputs": [
        {
          "internalType": "uint256",
          "name": "newVotingPeriod",
          "type": "uint256"
        }
      ],
      "name": "setVotingPeriod",
      "outputs": [],
      "stateMutability": "nonpayable",
      "type": "function"
    },
    {
      "inputs": [
        {
          "internalType": "uint256",
          "name": "proposalId",
          "type": "uint256"
        }
      ],
      "name": "state",
      "outputs": [
        {
          "internalType": "enum IGovernor.ProposalState",
          "name": "",
          "type": "uint8"
        }
      ],
      "stateMutability": "view",
      "type": "function"
    },
    {
      "inputs": [
        {
          "internalType": "bytes4",
          "name": "interfaceId",
          "type": "bytes4"
        }
      ],
      "name": "supportsInterface",
      "outputs": [
        {
          "internalType": "bool",
          "name": "",
          "type": "bool"
        }
      ],
      "stateMutability": "view",
      "type": "function"
    },
    {
      "inputs": [],
      "name": "timelock",
      "outputs": [
        {
          "internalType": "address",
          "name": "",
          "type": "address"
        }
      ],
      "stateMutability": "view",
      "type": "function"
    },
    {
      "inputs": [],
      "name": "token",
      "outputs": [
        {
          "internalType": "contract ERC20VotesComp",
          "name": "",
          "type": "address"
        }
      ],
      "stateMutability": "view",
      "type": "function"
    },
    {
      "inputs": [
        {
          "internalType": "contract ICompoundTimelock",
          "name": "newTimelock",
          "type": "address"
        }
      ],
      "name": "updateTimelock",
      "outputs": [],
      "stateMutability": "nonpayable",
      "type": "function"
    },
    {
      "inputs": [],
      "name": "version",
      "outputs": [
        {
          "internalType": "string",
          "name": "",
          "type": "string"
        }
      ],
      "stateMutability": "view",
      "type": "function"
    },
    {
      "inputs": [],
      "name": "votingDelay",
      "outputs": [
        {
          "internalType": "uint256",
          "name": "",
          "type": "uint256"
        }
      ],
      "stateMutability": "view",
      "type": "function"
    },
    {
      "inputs": [],
      "name": "votingPeriod",
      "outputs": [
        {
          "internalType": "uint256",
          "name": "",
          "type": "uint256"
        }
      ],
      "stateMutability": "view",
      "type": "function"
    },
    {
      "stateMutability": "payable",
      "type": "receive"
    }
  ],
  "bytecode": "0x6101606040523480156200001257600080fd5b5060405162004a6438038062004a648339810160408190526200003591620003be565b84818585858a806200005b6040805180820190915260018152603160f81b602082015290565b815160208084019190912082518383012060e08290526101008190524660a0818152604080517f8b73c3c69bb8fe3d512ecc4cf759cc79239f7b179b0ffacaa9a75d522b39400f81880181905281830187905260608201869052608082019490945230818401528151808203909301835260c00190528051940193909320919290916080523060c0526101205250508251620001019250600091506020840190620002e5565b506200010f90508362000154565b6200011a8262000195565b62000125816200023b565b50505062000139816200027c60201b60201c565b506001600160a01b031661014052506200051a945050505050565b60035460408051918252602082018390527fc565b045403dc03c2eea82b81a0465edad9e2e7fc4d97e11421c209da93d7a93910160405180910390a1600355565b60008111620001fa5760405162461bcd60e51b815260206004820152602760248201527f476f7665726e6f7253657474696e67733a20766f74696e6720706572696f6420604482015266746f6f206c6f7760c81b606482015260840160405180910390fd5b60045460408051918252602082018390527f7e3f7f0708a84de9203036abaa450dccc85ad5ff52f78c170f3edb55cf5e8828910160405180910390a1600455565b60055460408051918252602082018390527fccb45da8d5717e6c4544694297c4ba5cf151d455c9bb0ed4fc7a38411bc05461910160405180910390a1600555565b600654604080516001600160a01b03928316815291831660208301527f08f74ea46ef7894f65eabfb5e6e695de773a000b47c529ab559178069b226401910160405180910390a1600680546001600160a01b0319166001600160a01b0392909216919091179055565b828054620002f390620004dd565b90600052602060002090601f01602090048101928262000317576000855562000362565b82601f106200033257805160ff191683800117855562000362565b8280016001018555821562000362579182015b828111156200036257825182559160200191906001019062000345565b506200037092915062000374565b5090565b5b8082111562000370576000815560010162000375565b634e487b7160e01b600052604160045260246000fd5b80516001600160a01b0381168114620003b957600080fd5b919050565b60008060008060008060c08789031215620003d857600080fd5b86516001600160401b0380821115620003f057600080fd5b818901915089601f8301126200040557600080fd5b8151818111156200041a576200041a6200038b565b604051601f8201601f19908116603f011681019083821181831017156200044557620004456200038b565b81604052828152602093508c848487010111156200046257600080fd5b600091505b8282101562000486578482018401518183018501529083019062000467565b82821115620004985760008484830101525b9950620004aa915050898201620003a1565b96505050604087015193506060870151925060808701519150620004d160a08801620003a1565b90509295509295509295565b600181811c90821680620004f257607f821691505b602082108114156200051457634e487b7160e01b600052602260045260246000fd5b50919050565b60805160a05160c05160e0516101005161012051610140516144e86200057c60003960008181610889015261241b0152600061262f0152600061267e01526000612659015260006125b2015260006125dc0152600061260601526144e86000f3fe6080604052600436106102345760003560e01c80637d5e81e21161012e578063dd4e2ba5116100ab578063eb9019d41161006f578063eb9019d414610816578063ece40cc114610836578063f8ce560a14610856578063fc0c546a14610877578063fe0d94c1146108ab57600080fd5b8063dd4e2ba514610692578063ddf0b009146106d8578063deaaa7cc146106f8578063e23a9a521461072c578063ea0217cf146107f657600080fd5b8063c01f9e37116100f2578063c01f9e37146105e0578063c28bc2fa14610600578063c59057e414610620578063d33219b414610640578063da95691a1461067257600080fd5b80637d5e81e214610556578063a890c91014610576578063ab58fb8e14610596578063b58131b0146105b6578063b9a61961146105cb57600080fd5b80633932abb1116101bc578063452115d611610180578063452115d6146104ac57806354fd4d50146104cc57806356781388146104f657806370b0f660146105165780637b3c71d31461053657600080fd5b80633932abb1146103e05780633bccf4fd146103f55780633e4f49e61461041557806340e58ee514610442578063438596321461046257600080fd5b8063160cbed711610203578063160cbed71461034857806324bc1a64146103685780632656227d1461037d5780632d63f69314610390578063328dd982146103b057600080fd5b8063013cf08b1461025c57806301ffc9a7146102d757806302a251a31461030757806306fdde031461032657600080fd5b3661025757306102426108be565b6001600160a01b03161461025557600080fd5b005b600080fd5b34801561026857600080fd5b5061027c6102773660046137d3565b6108d7565b604080519a8b526001600160a01b0390991660208b0152978901969096526060880194909452608087019290925260a086015260c085015260e084015215156101008301521515610120820152610140015b60405180910390f35b3480156102e357600080fd5b506102f76102f23660046137ec565b610980565b60405190151581526020016102ce565b34801561031357600080fd5b506004545b6040519081526020016102ce565b34801561033257600080fd5b5061033b610991565b6040516102ce919061386e565b34801561035457600080fd5b50610318610363366004613ac2565b610a23565b34801561037457600080fd5b50610318610a3a565b61031861038b366004613ac2565b610a4a565b34801561039c57600080fd5b506103186103ab3660046137d3565b610a58565b3480156103bc57600080fd5b506103d06103cb3660046137d3565b610a8f565b6040516102ce9493929190613c17565b3480156103ec57600080fd5b50600354610318565b34801561040157600080fd5b50610318610410366004613c7a565b610d20565b34801561042157600080fd5b506104356104303660046137d3565b610db4565b6040516102ce9190613cde565b34801561044e57600080fd5b5061025561045d3660046137d3565b610dbf565b34801561046e57600080fd5b506102f761047d366004613d06565b60008281526002602090815260408083206001600160a01b038516845260080190915290205460ff1692915050565b3480156104b857600080fd5b506103186104c7366004613ac2565b6110dc565b3480156104d857600080fd5b506040805180820190915260018152603160f81b602082015261033b565b34801561050257600080fd5b50610318610511366004613d36565b6110ea565b34801561052257600080fd5b506102556105313660046137d3565b611113565b34801561054257600080fd5b50610318610551366004613daa565b611157565b34801561056257600080fd5b50610318610571366004613e23565b6111a9565b34801561058257600080fd5b50610255610591366004613ecf565b6111b7565b3480156105a257600080fd5b506103186105b13660046137d3565b6111f8565b3480156105c257600080fd5b50610318611203565b3480156105d757600080fd5b5061025561120e565b3480156105ec57600080fd5b506103186105fb3660046137d3565b611278565b34801561060c57600080fd5b5061025561061b366004613eec565b6112a7565b34801561062c57600080fd5b5061031861063b366004613ac2565b611328565b34801561064c57600080fd5b506006546001600160a01b03165b6040516001600160a01b0390911681526020016102ce565b34801561067e57600080fd5b5061031861068d366004613fae565b611362565b34801561069e57600080fd5b5060408051808201909152601a81527f737570706f72743d627261766f2671756f72756d3d627261766f000000000000602082015261033b565b3480156106e457600080fd5b506102556106f33660046137d3565b611387565b34801561070457600080fd5b506103187f150214d74d59b7d1e90c73fc22ef3d991dd0a76b046543d4d80ab92d2a50328f81565b34801561073857600080fd5b506107c6610747366004613d06565b60408051606081018252600080825260208201819052918101919091525060009182526002602090815260408084206001600160a01b0393909316845260089092018152918190208151606081018352905460ff8082161515835261010082041693820193909352620100009092046001600160601b03169082015290565b6040805182511515815260208084015160ff1690820152918101516001600160601b0316908201526060016102ce565b34801561080257600080fd5b506102556108113660046137d3565b6115f5565b34801561082257600080fd5b5061031861083136600461407f565b611636565b34801561084257600080fd5b506102556108513660046137d3565b611649565b34801561086257600080fd5b506103186108713660046137d3565b50600090565b34801561088357600080fd5b5061065a7f000000000000000000000000000000000000000000000000000000000000000081565b6102556108b93660046137d3565b61168a565b60006108d26006546001600160a01b031690565b905090565b80600080808080808080806108eb8a6111f8565b97506108f68b610a58565b96506109018b611278565b60008c815260026020526040812080546005820154600683015460078401546001600160a01b039093169e50949a5098509296509194506109418d610db4565b9050600281600781111561095757610957613cc8565b149350600781600781111561096e5761096e613cc8565b14925050509193959799509193959799565b600061098b826118f8565b92915050565b6060600080546109a0906140ab565b80601f01602080910402602001604051908101604052809291908181526020018280546109cc906140ab565b8015610a195780601f106109ee57610100808354040283529160200191610a19565b820191906000526020600020905b8154815290600101906020018083116109fc57829003601f168201915b5050505050905090565b6000610a318585858561191d565b95945050505050565b60006108d26108716001436140fc565b6000610a3185858585611c97565b60008181526001602090815260408083208151928301909152546001600160401b0316908190525b6001600160401b031692915050565b60608060608060006002600087815260200190815260200160002090508060010181600201826003018360040183805480602002602001604051908101604052809291908181526020018280548015610b1157602002820191906000526020600020905b81546001600160a01b03168152600190910190602001808311610af3575b5050505050935082805480602002602001604051908101604052809291908181526020018280548015610b6357602002820191906000526020600020905b815481526020019060010190808311610b4f575b5050505050925081805480602002602001604051908101604052809291908181526020016000905b82821015610c37578382906000526020600020018054610baa906140ab565b80601f0160208091040260200160405190810160405280929190818152602001828054610bd6906140ab565b8015610c235780601f10610bf857610100808354040283529160200191610c23565b820191906000526020600020905b815481529060010190602001808311610c0657829003601f168201915b505050505081526020019060010190610b8b565b50505050915080805480602002602001604051908101604052809291908181526020016000905b82821015610d0a578382906000526020600020018054610c7d906140ab565b80601f0160208091040260200160405190810160405280929190818152602001828054610ca9906140ab565b8015610cf65780601f10610ccb57610100808354040283529160200191610cf6565b820191906000526020600020905b815481529060010190602001808311610cd957829003601f168201915b505050505081526020019060010190610c5e565b5050505090509450945094509450509193509193565b604080517f150214d74d59b7d1e90c73fc22ef3d991dd0a76b046543d4d80ab92d2a50328f602082015290810186905260ff851660608201526000908190610d8c90610d849060800160405160208183030381529060405280519060200120611d6a565b868686611db8565b9050610da987828860405180602001604052806000815250611dd6565b979650505050505050565b600061098b82611ee1565b600081815260026020526040902080546001600160a01b0316336001600160a01b03161480610e0d5750610df1611203565b8154610e0b906001600160a01b03166108316001436140fc565b105b610e6e5760405162461bcd60e51b815260206004820152602760248201527f476f7665726e6f72427261766f3a2070726f706f7365722061626f76652074686044820152661c995cda1bdb1960ca1b60648201526084015b60405180910390fd5b6110d781600101805480602002602001604051908101604052809291908181526020018280548015610ec957602002820191906000526020600020905b81546001600160a01b03168152600190910190602001808311610eab575b505050505082600201805480602002602001604051908101604052809291908181526020018280548015610f1c57602002820191906000526020600020905b815481526020019060010190808311610f08575b50505050506110cd84600301805480602002602001604051908101604052809291908181526020016000905b82821015610ff4578382906000526020600020018054610f67906140ab565b80601f0160208091040260200160405190810160405280929190818152602001828054610f93906140ab565b8015610fe05780601f10610fb557610100808354040283529160200191610fe0565b820191906000526020600020905b815481529060010190602001808311610fc357829003601f168201915b505050505081526020019060010190610f48565b50505060048701805460408051602080840282018101909252828152935060009084015b828210156110c4578382906000526020600020018054611037906140ab565b80601f0160208091040260200160405190810160405280929190818152602001828054611063906140ab565b80156110b05780601f10611085576101008083540402835291602001916110b0565b820191906000526020600020905b81548152906001019060200180831161109357829003601f168201915b505050505081526020019060010190611018565b50505050611fc2565b8460090154612122565b505050565b6000610a3185858585612122565b60008033905061110b84828560405180602001604052806000815250611dd6565b949350505050565b61111b6108be565b6001600160a01b0316336001600160a01b03161461114b5760405162461bcd60e51b8152600401610e6590614113565b61115481612130565b50565b60008033905061119f86828787878080601f016020809104026020016040519081016040528093929190818152602001838380828437600092019190915250611dd692505050565b9695505050505050565b6000610a3185858585612171565b6111bf6108be565b6001600160a01b0316336001600160a01b0316146111ef5760405162461bcd60e51b8152600401610e6590614113565b611154816121d9565b600061098b82612242565b60006108d260055490565b600660009054906101000a90046001600160a01b03166001600160a01b0316630e18b6816040518163ffffffff1660e01b8152600401600060405180830381600087803b15801561125e57600080fd5b505af1158015611272573d6000803e3d6000fd5b50505050565b60008181526001602081815260408084208151928301909152909101546001600160401b031690819052610a80565b6112af6108be565b6001600160a01b0316336001600160a01b0316146112df5760405162461bcd60e51b8152600401610e6590614113565b6113218483838080601f01602080910402602001604051908101604052809392919081815260200183838082843760009201919091525088925061226e915050565b5050505050565b600084848484604051602001611341949392919061414a565b60408051601f19818403018152919052805160209091012095945050505050565b6000611372338787878787612294565b61119f86866113818787611fc2565b856111a9565b60008181526002602090815260409182902060018101805484518185028101850190955280855291936110d7939092908301828280156113f057602002820191906000526020600020905b81546001600160a01b031681526001909101906020018083116113d2575b50505050508260020180548060200260200160405190810160405280929190818152602001828054801561144357602002820191906000526020600020905b81548152602001906001019080831161142f575b50505050506115eb84600301805480602002602001604051908101604052809291908181526020016000905b8282101561151b57838290600052602060002001805461148e906140ab565b80601f01602080910402602001604051908101604052809291908181526020018280546114ba906140ab565b80156115075780601f106114dc57610100808354040283529160200191611507565b820191906000526020600020905b8154815290600101906020018083116114ea57829003601f168201915b50505050508152602001906001019061146f565b50505060048701805460408051602080840282018101909252828152935060009084015b828210156110c457838290600052602060002001805461155e906140ab565b80601f016020809104026020016040519081016040528092919081815260200182805461158a906140ab565b80156115d75780601f106115ac576101008083540402835291602001916115d7565b820191906000526020600020905b8154815290600101906020018083116115ba57829003601f168201915b50505050508152602001906001019061153f565b8460090154610a23565b6115fd6108be565b6001600160a01b0316336001600160a01b03161461162d5760405162461bcd60e51b8152600401610e6590614113565b61115481612351565b600061164283836123f2565b9392505050565b6116516108be565b6001600160a01b0316336001600160a01b0316146116815760405162461bcd60e51b8152600401610e6590614113565b61115481612498565b60008181526002602090815260409182902060018101805484518185028101850190955280855291936110d7939092908301828280156116f357602002820191906000526020600020905b81546001600160a01b031681526001909101906020018083116116d5575b50505050508260020180548060200260200160405190810160405280929190818152602001828054801561174657602002820191906000526020600020905b815481526020019060010190808311611732575b50505050506118ee84600301805480602002602001604051908101604052809291908181526020016000905b8282101561181e578382906000526020600020018054611791906140ab565b80601f01602080910402602001604051908101604052809291908181526020018280546117bd906140ab565b801561180a5780601f106117df5761010080835404028352916020019161180a565b820191906000526020600020905b8154815290600101906020018083116117ed57829003601f168201915b505050505081526020019060010190611772565b50505060048701805460408051602080840282018101909252828152935060009084015b828210156110c4578382906000526020600020018054611861906140ab565b80601f016020809104026020016040519081016040528092919081815260200182805461188d906140ab565b80156118da5780601f106118af576101008083540402835291602001916118da565b820191906000526020600020905b8154815290600101906020018083116118bd57829003601f168201915b505050505081526020019060010190611842565b8460090154610a4a565b60006001600160e01b03198216636e665ced60e01b148061098b575061098b826124d9565b60008061192c86868686611328565b9050600461193982610db4565b600781111561194a5761194a613cc8565b146119675760405162461bcd60e51b8152600401610e6590614195565b60065460408051630d48571f60e31b815290516000926001600160a01b031691636a42b8f89160048083019260209291908290030181865afa1580156119b1573d6000803e3d6000fd5b505050506040513d601f19601f820116820180604052508101906119d591906141d6565b6119df90426141ef565b9050611a016119ed8261250e565b60008481526007602052604090209061257a565b60005b8751811015611c525760065488516001600160a01b039091169063f2b06537908a9084908110611a3657611a36614207565b6020026020010151898481518110611a5057611a50614207565b6020026020010151898581518110611a6a57611a6a614207565b602002602001015186604051602001611a86949392919061421d565b604051602081830303815290604052805190602001206040518263ffffffff1660e01b8152600401611aba91815260200190565b602060405180830381865afa158015611ad7573d6000803e3d6000fd5b505050506040513d601f19601f82011682018060405250810190611afb9190614263565b15611b795760405162461bcd60e51b815260206004820152604260248201527f476f7665726e6f7254696d656c6f636b436f6d706f756e643a206964656e746960448201527f63616c2070726f706f73616c20616374696f6e20616c72656164792071756575606482015261195960f21b608482015260a401610e65565b60065488516001600160a01b0390911690633a66f901908a9084908110611ba257611ba2614207565b6020026020010151898481518110611bbc57611bbc614207565b6020026020010151898581518110611bd657611bd6614207565b6020026020010151866040518563ffffffff1660e01b8152600401611bfe949392919061421d565b6020604051808303816000875af1158015611c1d573d6000803e3d6000fd5b505050506040513d601f19601f82011682018060405250810190611c4191906141d6565b50611c4b81614285565b9050611a04565b5060408051838152602081018390527f9a2e42fd6722813d69113e7d0079d3d940171428df7373df9c7f7617cfda289291015b60405180910390a15095945050505050565b600080611ca686868686611328565b90506000611cb382610db4565b90506004816007811115611cc957611cc9613cc8565b1480611ce657506005816007811115611ce457611ce4613cc8565b145b611d025760405162461bcd60e51b8152600401610e6590614195565b600082815260016020818152604092839020600201805460ff191690921790915590518381527f712ae1383f79ac853f8d882153778e0260ef8f03b504e2866e0593e04d2b291f910160405180910390a1611d608288888888612598565b5095945050505050565b600061098b611d776125a5565b8360405161190160f01b6020820152602281018390526042810182905260009060620160405160208183030381529060405280519060200120905092915050565b6000806000611dc9878787876126cc565b91509150611d60816127b9565b6000848152600160208190526040822090611df087610db4565b6007811115611e0157611e01613cc8565b14611e5a5760405162461bcd60e51b815260206004820152602360248201527f476f7665726e6f723a20766f7465206e6f742063757272656e746c792061637460448201526269766560e81b6064820152608401610e65565b604080516020810190915281546001600160401b031690819052600090611e82908790611636565b9050611e9087878784612974565b856001600160a01b03167fb8e138887d0aa13bab447e82de9d5c1777041ecd21ca36ba824ff1e6c07ddda488878488604051611ecf94939291906142a0565b60405180910390a29695505050505050565b600080611eed83612b19565b90506004816007811115611f0357611f03613cc8565b14611f0e5792915050565b6000611f19846111f8565b905080611f27575092915050565b600660009054906101000a90046001600160a01b03166001600160a01b031663c1a287e26040518163ffffffff1660e01b8152600401602060405180830381865afa158015611f7a573d6000803e3d6000fd5b505050506040513d601f19601f82011682018060405250810190611f9e91906141d6565b611fa890826141ef565b4210611fb8575060069392505050565b5060059392505050565b6060600082516001600160401b03811115611fdf57611fdf613881565b60405190808252806020026020018201604052801561201257816020015b6060815260200190600190039081611ffd5790505b50905060005b845181101561211a5784818151811061203357612033614207565b6020026020010151516000146120d15784818151811061205557612055614207565b602002602001015184828151811061206f5761206f614207565b6020026020010151604051602401612087919061386e565b60408051601f1981840301815290829052916120a2916142c8565b6040519081900390206020820180516001600160e01b03166001600160e01b03199092169190911790526120ec565b8381815181106120e3576120e3614207565b60200260200101515b8282815181106120fe576120fe614207565b60200260200101819052508061211390614285565b9050612018565b509392505050565b6000610a3185858585612c28565b60035460408051918252602082018390527fc565b045403dc03c2eea82b81a0465edad9e2e7fc4d97e11421c209da93d7a93910160405180910390a1600355565b60006121cd33868686516001600160401b0381111561219257612192613881565b6040519080825280602002602001820160405280156121c557816020015b60608152602001906001900390816121b05790505b508787612294565b610a3185858585612d43565b600654604080516001600160a01b03928316815291831660208301527f08f74ea46ef7894f65eabfb5e6e695de773a000b47c529ab559178069b226401910160405180910390a1600680546001600160a01b0319166001600160a01b0392909216919091179055565b60008181526007602090815260408083208151928301909152546001600160401b031690819052610a80565b606061110b84848460405180606001604052806029815260200161448a60299139612fff565b8051602082012060006122b287876122ac8888611fc2565b85611328565b60008181526002602052604090206009810154919250906123465780546001600160a01b0319166001600160a01b038a1617815587516122fb90600183019060208b0190613589565b50865161231190600283019060208a01906135ea565b5085516123279060038301906020890190613625565b50845161233d906004830190602088019061367e565b50600981018390555b505050505050505050565b600081116123b15760405162461bcd60e51b815260206004820152602760248201527f476f7665726e6f7253657474696e67733a20766f74696e6720706572696f6420604482015266746f6f206c6f7760c81b6064820152608401610e65565b60045460408051918252602082018390527f7e3f7f0708a84de9203036abaa450dccc85ad5ff52f78c170f3edb55cf5e8828910160405180910390a1600455565b60405163782d6fe160e01b81526001600160a01b038381166004830152602482018390526000917f00000000000000000000000000000000000000000000000000000000000000009091169063782d6fe190604401602060405180830381865afa158015612464573d6000803e3d6000fd5b505050506040513d601f19601f8201168201806040525081019061248891906142e4565b6001600160601b03169392505050565b60055460408051918252602082018390527fccb45da8d5717e6c4544694297c4ba5cf151d455c9bb0ed4fc7a38411bc05461910160405180910390a1600555565b60006001600160e01b0319821663bf26d89760e01b148061098b57506301ffc9a760e01b6001600160e01b031983161461098b565b60006001600160401b038211156125765760405162461bcd60e51b815260206004820152602660248201527f53616665436173743a2076616c756520646f65736e27742066697420696e203660448201526534206269747360d01b6064820152608401610e65565b5090565b815467ffffffffffffffff19166001600160401b0391909116179055565b611321858585858561311c565b6000306001600160a01b037f0000000000000000000000000000000000000000000000000000000000000000161480156125fe57507f000000000000000000000000000000000000000000000000000000000000000046145b1561262857507f000000000000000000000000000000000000000000000000000000000000000090565b50604080517f00000000000000000000000000000000000000000000000000000000000000006020808301919091527f0000000000000000000000000000000000000000000000000000000000000000828401527f000000000000000000000000000000000000000000000000000000000000000060608301524660808301523060a0808401919091528351808403909101815260c0909201909252805191012090565b6000807f7fffffffffffffffffffffffffffffff5d576e7357a4501ddfe92f46681b20a083111561270357506000905060036127b0565b8460ff16601b1415801561271b57508460ff16601c14155b1561272c57506000905060046127b0565b6040805160008082526020820180845289905260ff881692820192909252606081018690526080810185905260019060a0016020604051602081039080840390855afa158015612780573d6000803e3d6000fd5b5050604051601f1901519150506001600160a01b0381166127a9576000600192509250506127b0565b9150600090505b94509492505050565b60008160048111156127cd576127cd613cc8565b14156127d65750565b60018160048111156127ea576127ea613cc8565b14156128385760405162461bcd60e51b815260206004820152601860248201527f45434453413a20696e76616c6964207369676e617475726500000000000000006044820152606401610e65565b600281600481111561284c5761284c613cc8565b141561289a5760405162461bcd60e51b815260206004820152601f60248201527f45434453413a20696e76616c6964207369676e6174757265206c656e677468006044820152606401610e65565b60038160048111156128ae576128ae613cc8565b14156129075760405162461bcd60e51b815260206004820152602260248201527f45434453413a20696e76616c6964207369676e6174757265202773272076616c604482015261756560f01b6064820152608401610e65565b600481600481111561291b5761291b613cc8565b14156111545760405162461bcd60e51b815260206004820152602260248201527f45434453413a20696e76616c6964207369676e6174757265202776272076616c604482015261756560f01b6064820152608401610e65565b60008481526002602090815260408083206001600160a01b038716845260088101909252909120805460ff1615612a035760405162461bcd60e51b815260206004820152602d60248201527f476f7665726e6f72436f6d7061746962696c697479427261766f3a20766f746560448201526c08185b1c9958591e4818d85cdd609a1b6064820152608401610e65565b805460ff85166101000261ffff19909116176001178155612a238361329b565b81546001600160601b039190911662010000026dffffffffffffffffffffffff00001990911617815560ff8416612a735782826006016000828254612a6891906141ef565b90915550612b119050565b60ff841660011415612a935782826005016000828254612a6891906141ef565b60ff841660021415612ab35782826007016000828254612a6891906141ef565b60405162461bcd60e51b815260206004820152602d60248201527f476f7665726e6f72436f6d7061746962696c697479427261766f3a20696e766160448201526c6c696420766f7465207479706560981b6064820152608401610e65565b505050505050565b6000818152600160205260408120600281015460ff1615612b3d5750600792915050565b6002810154610100900460ff1615612b585750600292915050565b6000612b6384610a58565b905080612bb25760405162461bcd60e51b815260206004820152601d60248201527f476f7665726e6f723a20756e6b6e6f776e2070726f706f73616c2069640000006044820152606401610e65565b438110612bc3575060009392505050565b6000612bce85611278565b9050438110612be257506001949350505050565b612beb85613303565b8015612c0d575060008581526002602052604090206006810154600590910154115b15612c1d57506004949350505050565b506003949350505050565b600080612c378686868661332b565b90506000612c44826111f8565b90508015611d605760005b8751811015612d205760065488516001600160a01b039091169063591fcdfe908a9084908110612c8157612c81614207565b6020026020010151898481518110612c9b57612c9b614207565b6020026020010151898581518110612cb557612cb5614207565b6020026020010151866040518563ffffffff1660e01b8152600401612cdd949392919061421d565b600060405180830381600087803b158015612cf757600080fd5b505af1158015612d0b573d6000803e3d6000fd5b5050505080612d1990614285565b9050612c4f565b506000828152600760205260409020805467ffffffffffffffff19169055611d60565b6000612d4d611203565b612d5c336108316001436140fc565b1015612ddc5760405162461bcd60e51b815260206004820152604360248201527f476f7665726e6f72436f6d7061746962696c697479427261766f3a2070726f7060448201527f6f73657220766f7465732062656c6f772070726f706f73616c207468726573686064820152621bdb1960ea1b608482015260a401610e65565b6000612df18686868680519060200120611328565b90508451865114612e145760405162461bcd60e51b8152600401610e659061430d565b8351865114612e355760405162461bcd60e51b8152600401610e659061430d565b6000865111612e865760405162461bcd60e51b815260206004820152601860248201527f476f7665726e6f723a20656d7074792070726f706f73616c00000000000000006044820152606401610e65565b600081815260016020908152604091829020825191820190925281546001600160401b03169081905215612f065760405162461bcd60e51b815260206004820152602160248201527f476f7665726e6f723a2070726f706f73616c20616c72656164792065786973746044820152607360f81b6064820152608401610e65565b6000612f19612f1460035490565b61250e565b612f224361250e565b612f2c919061434e565b90506000612f3c612f1460045490565b612f46908361434e565b9050612f52838361257a565b612f5f600184018261257a565b7f7d84a6263ae0d98d3329bd7b46bb4e8d6f98cd35a7adb45c274c8b7fd5ebd5e084338b8b8d516001600160401b03811115612f9d57612f9d613881565b604051908082528060200260200182016040528015612fd057816020015b6060815260200190600190039081612fbb5790505b508c88888e604051612fea99989796959493929190614379565b60405180910390a15091979650505050505050565b6060824710156130605760405162461bcd60e51b815260206004820152602660248201527f416464726573733a20696e73756666696369656e742062616c616e636520666f6044820152651c8818d85b1b60d21b6064820152608401610e65565b843b6130ae5760405162461bcd60e51b815260206004820152601d60248201527f416464726573733a2063616c6c20746f206e6f6e2d636f6e74726163740000006044820152606401610e65565b600080866001600160a01b031685876040516130ca91906142c8565b60006040518083038185875af1925050503d8060008114613107576040519150601f19603f3d011682016040523d82523d6000602084013e61310c565b606091505b5091509150610da9828286613437565b6000613127866111f8565b9050600081116131935760405162461bcd60e51b815260206004820152603160248201527f476f7665726e6f7254696d656c6f636b436f6d706f756e643a2070726f706f73604482015270185b081b9bdd081e595d081c5d595d5959607a1b6064820152608401610e65565b6006546131a9906001600160a01b031634613470565b60005b85518110156132925760065486516001600160a01b0390911690630825f38f908890849081106131de576131de614207565b60200260200101518784815181106131f8576131f8614207565b602002602001015187858151811061321257613212614207565b6020026020010151866040518563ffffffff1660e01b815260040161323a949392919061421d565b6000604051808303816000875af1158015613259573d6000803e3d6000fd5b505050506040513d6000823e601f3d908101601f19168201604052613281919081019061441c565b5061328b81614285565b90506131ac565b50505050505050565b60006001600160601b038211156125765760405162461bcd60e51b815260206004820152602660248201527f53616665436173743a2076616c756520646f65736e27742066697420696e203960448201526536206269747360d01b6064820152608401610e65565b6000818152600260205260408120600581015461332261087185610a58565b11159392505050565b60008061333a86868686611328565b9050600061334782610db4565b9050600281600781111561335d5761335d613cc8565b1415801561337d5750600681600781111561337a5761337a613cc8565b14155b801561339b5750600781600781111561339857613398613cc8565b14155b6133e75760405162461bcd60e51b815260206004820152601d60248201527f476f7665726e6f723a2070726f706f73616c206e6f74206163746976650000006044820152606401610e65565b60008281526001602052604090819020600201805461ff001916610100179055517f789cf55be980739dad1d0699b93b58e806b51c9d96619bfa8fe0a28abaa7b30c90611c859084815260200190565b60608315613446575081611642565b8251156134565782518084602001fd5b8160405162461bcd60e51b8152600401610e65919061386e565b804710156134c05760405162461bcd60e51b815260206004820152601d60248201527f416464726573733a20696e73756666696369656e742062616c616e63650000006044820152606401610e65565b6000826001600160a01b03168260405160006040518083038185875af1925050503d806000811461350d576040519150601f19603f3d011682016040523d82523d6000602084013e613512565b606091505b50509050806110d75760405162461bcd60e51b815260206004820152603a60248201527f416464726573733a20756e61626c6520746f2073656e642076616c75652c207260448201527f6563697069656e74206d617920686176652072657665727465640000000000006064820152608401610e65565b8280548282559060005260206000209081019282156135de579160200282015b828111156135de57825182546001600160a01b0319166001600160a01b039091161782556020909201916001909101906135a9565b506125769291506136d7565b8280548282559060005260206000209081019282156135de579160200282015b828111156135de57825182559160200191906001019061360a565b828054828255906000526020600020908101928215613672579160200282015b8281111561367257825180516136629184916020909101906136ec565b5091602001919060010190613645565b5061257692915061375f565b8280548282559060005260206000209081019282156136cb579160200282015b828111156136cb57825180516136bb9184916020909101906136ec565b509160200191906001019061369e565b5061257692915061377c565b5b8082111561257657600081556001016136d8565b8280546136f8906140ab565b90600052602060002090601f01602090048101928261371a57600085556135de565b82601f1061373357805160ff19168380011785556135de565b828001600101855582156135de57918201828111156135de57825182559160200191906001019061360a565b808211156125765760006137738282613799565b5060010161375f565b808211156125765760006137908282613799565b5060010161377c565b5080546137a5906140ab565b6000825580601f106137b5575050565b601f01602090049060005260206000209081019061115491906136d7565b6000602082840312156137e557600080fd5b5035919050565b6000602082840312156137fe57600080fd5b81356001600160e01b03198116811461164257600080fd5b60005b83811015613831578181015183820152602001613819565b838111156112725750506000910152565b6000815180845261385a816020860160208601613816565b601f01601f19169290920160200192915050565b6020815260006116426020830184613842565b634e487b7160e01b600052604160045260246000fd5b604051601f8201601f191681016001600160401b03811182821017156138bf576138bf613881565b604052919050565b60006001600160401b038211156138e0576138e0613881565b5060051b60200190565b6001600160a01b038116811461115457600080fd5b600082601f83011261391057600080fd5b81356020613925613920836138c7565b613897565b82815260059290921b8401810191818101908684111561394457600080fd5b8286015b8481101561396857803561395b816138ea565b8352918301918301613948565b509695505050505050565b600082601f83011261398457600080fd5b81356020613994613920836138c7565b82815260059290921b840181019181810190868411156139b357600080fd5b8286015b8481101561396857803583529183019183016139b7565b60006001600160401b038211156139e7576139e7613881565b50601f01601f191660200190565b6000613a03613920846139ce565b9050828152838383011115613a1757600080fd5b828260208301376000602084830101529392505050565b600082601f830112613a3f57600080fd5b81356020613a4f613920836138c7565b82815260059290921b84018101918181019086841115613a6e57600080fd5b8286015b848110156139685780356001600160401b03811115613a915760008081fd5b8701603f81018913613aa35760008081fd5b613ab48986830135604084016139f5565b845250918301918301613a72565b60008060008060808587031215613ad857600080fd5b84356001600160401b0380821115613aef57600080fd5b613afb888389016138ff565b95506020870135915080821115613b1157600080fd5b613b1d88838901613973565b94506040870135915080821115613b3357600080fd5b50613b4087828801613a2e565b949793965093946060013593505050565b600081518084526020808501945080840160005b83811015613b8a5781516001600160a01b031687529582019590820190600101613b65565b509495945050505050565b600081518084526020808501945080840160005b83811015613b8a57815187529582019590820190600101613ba9565b6000815180845260208085019450848260051b860182860160005b85811015613c0a578383038952613bf8838351613842565b98850198925090840190600101613be0565b5090979650505050505050565b608081526000613c2a6080830187613b51565b8281036020840152613c3c8187613b95565b90508281036040840152613c508186613bc5565b90508281036060840152610da98185613bc5565b803560ff81168114613c7557600080fd5b919050565b600080600080600060a08688031215613c9257600080fd5b85359450613ca260208701613c64565b9350613cb060408701613c64565b94979396509394606081013594506080013592915050565b634e487b7160e01b600052602160045260246000fd5b6020810160088310613d0057634e487b7160e01b600052602160045260246000fd5b91905290565b60008060408385031215613d1957600080fd5b823591506020830135613d2b816138ea565b809150509250929050565b60008060408385031215613d4957600080fd5b82359150613d5960208401613c64565b90509250929050565b60008083601f840112613d7457600080fd5b5081356001600160401b03811115613d8b57600080fd5b602083019150836020828501011115613da357600080fd5b9250929050565b60008060008060608587031215613dc057600080fd5b84359350613dd060208601613c64565b925060408501356001600160401b03811115613deb57600080fd5b613df787828801613d62565b95989497509550505050565b600082601f830112613e1457600080fd5b611642838335602085016139f5565b60008060008060808587031215613e3957600080fd5b84356001600160401b0380821115613e5057600080fd5b613e5c888389016138ff565b95506020870135915080821115613e7257600080fd5b613e7e88838901613973565b94506040870135915080821115613e9457600080fd5b613ea088838901613a2e565b93506060870135915080821115613eb657600080fd5b50613ec387828801613e03565b91505092959194509250565b600060208284031215613ee157600080fd5b8135611642816138ea565b60008060008060608587031215613f0257600080fd5b8435613f0d816138ea565b93506020850135925060408501356001600160401b03811115613deb57600080fd5b600082601f830112613f4057600080fd5b81356020613f50613920836138c7565b82815260059290921b84018101918181019086841115613f6f57600080fd5b8286015b848110156139685780356001600160401b03811115613f925760008081fd5b613fa08986838b0101613e03565b845250918301918301613f73565b600080600080600060a08688031215613fc657600080fd5b85356001600160401b0380821115613fdd57600080fd5b613fe989838a016138ff565b96506020880135915080821115613fff57600080fd5b61400b89838a01613973565b9550604088013591508082111561402157600080fd5b61402d89838a01613f2f565b9450606088013591508082111561404357600080fd5b61404f89838a01613a2e565b9350608088013591508082111561406557600080fd5b5061407288828901613e03565b9150509295509295909350565b6000806040838503121561409257600080fd5b823561409d816138ea565b946020939093013593505050565b600181811c908216806140bf57607f821691505b602082108114156140e057634e487b7160e01b600052602260045260246000fd5b50919050565b634e487b7160e01b600052601160045260246000fd5b60008282101561410e5761410e6140e6565b500390565b60208082526018908201527f476f7665726e6f723a206f6e6c79476f7665726e616e63650000000000000000604082015260600190565b60808152600061415d6080830187613b51565b828103602084015261416f8187613b95565b905082810360408401526141838186613bc5565b91505082606083015295945050505050565b60208082526021908201527f476f7665726e6f723a2070726f706f73616c206e6f74207375636365737366756040820152601b60fa1b606082015260800190565b6000602082840312156141e857600080fd5b5051919050565b60008219821115614202576142026140e6565b500190565b634e487b7160e01b600052603260045260246000fd5b60018060a01b038516815283602082015260a06040820152600060a082015260c06060820152600061425260c0830185613842565b905082608083015295945050505050565b60006020828403121561427557600080fd5b8151801515811461164257600080fd5b6000600019821415614299576142996140e6565b5060010190565b84815260ff8416602082015282604082015260806060820152600061119f6080830184613842565b600082516142da818460208701613816565b9190910192915050565b6000602082840312156142f657600080fd5b81516001600160601b038116811461164257600080fd5b60208082526021908201527f476f7665726e6f723a20696e76616c69642070726f706f73616c206c656e67746040820152600d60fb1b606082015260800190565b60006001600160401b03808316818516808303821115614370576143706140e6565b01949350505050565b8981526001600160a01b0389166020820152610120604082018190526000906143a48382018b613b51565b905082810360608401526143b8818a613b95565b905082810360808401526143cc8189613bc5565b905082810360a08401526143e08188613bc5565b6001600160401b0387811660c0860152861660e0850152838103610100850152905061440c8185613842565b9c9b505050505050505050505050565b60006020828403121561442e57600080fd5b81516001600160401b0381111561444457600080fd5b8201601f8101841361445557600080fd5b8051614463613920826139ce565b81815285602083850101111561447857600080fd5b610a3182602083016020860161381656fe416464726573733a206c6f772d6c6576656c2063616c6c20776974682076616c7565206661696c6564a26469706673582212200a4939b458b215d14535f4af5c22aa18516bf98ca2055ef2afd83d132e22ca1264736f6c634300080a0033",
  "linkReferences": {},
  "deployedLinkReferences": {}
}