{
  "_format": "hh-sol-artifact-1",
  "contractName": "VestingWallet",
  "sourceName": "contracts/openzeppelin/contracts/finance/VestingWallet.sol",
  "abi": [
    {
      "inputs": [
        {
          "internalType": "address",
          "name": "beneficiaryAddress",
          "type": "address"
        },
        {
          "internalType": "uint64",
          "name": "startTimestamp",
          "type": "uint64"
        },
        {
          "internalType": "uint64",
          "name": "durationSeconds",
          "type": "uint64"
        }
      ],
      "stateMutability": "nonpayable",
      "type": "constructor"
    },
    {
      "anonymous": false,
      "inputs": [
        {
          "indexed": true,
          "internalType": "address",
          "name": "token",
          "type": "address"
        },
        {
          "indexed": false,
          "internalType": "uint256",
          "name": "amount",
          "type": "uint256"
        }
      ],
      "name": "ERC20Released",
      "type": "event"
    },
    {
      "anonymous": false,
      "inputs": [
        {
          "indexed": false,
          "internalType": "uint256",
          "name": "amount",
          "type": "uint256"
        }
      ],
      "name": "EtherReleased",
      "type": "event"
    },
    {
      "inputs": [],
      "name": "beneficiary",
      "outputs": [
        {
          "internalType": "address",
          "name": "",
          "type": "address"
        }
      ],
      "stateMutability": "view",
      "type": "function"
    },
    {
      "inputs": [],
      "name": "duration",
      "outputs": [
        {
          "internalType": "uint256",
          "name": "",
          "type": "uint256"
        }
      ],
      "stateMutability": "view",
      "type": "function"
    },
    {
      "inputs": [
        {
          "internalType": "address",
          "name": "token",
          "type": "address"
        }
      ],
      "name": "release",
      "outputs": [],
      "stateMutability": "nonpayable",
      "type": "function"
    },
    {
      "inputs": [],
      "name": "release",
      "outputs": [],
      "stateMutability": "nonpayable",
      "type": "function"
    },
    {
      "inputs": [],
      "name": "released",
      "outputs": [
        {
          "internalType": "uint256",
          "name": "",
          "type": "uint256"
        }
      ],
      "stateMutability": "view",
      "type": "function"
    },
    {
      "inputs": [
        {
          "internalType": "address",
          "name": "token",
          "type": "address"
        }
      ],
      "name": "released",
      "outputs": [
        {
          "internalType": "uint256",
          "name": "",
          "type": "uint256"
        }
      ],
      "stateMutability": "view",
      "type": "function"
    },
    {
      "inputs": [],
      "name": "start",
      "outputs": [
        {
          "internalType": "uint256",
          "name": "",
          "type": "uint256"
        }
      ],
      "stateMutability": "view",
      "type": "function"
    },
    {
      "inputs": [
        {
          "internalType": "uint64",
          "name": "timestamp",
          "type": "uint64"
        }
      ],
      "name": "vestedAmount",
      "outputs": [
        {
          "internalType": "uint256",
          "name": "",
          "type": "uint256"
        }
      ],
      "stateMutability": "view",
      "type": "function"
    },
    {
      "inputs": [
        {
          "internalType": "address",
          "name": "token",
          "type": "address"
        },
        {
          "internalType": "uint64",
          "name": "timestamp",
          "type": "uint64"
        }
      ],
      "name": "vestedAmount",
      "outputs": [
        {
          "internalType": "uint256",
          "name": "",
          "type": "uint256"
        }
      ],
      "stateMutability": "view",
      "type": "function"
    },
    {
      "stateMutability": "payable",
      "type": "receive"
    }
  ],
  "bytecode": "0x60e060405234801561001057600080fd5b50604051610c68380380610c6883398101604081905261002f916100dd565b6001600160a01b03831661009c5760405162461bcd60e51b815260206004820152602a60248201527f56657374696e6757616c6c65743a2062656e6566696369617279206973207a65604482015269726f206164647265737360b01b606482015260840160405180910390fd5b6001600160a01b039092166080526001600160401b0390811660a0521660c05261012e565b80516001600160401b03811681146100d857600080fd5b919050565b6000806000606084860312156100f257600080fd5b83516001600160a01b038116811461010957600080fd5b9250610117602085016100c1565b9150610125604085016100c1565b90509250925092565b60805160a05160c051610af06101786000396000818160d80152818161046901526104be01526000610421015260008181610142015281816102c801526103ee0152610af06000f3fe60806040526004361061008a5760003560e01c8063810ec23b11610059578063810ec23b1461016c57806386d1a69f1461018c57806396132521146101a15780639852595c146101b6578063be9a6555146101ec57600080fd5b80630a17b06b146100965780630fb5a6b4146100c9578063191655871461010657806338af3eed1461012857600080fd5b3661009157005b600080fd5b3480156100a257600080fd5b506100b66100b13660046108fa565b610201565b6040519081526020015b60405180910390f35b3480156100d557600080fd5b507f000000000000000000000000000000000000000000000000000000000000000067ffffffffffffffff166100b6565b34801561011257600080fd5b5061012661012136600461092c565b610225565b005b34801561013457600080fd5b506040516001600160a01b037f00000000000000000000000000000000000000000000000000000000000000001681526020016100c0565b34801561017857600080fd5b506100b6610187366004610947565b6102f1565b34801561019857600080fd5b50610126610387565b3480156101ad57600080fd5b506000546100b6565b3480156101c257600080fd5b506100b66101d136600461092c565b6001600160a01b031660009081526001602052604090205490565b3480156101f857600080fd5b506100b6610416565b600061021f61020f60005490565b6102199047610990565b83610444565b92915050565b6001600160a01b03811660009081526001602052604081205461024883426102f1565b61025291906109a8565b6001600160a01b03831660009081526001602052604081208054929350839290919061027f908490610990565b90915550506040518181526001600160a01b038316907fc0e523490dd523c33b1878c9eb14ff46991e3f5b2cd33710918618f2a39cba1b9060200160405180910390a26102ed827f00000000000000000000000000000000000000000000000000000000000000008361051e565b5050565b6001600160a01b038216600090815260016020526040812054610380906040516370a0823160e01b81523060048201526001600160a01b038616906370a0823190602401602060405180830381865afa158015610352573d6000803e3d6000fd5b505050506040513d601f19601f8201168201806040525081019061037691906109bf565b6102199190610990565b9392505050565b6000805461039442610201565b61039e91906109a8565b9050806000808282546103b19190610990565b90915550506040518181527fda9d4e5f101b8b9b1c5b76d0c5a9f7923571acfc02376aa076b75a8c080c956b9060200160405180910390a16104137f000000000000000000000000000000000000000000000000000000000000000082610575565b50565b67ffffffffffffffff7f00000000000000000000000000000000000000000000000000000000000000001690565b600061044e610416565b8267ffffffffffffffff1610156104675750600061021f565b7f000000000000000000000000000000000000000000000000000000000000000067ffffffffffffffff1661049a610416565b6104a49190610990565b8267ffffffffffffffff1611156104bc57508161021f565b7f000000000000000000000000000000000000000000000000000000000000000067ffffffffffffffff166104ef610416565b6105039067ffffffffffffffff85166109a8565b61050d90856109d8565b61051791906109f7565b905061021f565b604080516001600160a01b038416602482015260448082018490528251808303909101815260649091019091526020810180516001600160e01b031663a9059cbb60e01b179052610570908490610693565b505050565b804710156105ca5760405162461bcd60e51b815260206004820152601d60248201527f416464726573733a20696e73756666696369656e742062616c616e636500000060448201526064015b60405180910390fd5b6000826001600160a01b03168260405160006040518083038185875af1925050503d8060008114610617576040519150601f19603f3d011682016040523d82523d6000602084013e61061c565b606091505b50509050806105705760405162461bcd60e51b815260206004820152603a60248201527f416464726573733a20756e61626c6520746f2073656e642076616c75652c207260448201527f6563697069656e74206d6179206861766520726576657274656400000000000060648201526084016105c1565b60006106e8826040518060400160405280602081526020017f5361666545524332303a206c6f772d6c6576656c2063616c6c206661696c6564815250856001600160a01b03166107659092919063ffffffff16565b80519091501561057057808060200190518101906107069190610a19565b6105705760405162461bcd60e51b815260206004820152602a60248201527f5361666545524332303a204552433230206f7065726174696f6e20646964206e6044820152691bdd081cdd58d8d9595960b21b60648201526084016105c1565b6060610774848460008561077c565b949350505050565b6060824710156107dd5760405162461bcd60e51b815260206004820152602660248201527f416464726573733a20696e73756666696369656e742062616c616e636520666f6044820152651c8818d85b1b60d21b60648201526084016105c1565b843b61082b5760405162461bcd60e51b815260206004820152601d60248201527f416464726573733a2063616c6c20746f206e6f6e2d636f6e747261637400000060448201526064016105c1565b600080866001600160a01b031685876040516108479190610a6b565b60006040518083038185875af1925050503d8060008114610884576040519150601f19603f3d011682016040523d82523d6000602084013e610889565b606091505b50915091506108998282866108a4565b979650505050505050565b606083156108b3575081610380565b8251156108c35782518084602001fd5b8160405162461bcd60e51b81526004016105c19190610a87565b803567ffffffffffffffff811681146108f557600080fd5b919050565b60006020828403121561090c57600080fd5b610380826108dd565b80356001600160a01b03811681146108f557600080fd5b60006020828403121561093e57600080fd5b61038082610915565b6000806040838503121561095a57600080fd5b61096383610915565b9150610971602084016108dd565b90509250929050565b634e487b7160e01b600052601160045260246000fd5b600082198211156109a3576109a361097a565b500190565b6000828210156109ba576109ba61097a565b500390565b6000602082840312156109d157600080fd5b5051919050565b60008160001904831182151516156109f2576109f261097a565b500290565b600082610a1457634e487b7160e01b600052601260045260246000fd5b500490565b600060208284031215610a2b57600080fd5b8151801515811461038057600080fd5b60005b83811015610a56578181015183820152602001610a3e565b83811115610a65576000848401525b50505050565b60008251610a7d818460208701610a3b565b9190910192915050565b6020815260008251806020840152610aa6816040850160208701610a3b565b601f01601f1916919091016040019291505056fea2646970667358221220797cedb3da4691af9f4beab66f9ec157aa7961c8ceb9d4501d25e2f868bc571f64736f6c634300080a0033",
  "linkReferences": {},
  "deployedLinkReferences": {}
}