{
  "_format": "hh-sol-artifact-1",
  "contractName": "GovernorMock",
  "sourceName": "contracts/openzeppelin/contracts/mocks/GovernorMock.sol",
  "abi": [
    {
      "inputs": [
        {
          "internalType": "string",
          "name": "name_",
          "type": "string"
        },
        {
          "internalType": "contract ERC20Votes",
          "name": "token_",
          "type": "address"
        },
        {
          "internalType": "uint256",
          "name": "votingDelay_",
          "type": "uint256"
        },
        {
          "internalType": "uint256",
          "name": "votingPeriod_",
          "type": "uint256"
        },
        {
          "internalType": "uint256",
          "name": "quorumNumerator_",
          "type": "uint256"
        }
      ],
      "stateMutability": "nonpayable",
      "type": "constructor"
    },
    {
      "anonymous": false,
      "inputs": [
        {
          "indexed": false,
          "internalType": "uint256",
          "name": "proposalId",
          "type": "uint256"
        }
      ],
      "name": "ProposalCanceled",
      "type": "event"
    },
    {
      "anonymous": false,
      "inputs": [
        {
          "indexed": false,
          "internalType": "uint256",
          "name": "proposalId",
          "type": "uint256"
        },
        {
          "indexed": false,
          "internalType": "address",
          "name": "proposer",
          "type": "address"
        },
        {
          "indexed": false,
          "internalType": "address[]",
          "name": "targets",
          "type": "address[]"
        },
        {
          "indexed": false,
          "internalType": "uint256[]",
          "name": "values",
          "type": "uint256[]"
        },
        {
          "indexed": false,
          "internalType": "string[]",
          "name": "signatures",
          "type": "string[]"
        },
        {
          "indexed": false,
          "internalType": "bytes[]",
          "name": "calldatas",
          "type": "bytes[]"
        },
        {
          "indexed": false,
          "internalType": "uint256",
          "name": "startBlock",
          "type": "uint256"
        },
        {
          "indexed": false,
          "internalType": "uint256",
          "name": "endBlock",
          "type": "uint256"
        },
        {
          "indexed": false,
          "internalType": "string",
          "name": "description",
          "type": "string"
        }
      ],
      "name": "ProposalCreated",
      "type": "event"
    },
    {
      "anonymous": false,
      "inputs": [
        {
          "indexed": false,
          "internalType": "uint256",
          "name": "proposalId",
          "type": "uint256"
        }
      ],
      "name": "ProposalExecuted",
      "type": "event"
    },
    {
      "anonymous": false,
      "inputs": [
        {
          "indexed": false,
          "internalType": "uint256",
          "name": "oldProposalThreshold",
          "type": "uint256"
        },
        {
          "indexed": false,
          "internalType": "uint256",
          "name": "newProposalThreshold",
          "type": "uint256"
        }
      ],
      "name": "ProposalThresholdSet",
      "type": "event"
    },
    {
      "anonymous": false,
      "inputs": [
        {
          "indexed": false,
          "internalType": "uint256",
          "name": "oldQuorumNumerator",
          "type": "uint256"
        },
        {
          "indexed": false,
          "internalType": "uint256",
          "name": "newQuorumNumerator",
          "type": "uint256"
        }
      ],
      "name": "QuorumNumeratorUpdated",
      "type": "event"
    },
    {
      "anonymous": false,
      "inputs": [
        {
          "indexed": true,
          "internalType": "address",
          "name": "voter",
          "type": "address"
        },
        {
          "indexed": false,
          "internalType": "uint256",
          "name": "proposalId",
          "type": "uint256"
        },
        {
          "indexed": false,
          "internalType": "uint8",
          "name": "support",
          "type": "uint8"
        },
        {
          "indexed": false,
          "internalType": "uint256",
          "name": "weight",
          "type": "uint256"
        },
        {
          "indexed": false,
          "internalType": "string",
          "name": "reason",
          "type": "string"
        }
      ],
      "name": "VoteCast",
      "type": "event"
    },
    {
      "anonymous": false,
      "inputs": [
        {
          "indexed": false,
          "internalType": "uint256",
          "name": "oldVotingDelay",
          "type": "uint256"
        },
        {
          "indexed": false,
          "internalType": "uint256",
          "name": "newVotingDelay",
          "type": "uint256"
        }
      ],
      "name": "VotingDelaySet",
      "type": "event"
    },
    {
      "anonymous": false,
      "inputs": [
        {
          "indexed": false,
          "internalType": "uint256",
          "name": "oldVotingPeriod",
          "type": "uint256"
        },
        {
          "indexed": false,
          "internalType": "uint256",
          "name": "newVotingPeriod",
          "type": "uint256"
        }
      ],
      "name": "VotingPeriodSet",
      "type": "event"
    },
    {
      "inputs": [],
      "name": "BALLOT_TYPEHASH",
      "outputs": [
        {
          "internalType": "bytes32",
          "name": "",
          "type": "bytes32"
        }
      ],
      "stateMutability": "view",
      "type": "function"
    },
    {
      "inputs": [],
      "name": "COUNTING_MODE",
      "outputs": [
        {
          "internalType": "string",
          "name": "",
          "type": "string"
        }
      ],
      "stateMutability": "pure",
      "type": "function"
    },
    {
      "inputs": [
        {
          "internalType": "address[]",
          "name": "targets",
          "type": "address[]"
        },
        {
          "internalType": "uint256[]",
          "name": "values",
          "type": "uint256[]"
        },
        {
          "internalType": "bytes[]",
          "name": "calldatas",
          "type": "bytes[]"
        },
        {
          "internalType": "bytes32",
          "name": "salt",
          "type": "bytes32"
        }
      ],
      "name": "cancel",
      "outputs": [
        {
          "internalType": "uint256",
          "name": "proposalId",
          "type": "uint256"
        }
      ],
      "stateMutability": "nonpayable",
      "type": "function"
    },
    {
      "inputs": [
        {
          "internalType": "uint256",
          "name": "proposalId",
          "type": "uint256"
        },
        {
          "internalType": "uint8",
          "name": "support",
          "type": "uint8"
        }
      ],
      "name": "castVote",
      "outputs": [
        {
          "internalType": "uint256",
          "name": "",
          "type": "uint256"
        }
      ],
      "stateMutability": "nonpayable",
      "type": "function"
    },
    {
      "inputs": [
        {
          "internalType": "uint256",
          "name": "proposalId",
          "type": "uint256"
        },
        {
          "internalType": "uint8",
          "name": "support",
          "type": "uint8"
        },
        {
          "internalType": "uint8",
          "name": "v",
          "type": "uint8"
        },
        {
          "internalType": "bytes32",
          "name": "r",
          "type": "bytes32"
        },
        {
          "internalType": "bytes32",
          "name": "s",
          "type": "bytes32"
        }
      ],
      "name": "castVoteBySig",
      "outputs": [
        {
          "internalType": "uint256",
          "name": "",
          "type": "uint256"
        }
      ],
      "stateMutability": "nonpayable",
      "type": "function"
    },
    {
      "inputs": [
        {
          "internalType": "uint256",
          "name": "proposalId",
          "type": "uint256"
        },
        {
          "internalType": "uint8",
          "name": "support",
          "type": "uint8"
        },
        {
          "internalType": "string",
          "name": "reason",
          "type": "string"
        }
      ],
      "name": "castVoteWithReason",
      "outputs": [
        {
          "internalType": "uint256",
          "name": "",
          "type": "uint256"
        }
      ],
      "stateMutability": "nonpayable",
      "type": "function"
    },
    {
      "inputs": [
        {
          "internalType": "address[]",
          "name": "targets",
          "type": "address[]"
        },
        {
          "internalType": "uint256[]",
          "name": "values",
          "type": "uint256[]"
        },
        {
          "internalType": "bytes[]",
          "name": "calldatas",
          "type": "bytes[]"
        },
        {
          "internalType": "bytes32",
          "name": "descriptionHash",
          "type": "bytes32"
        }
      ],
      "name": "execute",
      "outputs": [
        {
          "internalType": "uint256",
          "name": "",
          "type": "uint256"
        }
      ],
      "stateMutability": "payable",
      "type": "function"
    },
    {
      "inputs": [
        {
          "internalType": "address",
          "name": "account",
          "type": "address"
        },
        {
          "internalType": "uint256",
          "name": "blockNumber",
          "type": "uint256"
        }
      ],
      "name": "getVotes",
      "outputs": [
        {
          "internalType": "uint256",
          "name": "",
          "type": "uint256"
        }
      ],
      "stateMutability": "view",
      "type": "function"
    },
    {
      "inputs": [
        {
          "internalType": "uint256",
          "name": "proposalId",
          "type": "uint256"
        },
        {
          "internalType": "address",
          "name": "account",
          "type": "address"
        }
      ],
      "name": "hasVoted",
      "outputs": [
        {
          "internalType": "bool",
          "name": "",
          "type": "bool"
        }
      ],
      "stateMutability": "view",
      "type": "function"
    },
    {
      "inputs": [
        {
          "internalType": "address[]",
          "name": "targets",
          "type": "address[]"
        },
        {
          "internalType": "uint256[]",
          "name": "values",
          "type": "uint256[]"
        },
        {
          "internalType": "bytes[]",
          "name": "calldatas",
          "type": "bytes[]"
        },
        {
          "internalType": "bytes32",
          "name": "descriptionHash",
          "type": "bytes32"
        }
      ],
      "name": "hashProposal",
      "outputs": [
        {
          "internalType": "uint256",
          "name": "",
          "type": "uint256"
        }
      ],
      "stateMutability": "pure",
      "type": "function"
    },
    {
      "inputs": [],
      "name": "name",
      "outputs": [
        {
          "internalType": "string",
          "name": "",
          "type": "string"
        }
      ],
      "stateMutability": "view",
      "type": "function"
    },
    {
      "inputs": [
        {
          "internalType": "uint256",
          "name": "proposalId",
          "type": "uint256"
        }
      ],
      "name": "proposalDeadline",
      "outputs": [
        {
          "internalType": "uint256",
          "name": "",
          "type": "uint256"
        }
      ],
      "stateMutability": "view",
      "type": "function"
    },
    {
      "inputs": [
        {
          "internalType": "uint256",
          "name": "proposalId",
          "type": "uint256"
        }
      ],
      "name": "proposalSnapshot",
      "outputs": [
        {
          "internalType": "uint256",
          "name": "",
          "type": "uint256"
        }
      ],
      "stateMutability": "view",
      "type": "function"
    },
    {
      "inputs": [],
      "name": "proposalThreshold",
      "outputs": [
        {
          "internalType": "uint256",
          "name": "",
          "type": "uint256"
        }
      ],
      "stateMutability": "view",
      "type": "function"
    },
    {
      "inputs": [
        {
          "internalType": "uint256",
          "name": "proposalId",
          "type": "uint256"
        }
      ],
      "name": "proposalVotes",
      "outputs": [
        {
          "internalType": "uint256",
          "name": "againstVotes",
          "type": "uint256"
        },
        {
          "internalType": "uint256",
          "name": "forVotes",
          "type": "uint256"
        },
        {
          "internalType": "uint256",
          "name": "abstainVotes",
          "type": "uint256"
        }
      ],
      "stateMutability": "view",
      "type": "function"
    },
    {
      "inputs": [
        {
          "internalType": "address[]",
          "name": "targets",
          "type": "address[]"
        },
        {
          "internalType": "uint256[]",
          "name": "values",
          "type": "uint256[]"
        },
        {
          "internalType": "bytes[]",
          "name": "calldatas",
          "type": "bytes[]"
        },
        {
          "internalType": "string",
          "name": "description",
          "type": "string"
        }
      ],
      "name": "propose",
      "outputs": [
        {
          "internalType": "uint256",
          "name": "",
          "type": "uint256"
        }
      ],
      "stateMutability": "nonpayable",
      "type": "function"
    },
    {
      "inputs": [
        {
          "internalType": "uint256",
          "name": "blockNumber",
          "type": "uint256"
        }
      ],
      "name": "quorum",
      "outputs": [
        {
          "internalType": "uint256",
          "name": "",
          "type": "uint256"
        }
      ],
      "stateMutability": "view",
      "type": "function"
    },
    {
      "inputs": [],
      "name": "quorumDenominator",
      "outputs": [
        {
          "internalType": "uint256",
          "name": "",
          "type": "uint256"
        }
      ],
      "stateMutability": "view",
      "type": "function"
    },
    {
      "inputs": [],
      "name": "quorumNumerator",
      "outputs": [
        {
          "internalType": "uint256",
          "name": "",
          "type": "uint256"
        }
      ],
      "stateMutability": "view",
      "type": "function"
    },
    {
      "inputs": [
        {
          "internalType": "address",
          "name": "target",
          "type": "address"
        },
        {
          "internalType": "uint256",
          "name": "value",
          "type": "uint256"
        },
        {
          "internalType": "bytes",
          "name": "data",
          "type": "bytes"
        }
      ],
      "name": "relay",
      "outputs": [],
      "stateMutability": "nonpayable",
      "type": "function"
    },
    {
      "inputs": [
        {
          "internalType": "uint256",
          "name": "newProposalThreshold",
          "type": "uint256"
        }
      ],
      "name": "setProposalThreshold",
      "outputs": [],
      "stateMutability": "nonpayable",
      "type": "function"
    },
    {
      "inputs": [
        {
          "internalType": "uint256",
          "name": "newVotingDelay",
          "type": "uint256"
        }
      ],
      "name": "setVotingDelay",
      "outputs": [],
      "stateMutability": "nonpayable",
      "type": "function"
    },
    {
      "inputs": [
        {
          "internalType": "uint256",
          "name": "newVotingPeriod",
          "type": "uint256"
        }
      ],
      "name": "setVotingPeriod",
      "outputs": [],
      "stateMutability": "nonpayable",
      "type": "function"
    },
    {
      "inputs": [
        {
          "internalType": "uint256",
          "name": "proposalId",
          "type": "uint256"
        }
      ],
      "name": "state",
      "outputs": [
        {
          "internalType": "enum IGovernor.ProposalState",
          "name": "",
          "type": "uint8"
        }
      ],
      "stateMutability": "view",
      "type": "function"
    },
    {
      "inputs": [
        {
          "internalType": "bytes4",
          "name": "interfaceId",
          "type": "bytes4"
        }
      ],
      "name": "supportsInterface",
      "outputs": [
        {
          "internalType": "bool",
          "name": "",
          "type": "bool"
        }
      ],
      "stateMutability": "view",
      "type": "function"
    },
    {
      "inputs": [],
      "name": "token",
      "outputs": [
        {
          "internalType": "contract ERC20Votes",
          "name": "",
          "type": "address"
        }
      ],
      "stateMutability": "view",
      "type": "function"
    },
    {
      "inputs": [
        {
          "internalType": "uint256",
          "name": "newQuorumNumerator",
          "type": "uint256"
        }
      ],
      "name": "updateQuorumNumerator",
      "outputs": [],
      "stateMutability": "nonpayable",
      "type": "function"
    },
    {
      "inputs": [],
      "name": "version",
      "outputs": [
        {
          "internalType": "string",
          "name": "",
          "type": "string"
        }
      ],
      "stateMutability": "view",
      "type": "function"
    },
    {
      "inputs": [],
      "name": "votingDelay",
      "outputs": [
        {
          "internalType": "uint256",
          "name": "",
          "type": "uint256"
        }
      ],
      "stateMutability": "view",
      "type": "function"
    },
    {
      "inputs": [],
      "name": "votingPeriod",
      "outputs": [
        {
          "internalType": "uint256",
          "name": "",
          "type": "uint256"
        }
      ],
      "stateMutability": "view",
      "type": "function"
    },
    {
      "stateMutability": "payable",
      "type": "receive"
    }
  ],
  "bytecode": "0x6101606040523480156200001257600080fd5b5060405162002dd138038062002dd1833981016040819052620000359162000419565b80848484600089806200005c6040805180820190915260018152603160f81b602082015290565b815160208084019190912082518383012060e08290526101008190524660a0818152604080517f8b73c3c69bb8fe3d512ecc4cf759cc79239f7b179b0ffacaa9a75d522b39400f81880181905281830187905260608201869052608082019490945230818401528151808203909301835260c00190528051940193909320919290916080523060c052610120525050825162000102925060009150602084019062000340565b50620001109050836200014d565b6200011b826200018e565b620001268162000235565b5050506001600160a01b031661014052620001418162000276565b50505050505062000562565b60025460408051918252602082018390527fc565b045403dc03c2eea82b81a0465edad9e2e7fc4d97e11421c209da93d7a93910160405180910390a1600255565b60008111620001f45760405162461bcd60e51b815260206004820152602760248201527f476f7665726e6f7253657474696e67733a20766f74696e6720706572696f6420604482015266746f6f206c6f7760c81b60648201526084015b60405180910390fd5b60035460408051918252602082018390527f7e3f7f0708a84de9203036abaa450dccc85ad5ff52f78c170f3edb55cf5e8828910160405180910390a1600355565b60045460408051918252602082018390527fccb45da8d5717e6c4544694297c4ba5cf151d455c9bb0ed4fc7a38411bc05461910160405180910390a1600455565b6064811115620002fb5760405162461bcd60e51b815260206004820152604360248201527f476f7665726e6f72566f74657351756f72756d4672616374696f6e3a2071756f60448201527f72756d4e756d657261746f72206f7665722071756f72756d44656e6f6d696e616064820152623a37b960e91b608482015260a401620001eb565b600580549082905560408051828152602081018490527f0553476bf02ef2726e8ce5ced78d63e26e602e4a2257b1f559418e24b4633997910160405180910390a15050565b8280546200034e9062000525565b90600052602060002090601f016020900481019282620003725760008555620003bd565b82601f106200038d57805160ff1916838001178555620003bd565b82800160010185558215620003bd579182015b82811115620003bd578251825591602001919060010190620003a0565b50620003cb929150620003cf565b5090565b5b80821115620003cb5760008155600101620003d0565b634e487b7160e01b600052604160045260246000fd5b80516001600160a01b03811681146200041457600080fd5b919050565b600080600080600060a086880312156200043257600080fd5b85516001600160401b03808211156200044a57600080fd5b818801915088601f8301126200045f57600080fd5b815181811115620004745762000474620003e6565b604051601f8201601f19908116603f011681019083821181831017156200049f576200049f620003e6565b81604052828152602093508b84848701011115620004bc57600080fd5b600091505b82821015620004e05784820184015181830185015290830190620004c1565b82821115620004f25760008484830101525b985062000504915050888201620003fc565b604089015160608a01516080909a0151989b919a5098979650945050505050565b600181811c908216806200053a57607f821691505b602082108114156200055c57634e487b7160e01b600052602260045260246000fd5b50919050565b60805160a05160c05160e051610100516101205161014051612806620005cb6000396000818161061d01528181610c6101526112ba0152600061142b0152600061147a01526000611455015260006113ae015260006113d80152600061140201526128066000f3fe6080604052600436106101d15760003560e01c80637b3c71d3116100f7578063c59057e411610095578063eb9019d411610064578063eb9019d4146105ab578063ece40cc1146105cb578063f8ce560a146105eb578063fc0c546a1461060b57600080fd5b8063c59057e4146104f1578063dd4e2ba514610511578063deaaa7cc14610557578063ea0217cf1461058b57600080fd5b8063a7713a70116100d1578063a7713a7014610487578063b58131b01461049c578063c01f9e37146104b1578063c28bc2fa146104d157600080fd5b80637b3c71d3146104335780637d5e81e21461045357806397c3d3341461047357600080fd5b80633bccf4fd1161016f578063544ffc9c1161013e578063544ffc9c1461037457806354fd4d50146103c957806356781388146103f357806370b0f6601461041357600080fd5b80633bccf4fd146102bd5780633e4f49e6146102dd578063438596321461030a578063452115d61461035457600080fd5b806306fdde03116101ab57806306fdde03146102535780632656227d146102755780632d63f693146102885780633932abb1146102a857600080fd5b806301ffc9a7146101df57806302a251a31461021457806306f3f9e61461023357600080fd5b366101da57005b005b600080fd5b3480156101eb57600080fd5b506101ff6101fa366004611d55565b610657565b60405190151581526020015b60405180910390f35b34801561022057600080fd5b506003545b60405190815260200161020b565b34801561023f57600080fd5b506101d861024e366004611d7f565b61068e565b34801561025f57600080fd5b506102686106c2565b60405161020b9190611df4565b610225610283366004612044565b610754565b34801561029457600080fd5b506102256102a3366004611d7f565b610861565b3480156102b457600080fd5b50600254610225565b3480156102c957600080fd5b506102256102d83660046120e4565b610898565b3480156102e957600080fd5b506102fd6102f8366004611d7f565b61092c565b60405161020b9190612148565b34801561031657600080fd5b506101ff610325366004612170565b60008281526006602090815260408083206001600160a01b038516845260030190915290205460ff1692915050565b34801561036057600080fd5b5061022561036f366004612044565b610a38565b34801561038057600080fd5b506103ae61038f366004611d7f565b6000908152600660205260409020805460018201546002909201549092565b6040805193845260208401929092529082015260600161020b565b3480156103d557600080fd5b506040805180820190915260018152603160f81b6020820152610268565b3480156103ff57600080fd5b5061022561040e36600461219c565b610a4f565b34801561041f57600080fd5b506101d861042e366004611d7f565b610a78565b34801561043f57600080fd5b5061022561044e366004612207565b610aa0565b34801561045f57600080fd5b5061022561046e366004612260565b610af2565b34801561047f57600080fd5b506064610225565b34801561049357600080fd5b50600554610225565b3480156104a857600080fd5b50610225610b00565b3480156104bd57600080fd5b506102256104cc366004611d7f565b610b10565b3480156104dd57600080fd5b506101d86104ec366004612320565b610b3f565b3480156104fd57600080fd5b5061022561050c366004612044565b610ba7565b34801561051d57600080fd5b506040805180820190915260208082527f737570706f72743d627261766f2671756f72756d3d666f722c6162737461696e90820152610268565b34801561056357600080fd5b506102257f150214d74d59b7d1e90c73fc22ef3d991dd0a76b046543d4d80ab92d2a50328f81565b34801561059757600080fd5b506101d86105a6366004611d7f565b610be1565b3480156105b757600080fd5b506102256105c6366004612361565b610c09565b3480156105d757600080fd5b506101d86105e6366004611d7f565b610c1c565b3480156105f757600080fd5b50610225610606366004611d7f565b610c44565b34801561061757600080fd5b5061063f7f000000000000000000000000000000000000000000000000000000000000000081565b6040516001600160a01b03909116815260200161020b565b60006001600160e01b0319821663bf26d89760e01b148061068857506301ffc9a760e01b6001600160e01b03198316145b92915050565b3330146106b65760405162461bcd60e51b81526004016106ad9061238b565b60405180910390fd5b6106bf81610ce8565b50565b6060600080546106d1906123c2565b80601f01602080910402602001604051908101604052809291908181526020018280546106fd906123c2565b801561074a5780601f1061071f5761010080835404028352916020019161074a565b820191906000526020600020905b81548152906001019060200180831161072d57829003601f168201915b5050505050905090565b60008061076386868686610ba7565b905060006107708261092c565b9050600481600781111561078657610786612132565b14806107a3575060058160078111156107a1576107a1612132565b145b6107f95760405162461bcd60e51b815260206004820152602160248201527f476f7665726e6f723a2070726f706f73616c206e6f74207375636365737366756044820152601b60fa1b60648201526084016106ad565b600082815260016020818152604092839020600201805460ff191690921790915590518381527f712ae1383f79ac853f8d882153778e0260ef8f03b504e2866e0593e04d2b291f910160405180910390a16108578288888888610db0565b5095945050505050565b60008181526001602090815260408083208151928301909152546001600160401b0316908190525b6001600160401b031692915050565b604080517f150214d74d59b7d1e90c73fc22ef3d991dd0a76b046543d4d80ab92d2a50328f602082015290810186905260ff851660608201526000908190610904906108fc9060800160405160208183030381529060405280519060200120610eaf565b868686610efd565b905061092187828860405180602001604052806000815250610f1b565b979650505050505050565b6000818152600160205260408120600281015460ff16156109505750600792915050565b6002810154610100900460ff161561096b5750600292915050565b600061097684610861565b9050806109c55760405162461bcd60e51b815260206004820152601d60248201527f476f7665726e6f723a20756e6b6e6f776e2070726f706f73616c20696400000060448201526064016106ad565b4381106109d6575060009392505050565b60006109e185610b10565b90504381106109f557506001949350505050565b6109fe85611026565b8015610a1d575060008581526006602052604090208054600190910154115b15610a2d57506004949350505050565b506003949350505050565b6000610a468585858561105d565b95945050505050565b600080339050610a7084828560405180602001604052806000815250610f1b565b949350505050565b333014610a975760405162461bcd60e51b81526004016106ad9061238b565b6106bf8161117b565b600080339050610ae886828787878080601f016020809104026020016040519081016040528093929190818152602001838380828437600092019190915250610f1b92505050565b9695505050505050565b6000610a46858585856111bc565b6000610b0b60045490565b905090565b60008181526001602081815260408084208151928301909152909101546001600160401b031690819052610889565b333014610b5e5760405162461bcd60e51b81526004016106ad9061238b565b610ba08483838080601f0160208091040260200160405190810160405280939291908181526020018383808284376000920191909152508892506111ca915050565b5050505050565b600084848484604051602001610bc094939291906124c6565b60408051601f19818403018152919052805160209091012095945050505050565b333014610c005760405162461bcd60e51b81526004016106ad9061238b565b6106bf816111f0565b6000610c158383611291565b9392505050565b333014610c3b5760405162461bcd60e51b81526004016106ad9061238b565b6106bf81611327565b60006064600554604051632394e7a360e21b8152600481018590527f00000000000000000000000000000000000000000000000000000000000000006001600160a01b031690638e539e8c90602401602060405180830381865afa158015610cb0573d6000803e3d6000fd5b505050506040513d601f19601f82011682018060405250810190610cd49190612511565b610cde9190612540565b610688919061255f565b6064811115610d6b5760405162461bcd60e51b815260206004820152604360248201527f476f7665726e6f72566f74657351756f72756d4672616374696f6e3a2071756f60448201527f72756d4e756d657261746f72206f7665722071756f72756d44656e6f6d696e616064820152623a37b960e91b608482015260a4016106ad565b600580549082905560408051828152602081018490527f0553476bf02ef2726e8ce5ced78d63e26e602e4a2257b1f559418e24b4633997910160405180910390a15050565b600060405180606001604052806027815260200161278160279139905060005b8551811015610ea657600080878381518110610dee57610dee612581565b60200260200101516001600160a01b0316878481518110610e1157610e11612581565b6020026020010151878581518110610e2b57610e2b612581565b6020026020010151604051610e409190612597565b60006040518083038185875af1925050503d8060008114610e7d576040519150601f19603f3d011682016040523d82523d6000602084013e610e82565b606091505b5091509150610e92828286611368565b50505080610e9f906125b3565b9050610dd0565b50505050505050565b6000610688610ebc6113a1565b8360405161190160f01b6020820152602281018390526042810182905260009060620160405160208183030381529060405280519060200120905092915050565b6000806000610f0e878787876114c8565b91509150610857816115b5565b6000848152600160208190526040822090610f358761092c565b6007811115610f4657610f46612132565b14610f9f5760405162461bcd60e51b815260206004820152602360248201527f476f7665726e6f723a20766f7465206e6f742063757272656e746c792061637460448201526269766560e81b60648201526084016106ad565b604080516020810190915281546001600160401b031690819052600090610fc7908790610c09565b9050610fd587878784611770565b856001600160a01b03167fb8e138887d0aa13bab447e82de9d5c1777041ecd21ca36ba824ff1e6c07ddda48887848860405161101494939291906125ce565b60405180910390a29695505050505050565b60008181526006602052604081206002810154600182015461104891906125f6565b61105461060685610861565b11159392505050565b60008061106c86868686610ba7565b905060006110798261092c565b9050600281600781111561108f5761108f612132565b141580156110af575060068160078111156110ac576110ac612132565b14155b80156110cd575060078160078111156110ca576110ca612132565b14155b6111195760405162461bcd60e51b815260206004820152601d60248201527f476f7665726e6f723a2070726f706f73616c206e6f742061637469766500000060448201526064016106ad565b60008281526001602052604090819020600201805461ff001916610100179055517f789cf55be980739dad1d0699b93b58e806b51c9d96619bfa8fe0a28abaa7b30c906111699084815260200190565b60405180910390a15095945050505050565b60025460408051918252602082018390527fc565b045403dc03c2eea82b81a0465edad9e2e7fc4d97e11421c209da93d7a93910160405180910390a1600255565b6000610a46858585856118ef565b6060610a708484846040518060600160405280602981526020016127a860299139611bcc565b600081116112505760405162461bcd60e51b815260206004820152602760248201527f476f7665726e6f7253657474696e67733a20766f74696e6720706572696f6420604482015266746f6f206c6f7760c81b60648201526084016106ad565b60035460408051918252602082018390527f7e3f7f0708a84de9203036abaa450dccc85ad5ff52f78c170f3edb55cf5e8828910160405180910390a1600355565b604051630748d63560e31b81526001600160a01b038381166004830152602482018390526000917f000000000000000000000000000000000000000000000000000000000000000090911690633a46b1a890604401602060405180830381865afa158015611303573d6000803e3d6000fd5b505050506040513d601f19601f82011682018060405250810190610c159190612511565b60045460408051918252602082018390527fccb45da8d5717e6c4544694297c4ba5cf151d455c9bb0ed4fc7a38411bc05461910160405180910390a1600455565b60608315611377575081610c15565b8251156113875782518084602001fd5b8160405162461bcd60e51b81526004016106ad9190611df4565b6000306001600160a01b037f0000000000000000000000000000000000000000000000000000000000000000161480156113fa57507f000000000000000000000000000000000000000000000000000000000000000046145b1561142457507f000000000000000000000000000000000000000000000000000000000000000090565b50604080517f00000000000000000000000000000000000000000000000000000000000000006020808301919091527f0000000000000000000000000000000000000000000000000000000000000000828401527f000000000000000000000000000000000000000000000000000000000000000060608301524660808301523060a0808401919091528351808403909101815260c0909201909252805191012090565b6000807f7fffffffffffffffffffffffffffffff5d576e7357a4501ddfe92f46681b20a08311156114ff57506000905060036115ac565b8460ff16601b1415801561151757508460ff16601c14155b1561152857506000905060046115ac565b6040805160008082526020820180845289905260ff881692820192909252606081018690526080810185905260019060a0016020604051602081039080840390855afa15801561157c573d6000803e3d6000fd5b5050604051601f1901519150506001600160a01b0381166115a5576000600192509250506115ac565b9150600090505b94509492505050565b60008160048111156115c9576115c9612132565b14156115d25750565b60018160048111156115e6576115e6612132565b14156116345760405162461bcd60e51b815260206004820152601860248201527f45434453413a20696e76616c6964207369676e6174757265000000000000000060448201526064016106ad565b600281600481111561164857611648612132565b14156116965760405162461bcd60e51b815260206004820152601f60248201527f45434453413a20696e76616c6964207369676e6174757265206c656e6774680060448201526064016106ad565b60038160048111156116aa576116aa612132565b14156117035760405162461bcd60e51b815260206004820152602260248201527f45434453413a20696e76616c6964207369676e6174757265202773272076616c604482015261756560f01b60648201526084016106ad565b600481600481111561171757611717612132565b14156106bf5760405162461bcd60e51b815260206004820152602260248201527f45434453413a20696e76616c6964207369676e6174757265202776272076616c604482015261756560f01b60648201526084016106ad565b60008481526006602090815260408083206001600160a01b0387168452600381019092529091205460ff16156117f85760405162461bcd60e51b815260206004820152602760248201527f476f7665726e6f72566f74696e6753696d706c653a20766f746520616c726561604482015266191e4818d85cdd60ca1b60648201526084016106ad565b6001600160a01b03841660009081526003820160205260408120805460ff1916600117905560ff168360ff161415611849578181600001600082825461183e91906125f6565b90915550610ba09050565b60ff831660011415611869578181600101600082825461183e91906125f6565b60ff831660021415611889578181600201600082825461183e91906125f6565b60405162461bcd60e51b815260206004820152603560248201527f476f7665726e6f72566f74696e6753696d706c653a20696e76616c69642076616044820152746c756520666f7220656e756d20566f74655479706560581b60648201526084016106ad565b60006118f9610b00565b611908336105c660014361260e565b10156119885760405162461bcd60e51b815260206004820152604360248201527f476f7665726e6f72436f6d7061746962696c697479427261766f3a2070726f7060448201527f6f73657220766f7465732062656c6f772070726f706f73616c207468726573686064820152621bdb1960ea1b608482015260a4016106ad565b600061199d8686868680519060200120610ba7565b905084518651146119c05760405162461bcd60e51b81526004016106ad90612625565b83518651146119e15760405162461bcd60e51b81526004016106ad90612625565b6000865111611a325760405162461bcd60e51b815260206004820152601860248201527f476f7665726e6f723a20656d7074792070726f706f73616c000000000000000060448201526064016106ad565b600081815260016020908152604091829020825191820190925281546001600160401b03169081905215611ab25760405162461bcd60e51b815260206004820152602160248201527f476f7665726e6f723a2070726f706f73616c20616c72656164792065786973746044820152607360f81b60648201526084016106ad565b6000611ac5611ac060025490565b611ce9565b611ace43611ce9565b611ad89190612666565b90506000611ae8611ac060035490565b611af29083612666565b835467ffffffffffffffff19166001600160401b038416178455905060018301805467ffffffffffffffff19166001600160401b0383161790557f7d84a6263ae0d98d3329bd7b46bb4e8d6f98cd35a7adb45c274c8b7fd5ebd5e084338b8b8d516001600160401b03811115611b6a57611b6a611e07565b604051908082528060200260200182016040528015611b9d57816020015b6060815260200190600190039081611b885790505b508c88888e604051611bb799989796959493929190612691565b60405180910390a15091979650505050505050565b606082471015611c2d5760405162461bcd60e51b815260206004820152602660248201527f416464726573733a20696e73756666696369656e742062616c616e636520666f6044820152651c8818d85b1b60d21b60648201526084016106ad565b843b611c7b5760405162461bcd60e51b815260206004820152601d60248201527f416464726573733a2063616c6c20746f206e6f6e2d636f6e747261637400000060448201526064016106ad565b600080866001600160a01b03168587604051611c979190612597565b60006040518083038185875af1925050503d8060008114611cd4576040519150601f19603f3d011682016040523d82523d6000602084013e611cd9565b606091505b5091509150610921828286611368565b60006001600160401b03821115611d515760405162461bcd60e51b815260206004820152602660248201527f53616665436173743a2076616c756520646f65736e27742066697420696e203660448201526534206269747360d01b60648201526084016106ad565b5090565b600060208284031215611d6757600080fd5b81356001600160e01b031981168114610c1557600080fd5b600060208284031215611d9157600080fd5b5035919050565b60005b83811015611db3578181015183820152602001611d9b565b83811115611dc2576000848401525b50505050565b60008151808452611de0816020860160208601611d98565b601f01601f19169290920160200192915050565b602081526000610c156020830184611dc8565b634e487b7160e01b600052604160045260246000fd5b604051601f8201601f191681016001600160401b0381118282101715611e4557611e45611e07565b604052919050565b60006001600160401b03821115611e6657611e66611e07565b5060051b60200190565b80356001600160a01b0381168114611e8757600080fd5b919050565b600082601f830112611e9d57600080fd5b81356020611eb2611ead83611e4d565b611e1d565b82815260059290921b84018101918181019086841115611ed157600080fd5b8286015b84811015611ef357611ee681611e70565b8352918301918301611ed5565b509695505050505050565b600082601f830112611f0f57600080fd5b81356020611f1f611ead83611e4d565b82815260059290921b84018101918181019086841115611f3e57600080fd5b8286015b84811015611ef35780358352918301918301611f42565b60006001600160401b03831115611f7257611f72611e07565b611f85601f8401601f1916602001611e1d565b9050828152838383011115611f9957600080fd5b828260208301376000602084830101529392505050565b600082601f830112611fc157600080fd5b81356020611fd1611ead83611e4d565b82815260059290921b84018101918181019086841115611ff057600080fd5b8286015b84811015611ef35780356001600160401b038111156120135760008081fd5b8701603f810189136120255760008081fd5b612036898683013560408401611f59565b845250918301918301611ff4565b6000806000806080858703121561205a57600080fd5b84356001600160401b038082111561207157600080fd5b61207d88838901611e8c565b9550602087013591508082111561209357600080fd5b61209f88838901611efe565b945060408701359150808211156120b557600080fd5b506120c287828801611fb0565b949793965093946060013593505050565b803560ff81168114611e8757600080fd5b600080600080600060a086880312156120fc57600080fd5b8535945061210c602087016120d3565b935061211a604087016120d3565b94979396509394606081013594506080013592915050565b634e487b7160e01b600052602160045260246000fd5b602081016008831061216a57634e487b7160e01b600052602160045260246000fd5b91905290565b6000806040838503121561218357600080fd5b8235915061219360208401611e70565b90509250929050565b600080604083850312156121af57600080fd5b82359150612193602084016120d3565b60008083601f8401126121d157600080fd5b5081356001600160401b038111156121e857600080fd5b60208301915083602082850101111561220057600080fd5b9250929050565b6000806000806060858703121561221d57600080fd5b8435935061222d602086016120d3565b925060408501356001600160401b0381111561224857600080fd5b612254878288016121bf565b95989497509550505050565b6000806000806080858703121561227657600080fd5b84356001600160401b038082111561228d57600080fd5b61229988838901611e8c565b955060208701359150808211156122af57600080fd5b6122bb88838901611efe565b945060408701359150808211156122d157600080fd5b6122dd88838901611fb0565b935060608701359150808211156122f357600080fd5b508501601f8101871361230557600080fd5b61231487823560208401611f59565b91505092959194509250565b6000806000806060858703121561233657600080fd5b61233f85611e70565b93506020850135925060408501356001600160401b0381111561224857600080fd5b6000806040838503121561237457600080fd5b61237d83611e70565b946020939093013593505050565b60208082526018908201527f476f7665726e6f723a206f6e6c79476f7665726e616e63650000000000000000604082015260600190565b600181811c908216806123d657607f821691505b602082108114156123f757634e487b7160e01b600052602260045260246000fd5b50919050565b600081518084526020808501945080840160005b838110156124365781516001600160a01b031687529582019590820190600101612411565b509495945050505050565b600081518084526020808501945080840160005b8381101561243657815187529582019590820190600101612455565b600081518084526020808501808196508360051b8101915082860160005b858110156124b95782840389526124a7848351611dc8565b9885019893509084019060010161248f565b5091979650505050505050565b6080815260006124d960808301876123fd565b82810360208401526124eb8187612441565b905082810360408401526124ff8186612471565b91505082606083015295945050505050565b60006020828403121561252357600080fd5b5051919050565b634e487b7160e01b600052601160045260246000fd5b600081600019048311821515161561255a5761255a61252a565b500290565b60008261257c57634e487b7160e01b600052601260045260246000fd5b500490565b634e487b7160e01b600052603260045260246000fd5b600082516125a9818460208701611d98565b9190910192915050565b60006000198214156125c7576125c761252a565b5060010190565b84815260ff84166020820152826040820152608060608201526000610ae86080830184611dc8565b600082198211156126095761260961252a565b500190565b6000828210156126205761262061252a565b500390565b60208082526021908201527f476f7665726e6f723a20696e76616c69642070726f706f73616c206c656e67746040820152600d60fb1b606082015260800190565b60006001600160401b038083168185168083038211156126885761268861252a565b01949350505050565b60006101208b8352602060018060a01b038c16818501528160408501526126ba8285018c6123fd565b915083820360608501526126ce828b612441565b915083820360808501528189518084528284019150828160051b850101838c0160005b8381101561271f57601f1987840301855261270d838351611dc8565b948601949250908501906001016126f1565b505086810360a0880152612733818c612471565b94505050505061274e60c08401876001600160401b03169052565b6001600160401b03851660e08401528281036101008401526127708185611dc8565b9c9b50505050505050505050505056fe476f7665726e6f723a2063616c6c20726576657274656420776974686f7574206d657373616765416464726573733a206c6f772d6c6576656c2063616c6c20776974682076616c7565206661696c6564a2646970667358221220720d350d38d0e766bb951b5ddbafa70d762d4f3361f8e95a5eb817b49c2f499864736f6c634300080a0033",
  "linkReferences": {},
  "deployedLinkReferences": {}
}