{
  "_format": "hh-sol-artifact-1",
  "contractName": "GovernorTimelockControlMock",
  "sourceName": "contracts/openzeppelin/contracts/mocks/GovernorTimelockControlMock.sol",
  "abi": [
    {
      "inputs": [
        {
          "internalType": "string",
          "name": "name_",
          "type": "string"
        },
        {
          "internalType": "contract ERC20Votes",
          "name": "token_",
          "type": "address"
        },
        {
          "internalType": "uint256",
          "name": "votingDelay_",
          "type": "uint256"
        },
        {
          "internalType": "uint256",
          "name": "votingPeriod_",
          "type": "uint256"
        },
        {
          "internalType": "contract TimelockController",
          "name": "timelock_",
          "type": "address"
        },
        {
          "internalType": "uint256",
          "name": "quorumNumerator_",
          "type": "uint256"
        }
      ],
      "stateMutability": "nonpayable",
      "type": "constructor"
    },
    {
      "anonymous": false,
      "inputs": [
        {
          "indexed": false,
          "internalType": "uint256",
          "name": "proposalId",
          "type": "uint256"
        }
      ],
      "name": "ProposalCanceled",
      "type": "event"
    },
    {
      "anonymous": false,
      "inputs": [
        {
          "indexed": false,
          "internalType": "uint256",
          "name": "proposalId",
          "type": "uint256"
        },
        {
          "indexed": false,
          "internalType": "address",
          "name": "proposer",
          "type": "address"
        },
        {
          "indexed": false,
          "internalType": "address[]",
          "name": "targets",
          "type": "address[]"
        },
        {
          "indexed": false,
          "internalType": "uint256[]",
          "name": "values",
          "type": "uint256[]"
        },
        {
          "indexed": false,
          "internalType": "string[]",
          "name": "signatures",
          "type": "string[]"
        },
        {
          "indexed": false,
          "internalType": "bytes[]",
          "name": "calldatas",
          "type": "bytes[]"
        },
        {
          "indexed": false,
          "internalType": "uint256",
          "name": "startBlock",
          "type": "uint256"
        },
        {
          "indexed": false,
          "internalType": "uint256",
          "name": "endBlock",
          "type": "uint256"
        },
        {
          "indexed": false,
          "internalType": "string",
          "name": "description",
          "type": "string"
        }
      ],
      "name": "ProposalCreated",
      "type": "event"
    },
    {
      "anonymous": false,
      "inputs": [
        {
          "indexed": false,
          "internalType": "uint256",
          "name": "proposalId",
          "type": "uint256"
        }
      ],
      "name": "ProposalExecuted",
      "type": "event"
    },
    {
      "anonymous": false,
      "inputs": [
        {
          "indexed": false,
          "internalType": "uint256",
          "name": "proposalId",
          "type": "uint256"
        },
        {
          "indexed": false,
          "internalType": "uint256",
          "name": "eta",
          "type": "uint256"
        }
      ],
      "name": "ProposalQueued",
      "type": "event"
    },
    {
      "anonymous": false,
      "inputs": [
        {
          "indexed": false,
          "internalType": "uint256",
          "name": "oldProposalThreshold",
          "type": "uint256"
        },
        {
          "indexed": false,
          "internalType": "uint256",
          "name": "newProposalThreshold",
          "type": "uint256"
        }
      ],
      "name": "ProposalThresholdSet",
      "type": "event"
    },
    {
      "anonymous": false,
      "inputs": [
        {
          "indexed": false,
          "internalType": "uint256",
          "name": "oldQuorumNumerator",
          "type": "uint256"
        },
        {
          "indexed": false,
          "internalType": "uint256",
          "name": "newQuorumNumerator",
          "type": "uint256"
        }
      ],
      "name": "QuorumNumeratorUpdated",
      "type": "event"
    },
    {
      "anonymous": false,
      "inputs": [
        {
          "indexed": false,
          "internalType": "address",
          "name": "oldTimelock",
          "type": "address"
        },
        {
          "indexed": false,
          "internalType": "address",
          "name": "newTimelock",
          "type": "address"
        }
      ],
      "name": "TimelockChange",
      "type": "event"
    },
    {
      "anonymous": false,
      "inputs": [
        {
          "indexed": true,
          "internalType": "address",
          "name": "voter",
          "type": "address"
        },
        {
          "indexed": false,
          "internalType": "uint256",
          "name": "proposalId",
          "type": "uint256"
        },
        {
          "indexed": false,
          "internalType": "uint8",
          "name": "support",
          "type": "uint8"
        },
        {
          "indexed": false,
          "internalType": "uint256",
          "name": "weight",
          "type": "uint256"
        },
        {
          "indexed": false,
          "internalType": "string",
          "name": "reason",
          "type": "string"
        }
      ],
      "name": "VoteCast",
      "type": "event"
    },
    {
      "anonymous": false,
      "inputs": [
        {
          "indexed": false,
          "internalType": "uint256",
          "name": "oldVotingDelay",
          "type": "uint256"
        },
        {
          "indexed": false,
          "internalType": "uint256",
          "name": "newVotingDelay",
          "type": "uint256"
        }
      ],
      "name": "VotingDelaySet",
      "type": "event"
    },
    {
      "anonymous": false,
      "inputs": [
        {
          "indexed": false,
          "internalType": "uint256",
          "name": "oldVotingPeriod",
          "type": "uint256"
        },
        {
          "indexed": false,
          "internalType": "uint256",
          "name": "newVotingPeriod",
          "type": "uint256"
        }
      ],
      "name": "VotingPeriodSet",
      "type": "event"
    },
    {
      "inputs": [],
      "name": "BALLOT_TYPEHASH",
      "outputs": [
        {
          "internalType": "bytes32",
          "name": "",
          "type": "bytes32"
        }
      ],
      "stateMutability": "view",
      "type": "function"
    },
    {
      "inputs": [],
      "name": "COUNTING_MODE",
      "outputs": [
        {
          "internalType": "string",
          "name": "",
          "type": "string"
        }
      ],
      "stateMutability": "pure",
      "type": "function"
    },
    {
      "inputs": [
        {
          "internalType": "address[]",
          "name": "targets",
          "type": "address[]"
        },
        {
          "internalType": "uint256[]",
          "name": "values",
          "type": "uint256[]"
        },
        {
          "internalType": "bytes[]",
          "name": "calldatas",
          "type": "bytes[]"
        },
        {
          "internalType": "bytes32",
          "name": "descriptionHash",
          "type": "bytes32"
        }
      ],
      "name": "cancel",
      "outputs": [
        {
          "internalType": "uint256",
          "name": "proposalId",
          "type": "uint256"
        }
      ],
      "stateMutability": "nonpayable",
      "type": "function"
    },
    {
      "inputs": [
        {
          "internalType": "uint256",
          "name": "proposalId",
          "type": "uint256"
        },
        {
          "internalType": "uint8",
          "name": "support",
          "type": "uint8"
        }
      ],
      "name": "castVote",
      "outputs": [
        {
          "internalType": "uint256",
          "name": "",
          "type": "uint256"
        }
      ],
      "stateMutability": "nonpayable",
      "type": "function"
    },
    {
      "inputs": [
        {
          "internalType": "uint256",
          "name": "proposalId",
          "type": "uint256"
        },
        {
          "internalType": "uint8",
          "name": "support",
          "type": "uint8"
        },
        {
          "internalType": "uint8",
          "name": "v",
          "type": "uint8"
        },
        {
          "internalType": "bytes32",
          "name": "r",
          "type": "bytes32"
        },
        {
          "internalType": "bytes32",
          "name": "s",
          "type": "bytes32"
        }
      ],
      "name": "castVoteBySig",
      "outputs": [
        {
          "internalType": "uint256",
          "name": "",
          "type": "uint256"
        }
      ],
      "stateMutability": "nonpayable",
      "type": "function"
    },
    {
      "inputs": [
        {
          "internalType": "uint256",
          "name": "proposalId",
          "type": "uint256"
        },
        {
          "internalType": "uint8",
          "name": "support",
          "type": "uint8"
        },
        {
          "internalType": "string",
          "name": "reason",
          "type": "string"
        }
      ],
      "name": "castVoteWithReason",
      "outputs": [
        {
          "internalType": "uint256",
          "name": "",
          "type": "uint256"
        }
      ],
      "stateMutability": "nonpayable",
      "type": "function"
    },
    {
      "inputs": [
        {
          "internalType": "address[]",
          "name": "targets",
          "type": "address[]"
        },
        {
          "internalType": "uint256[]",
          "name": "values",
          "type": "uint256[]"
        },
        {
          "internalType": "bytes[]",
          "name": "calldatas",
          "type": "bytes[]"
        },
        {
          "internalType": "bytes32",
          "name": "descriptionHash",
          "type": "bytes32"
        }
      ],
      "name": "execute",
      "outputs": [
        {
          "internalType": "uint256",
          "name": "",
          "type": "uint256"
        }
      ],
      "stateMutability": "payable",
      "type": "function"
    },
    {
      "inputs": [
        {
          "internalType": "address",
          "name": "account",
          "type": "address"
        },
        {
          "internalType": "uint256",
          "name": "blockNumber",
          "type": "uint256"
        }
      ],
      "name": "getVotes",
      "outputs": [
        {
          "internalType": "uint256",
          "name": "",
          "type": "uint256"
        }
      ],
      "stateMutability": "view",
      "type": "function"
    },
    {
      "inputs": [
        {
          "internalType": "uint256",
          "name": "proposalId",
          "type": "uint256"
        },
        {
          "internalType": "address",
          "name": "account",
          "type": "address"
        }
      ],
      "name": "hasVoted",
      "outputs": [
        {
          "internalType": "bool",
          "name": "",
          "type": "bool"
        }
      ],
      "stateMutability": "view",
      "type": "function"
    },
    {
      "inputs": [
        {
          "internalType": "address[]",
          "name": "targets",
          "type": "address[]"
        },
        {
          "internalType": "uint256[]",
          "name": "values",
          "type": "uint256[]"
        },
        {
          "internalType": "bytes[]",
          "name": "calldatas",
          "type": "bytes[]"
        },
        {
          "internalType": "bytes32",
          "name": "descriptionHash",
          "type": "bytes32"
        }
      ],
      "name": "hashProposal",
      "outputs": [
        {
          "internalType": "uint256",
          "name": "",
          "type": "uint256"
        }
      ],
      "stateMutability": "pure",
      "type": "function"
    },
    {
      "inputs": [],
      "name": "name",
      "outputs": [
        {
          "internalType": "string",
          "name": "",
          "type": "string"
        }
      ],
      "stateMutability": "view",
      "type": "function"
    },
    {
      "inputs": [
        {
          "internalType": "uint256",
          "name": "proposalId",
          "type": "uint256"
        }
      ],
      "name": "proposalDeadline",
      "outputs": [
        {
          "internalType": "uint256",
          "name": "",
          "type": "uint256"
        }
      ],
      "stateMutability": "view",
      "type": "function"
    },
    {
      "inputs": [
        {
          "internalType": "uint256",
          "name": "proposalId",
          "type": "uint256"
        }
      ],
      "name": "proposalEta",
      "outputs": [
        {
          "internalType": "uint256",
          "name": "",
          "type": "uint256"
        }
      ],
      "stateMutability": "view",
      "type": "function"
    },
    {
      "inputs": [
        {
          "internalType": "uint256",
          "name": "proposalId",
          "type": "uint256"
        }
      ],
      "name": "proposalSnapshot",
      "outputs": [
        {
          "internalType": "uint256",
          "name": "",
          "type": "uint256"
        }
      ],
      "stateMutability": "view",
      "type": "function"
    },
    {
      "inputs": [],
      "name": "proposalThreshold",
      "outputs": [
        {
          "internalType": "uint256",
          "name": "",
          "type": "uint256"
        }
      ],
      "stateMutability": "view",
      "type": "function"
    },
    {
      "inputs": [
        {
          "internalType": "uint256",
          "name": "proposalId",
          "type": "uint256"
        }
      ],
      "name": "proposalVotes",
      "outputs": [
        {
          "internalType": "uint256",
          "name": "againstVotes",
          "type": "uint256"
        },
        {
          "internalType": "uint256",
          "name": "forVotes",
          "type": "uint256"
        },
        {
          "internalType": "uint256",
          "name": "abstainVotes",
          "type": "uint256"
        }
      ],
      "stateMutability": "view",
      "type": "function"
    },
    {
      "inputs": [
        {
          "internalType": "address[]",
          "name": "targets",
          "type": "address[]"
        },
        {
          "internalType": "uint256[]",
          "name": "values",
          "type": "uint256[]"
        },
        {
          "internalType": "bytes[]",
          "name": "calldatas",
          "type": "bytes[]"
        },
        {
          "internalType": "string",
          "name": "description",
          "type": "string"
        }
      ],
      "name": "propose",
      "outputs": [
        {
          "internalType": "uint256",
          "name": "",
          "type": "uint256"
        }
      ],
      "stateMutability": "nonpayable",
      "type": "function"
    },
    {
      "inputs": [
        {
          "internalType": "address[]",
          "name": "targets",
          "type": "address[]"
        },
        {
          "internalType": "uint256[]",
          "name": "values",
          "type": "uint256[]"
        },
        {
          "internalType": "bytes[]",
          "name": "calldatas",
          "type": "bytes[]"
        },
        {
          "internalType": "bytes32",
          "name": "descriptionHash",
          "type": "bytes32"
        }
      ],
      "name": "queue",
      "outputs": [
        {
          "internalType": "uint256",
          "name": "",
          "type": "uint256"
        }
      ],
      "stateMutability": "nonpayable",
      "type": "function"
    },
    {
      "inputs": [
        {
          "internalType": "uint256",
          "name": "blockNumber",
          "type": "uint256"
        }
      ],
      "name": "quorum",
      "outputs": [
        {
          "internalType": "uint256",
          "name": "",
          "type": "uint256"
        }
      ],
      "stateMutability": "view",
      "type": "function"
    },
    {
      "inputs": [],
      "name": "quorumDenominator",
      "outputs": [
        {
          "internalType": "uint256",
          "name": "",
          "type": "uint256"
        }
      ],
      "stateMutability": "view",
      "type": "function"
    },
    {
      "inputs": [],
      "name": "quorumNumerator",
      "outputs": [
        {
          "internalType": "uint256",
          "name": "",
          "type": "uint256"
        }
      ],
      "stateMutability": "view",
      "type": "function"
    },
    {
      "inputs": [
        {
          "internalType": "address",
          "name": "target",
          "type": "address"
        },
        {
          "internalType": "uint256",
          "name": "value",
          "type": "uint256"
        },
        {
          "internalType": "bytes",
          "name": "data",
          "type": "bytes"
        }
      ],
      "name": "relay",
      "outputs": [],
      "stateMutability": "nonpayable",
      "type": "function"
    },
    {
      "inputs": [
        {
          "internalType": "uint256",
          "name": "newProposalThreshold",
          "type": "uint256"
        }
      ],
      "name": "setProposalThreshold",
      "outputs": [],
      "stateMutability": "nonpayable",
      "type": "function"
    },
    {
      "inputs": [
        {
          "internalType": "uint256",
          "name": "newVotingDelay",
          "type": "uint256"
        }
      ],
      "name": "setVotingDelay",
      "outputs": [],
      "stateMutability": "nonpayable",
      "type": "function"
    },
    {
      "inputs": [
        {
          "internalType": "uint256",
          "name": "newVotingPeriod",
          "type": "uint256"
        }
      ],
      "name": "setVotingPeriod",
      "outputs": [],
      "stateMutability": "nonpayable",
      "type": "function"
    },
    {
      "inputs": [
        {
          "internalType": "uint256",
          "name": "proposalId",
          "type": "uint256"
        }
      ],
      "name": "state",
      "outputs": [
        {
          "internalType": "enum IGovernor.ProposalState",
          "name": "",
          "type": "uint8"
        }
      ],
      "stateMutability": "view",
      "type": "function"
    },
    {
      "inputs": [
        {
          "internalType": "bytes4",
          "name": "interfaceId",
          "type": "bytes4"
        }
      ],
      "name": "supportsInterface",
      "outputs": [
        {
          "internalType": "bool",
          "name": "",
          "type": "bool"
        }
      ],
      "stateMutability": "view",
      "type": "function"
    },
    {
      "inputs": [],
      "name": "timelock",
      "outputs": [
        {
          "internalType": "address",
          "name": "",
          "type": "address"
        }
      ],
      "stateMutability": "view",
      "type": "function"
    },
    {
      "inputs": [],
      "name": "token",
      "outputs": [
        {
          "internalType": "contract ERC20Votes",
          "name": "",
          "type": "address"
        }
      ],
      "stateMutability": "view",
      "type": "function"
    },
    {
      "inputs": [
        {
          "internalType": "uint256",
          "name": "newQuorumNumerator",
          "type": "uint256"
        }
      ],
      "name": "updateQuorumNumerator",
      "outputs": [],
      "stateMutability": "nonpayable",
      "type": "function"
    },
    {
      "inputs": [
        {
          "internalType": "contract TimelockController",
          "name": "newTimelock",
          "type": "address"
        }
      ],
      "name": "updateTimelock",
      "outputs": [],
      "stateMutability": "nonpayable",
      "type": "function"
    },
    {
      "inputs": [],
      "name": "version",
      "outputs": [
        {
          "internalType": "string",
          "name": "",
          "type": "string"
        }
      ],
      "stateMutability": "view",
      "type": "function"
    },
    {
      "inputs": [],
      "name": "votingDelay",
      "outputs": [
        {
          "internalType": "uint256",
          "name": "",
          "type": "uint256"
        }
      ],
      "stateMutability": "view",
      "type": "function"
    },
    {
      "inputs": [],
      "name": "votingPeriod",
      "outputs": [
        {
          "internalType": "uint256",
          "name": "",
          "type": "uint256"
        }
      ],
      "stateMutability": "view",
      "type": "function"
    },
    {
      "stateMutability": "payable",
      "type": "receive"
    }
  ],
  "bytecode": "0x6101606040523480156200001257600080fd5b506040516200353e3803806200353e833981016040819052620000359162000496565b808583868660008b806200005d6040805180820190915260018152603160f81b602082015290565b815160208084019190912082518383012060e08290526101008190524660a0818152604080517f8b73c3c69bb8fe3d512ecc4cf759cc79239f7b179b0ffacaa9a75d522b39400f81880181905281830187905260608201869052608082019490945230818401528151808203909301835260c00190528051940193909320919290916080523060c0526101205250508251620001039250600091506020840190620003bd565b506200011190508362000161565b6200011c82620001a2565b620001278162000249565b5050506200013b816200028a60201b60201c565b506001600160a01b0316610140526200015481620002f3565b50505050505050620005f2565b60025460408051918252602082018390527fc565b045403dc03c2eea82b81a0465edad9e2e7fc4d97e11421c209da93d7a93910160405180910390a1600255565b60008111620002085760405162461bcd60e51b815260206004820152602760248201527f476f7665726e6f7253657474696e67733a20766f74696e6720706572696f6420604482015266746f6f206c6f7760c81b60648201526084015b60405180910390fd5b60035460408051918252602082018390527f7e3f7f0708a84de9203036abaa450dccc85ad5ff52f78c170f3edb55cf5e8828910160405180910390a1600355565b60045460408051918252602082018390527fccb45da8d5717e6c4544694297c4ba5cf151d455c9bb0ed4fc7a38411bc05461910160405180910390a1600455565b600554604080516001600160a01b03928316815291831660208301527f08f74ea46ef7894f65eabfb5e6e695de773a000b47c529ab559178069b226401910160405180910390a1600580546001600160a01b0319166001600160a01b0392909216919091179055565b6064811115620003785760405162461bcd60e51b815260206004820152604360248201527f476f7665726e6f72566f74657351756f72756d4672616374696f6e3a2071756f60448201527f72756d4e756d657261746f72206f7665722071756f72756d44656e6f6d696e616064820152623a37b960e91b608482015260a401620001ff565b600780549082905560408051828152602081018490527f0553476bf02ef2726e8ce5ced78d63e26e602e4a2257b1f559418e24b4633997910160405180910390a15050565b828054620003cb90620005b5565b90600052602060002090601f016020900481019282620003ef57600085556200043a565b82601f106200040a57805160ff19168380011785556200043a565b828001600101855582156200043a579182015b828111156200043a5782518255916020019190600101906200041d565b50620004489291506200044c565b5090565b5b808211156200044857600081556001016200044d565b634e487b7160e01b600052604160045260246000fd5b80516001600160a01b03811681146200049157600080fd5b919050565b60008060008060008060c08789031215620004b057600080fd5b86516001600160401b0380821115620004c857600080fd5b818901915089601f830112620004dd57600080fd5b815181811115620004f257620004f262000463565b604051601f8201601f19908116603f011681019083821181831017156200051d576200051d62000463565b81604052828152602093508c848487010111156200053a57600080fd5b600091505b828210156200055e57848201840151818301850152908301906200053f565b82821115620005705760008484830101525b99506200058291505089820162000479565b965050506040870151935060608701519250620005a26080880162000479565b915060a087015190509295509295509295565b600181811c90821680620005ca57607f821691505b60208210811415620005ec57634e487b7160e01b600052602260045260246000fd5b50919050565b60805160a05160c05160e051610100516101205161014051612ee36200065b600039600081816106f5015281816117b3015261187e01526000611a3801526000611a8701526000611a62015260006119bb015260006119e501526000611a0f0152612ee36000f3fe6080604052600436106101fd5760003560e01c80637d5e81e21161010d578063c59057e4116100a0578063ea0217cf1161006f578063ea0217cf14610663578063eb9019d414610683578063ece40cc1146106a3578063f8ce560a146106c3578063fc0c546a146106e357600080fd5b8063c59057e414610597578063d33219b4146105b7578063dd4e2ba5146105e9578063deaaa7cc1461062f57600080fd5b8063ab58fb8e116100dc578063ab58fb8e14610522578063b58131b014610542578063c01f9e3714610557578063c28bc2fa1461057757600080fd5b80637d5e81e2146104b957806397c3d334146104d9578063a7713a70146104ed578063a890c9101461050257600080fd5b80633bccf4fd11610190578063544ffc9c1161015f578063544ffc9c146103da57806354fd4d501461042f578063567813881461045957806370b0f660146104795780637b3c71d31461049957600080fd5b80633bccf4fd146103235780633e4f49e6146103435780634385963214610370578063452115d6146103ba57600080fd5b8063160cbed7116101cc578063160cbed7146102bb5780632656227d146102db5780632d63f693146102ee5780633932abb11461030e57600080fd5b806301ffc9a71461022557806302a251a31461025a57806306f3f9e61461027957806306fdde031461029957600080fd5b36610220573061020b610717565b6001600160a01b03161461021e57600080fd5b005b600080fd5b34801561023157600080fd5b50610245610240366004612353565b610730565b60405190151581526020015b60405180910390f35b34801561026657600080fd5b506003545b604051908152602001610251565b34801561028557600080fd5b5061021e61029436600461237d565b610741565b3480156102a557600080fd5b506102ae61078e565b60405161025191906123f2565b3480156102c757600080fd5b5061026b6102d636600461263d565b610820565b61026b6102e936600461263d565b610a21565b3480156102fa57600080fd5b5061026b61030936600461237d565b610af4565b34801561031a57600080fd5b5060025461026b565b34801561032f57600080fd5b5061026b61033e3660046126e2565b610b2b565b34801561034f57600080fd5b5061036361035e36600461237d565b610bbf565b6040516102519190612746565b34801561037c57600080fd5b5061024561038b36600461276e565b60008281526008602090815260408083206001600160a01b038516845260030190915290205460ff1692915050565b3480156103c657600080fd5b5061026b6103d536600461263d565b610bca565b3480156103e657600080fd5b506104146103f536600461237d565b6000908152600860205260409020805460018201546002909201549092565b60408051938452602084019290925290820152606001610251565b34801561043b57600080fd5b506040805180820190915260018152603160f81b60208201526102ae565b34801561046557600080fd5b5061026b61047436600461279e565b610be1565b34801561048557600080fd5b5061021e61049436600461237d565b610c0a565b3480156104a557600080fd5b5061026b6104b4366004612812565b610c4b565b3480156104c557600080fd5b5061026b6104d436600461286b565b610c9d565b3480156104e557600080fd5b50606461026b565b3480156104f957600080fd5b5060075461026b565b34801561050e57600080fd5b5061021e61051d36600461292b565b610f7a565b34801561052e57600080fd5b5061026b61053d36600461237d565b610fbb565b34801561054e57600080fd5b5061026b611056565b34801561056357600080fd5b5061026b61057236600461237d565b611061565b34801561058357600080fd5b5061021e610592366004612948565b611090565b3480156105a357600080fd5b5061026b6105b236600461263d565b611111565b3480156105c357600080fd5b506005546001600160a01b03165b6040516001600160a01b039091168152602001610251565b3480156105f557600080fd5b506040805180820190915260208082527f737570706f72743d627261766f2671756f72756d3d666f722c6162737461696e908201526102ae565b34801561063b57600080fd5b5061026b7f150214d74d59b7d1e90c73fc22ef3d991dd0a76b046543d4d80ab92d2a50328f81565b34801561066f57600080fd5b5061021e61067e36600461237d565b61114b565b34801561068f57600080fd5b5061026b61069e36600461298b565b61118c565b3480156106af57600080fd5b5061021e6106be36600461237d565b611198565b3480156106cf57600080fd5b5061026b6106de36600461237d565b6111d9565b3480156106ef57600080fd5b506105d17f000000000000000000000000000000000000000000000000000000000000000081565b600061072b6005546001600160a01b031690565b905090565b600061073b826111e4565b92915050565b610749610717565b6001600160a01b0316336001600160a01b0316146107825760405162461bcd60e51b8152600401610779906129b7565b60405180910390fd5b61078b81611209565b50565b60606000805461079d906129ee565b80601f01602080910402602001604051908101604052809291908181526020018280546107c9906129ee565b80156108165780601f106107eb57610100808354040283529160200191610816565b820191906000526020600020905b8154815290600101906020018083116107f957829003601f168201915b5050505050905090565b60008061082f86868686611111565b9050600461083c82610bbf565b600781111561084d5761084d612730565b1461086a5760405162461bcd60e51b815260040161077990612a29565b6005546040805163793d064960e11b815290516000926001600160a01b03169163f27a0c929160048083019260209291908290030181865afa1580156108b4573d6000803e3d6000fd5b505050506040513d601f19601f820116820180604052508101906108d89190612a6a565b60055460405163b1c5f42760e01b81529192506001600160a01b03169063b1c5f42790610912908a908a908a906000908b90600401612b4c565b602060405180830381865afa15801561092f573d6000803e3d6000fd5b505050506040513d601f19601f820116820180604052508101906109539190612a6a565b6000838152600660205260408082209290925560055491516308f2a0bb60e41b81526001600160a01b0390921691638f2a0bb09161099e918b918b918b91908b908990600401612b9a565b600060405180830381600087803b1580156109b857600080fd5b505af11580156109cc573d6000803e3d6000fd5b505050507f9a2e42fd6722813d69113e7d0079d3d940171428df7373df9c7f7617cfda28928282426109fe9190612c08565b604080519283526020830191909152015b60405180910390a15095945050505050565b600080610a3086868686611111565b90506000610a3d82610bbf565b90506004816007811115610a5357610a53612730565b1480610a7057506005816007811115610a6e57610a6e612730565b145b610a8c5760405162461bcd60e51b815260040161077990612a29565b600082815260016020818152604092839020600201805460ff191690921790915590518381527f712ae1383f79ac853f8d882153778e0260ef8f03b504e2866e0593e04d2b291f910160405180910390a1610aea82888888886112d1565b5095945050505050565b60008181526001602090815260408083208151928301909152546001600160401b0316908190525b6001600160401b031692915050565b604080517f150214d74d59b7d1e90c73fc22ef3d991dd0a76b046543d4d80ab92d2a50328f602082015290810186905260ff851660608201526000908190610b9790610b8f90608001604051602081830303815290604052805190602001206112de565b86868661132c565b9050610bb48782886040518060200160405280600081525061134a565b979650505050505050565b600061073b82611455565b6000610bd88585858561159f565b95945050505050565b600080339050610c028482856040518060200160405280600081525061134a565b949350505050565b610c12610717565b6001600160a01b0316336001600160a01b031614610c425760405162461bcd60e51b8152600401610779906129b7565b61078b816115ad565b600080339050610c9386828787878080601f01602080910402602001604051908101604052809392919081815260200183838082843760009201919091525061134a92505050565b9695505050505050565b6000610ca7611056565b610cb63361069e600143612c20565b1015610d365760405162461bcd60e51b815260206004820152604360248201527f476f7665726e6f72436f6d7061746962696c697479427261766f3a2070726f7060448201527f6f73657220766f7465732062656c6f772070726f706f73616c207468726573686064820152621bdb1960ea1b608482015260a401610779565b6000610d4b8686868680519060200120611111565b90508451865114610d6e5760405162461bcd60e51b815260040161077990612c37565b8351865114610d8f5760405162461bcd60e51b815260040161077990612c37565b6000865111610de05760405162461bcd60e51b815260206004820152601860248201527f476f7665726e6f723a20656d7074792070726f706f73616c00000000000000006044820152606401610779565b600081815260016020908152604091829020825191820190925281546001600160401b03169081905215610e605760405162461bcd60e51b815260206004820152602160248201527f476f7665726e6f723a2070726f706f73616c20616c72656164792065786973746044820152607360f81b6064820152608401610779565b6000610e73610e6e60025490565b6115ee565b610e7c436115ee565b610e869190612c78565b90506000610e96610e6e60035490565b610ea09083612c78565b835467ffffffffffffffff19166001600160401b038416178455905060018301805467ffffffffffffffff19166001600160401b0383161790557f7d84a6263ae0d98d3329bd7b46bb4e8d6f98cd35a7adb45c274c8b7fd5ebd5e084338b8b8d516001600160401b03811115610f1857610f18612405565b604051908082528060200260200182016040528015610f4b57816020015b6060815260200190600190039081610f365790505b508c88888e604051610f6599989796959493929190612ca3565b60405180910390a15091979650505050505050565b610f82610717565b6001600160a01b0316336001600160a01b031614610fb25760405162461bcd60e51b8152600401610779906129b7565b61078b8161165a565b60055460008281526006602052604080822054905163d45c443560e01b81526004810191909152909182916001600160a01b039091169063d45c443590602401602060405180830381865afa158015611018573d6000803e3d6000fd5b505050506040513d601f19601f8201168201806040525081019061103c9190612a6a565b90508060011461104c578061104f565b60005b9392505050565b600061072b60045490565b60008181526001602081815260408084208151928301909152909101546001600160401b031690819052610b1c565b611098610717565b6001600160a01b0316336001600160a01b0316146110c85760405162461bcd60e51b8152600401610779906129b7565b61110a8483838080601f0160208091040260200160405190810160405280939291908181526020018383808284376000920191909152508892506116c3915050565b5050505050565b60008484848460405160200161112a9493929190612d92565b60408051601f19818403018152919052805160209091012095945050505050565b611153610717565b6001600160a01b0316336001600160a01b0316146111835760405162461bcd60e51b8152600401610779906129b7565b61078b816116e9565b600061104f838361178a565b6111a0610717565b6001600160a01b0316336001600160a01b0316146111d05760405162461bcd60e51b8152600401610779906129b7565b61078b81611820565b600061073b82611861565b60006001600160e01b03198216636e665ced60e01b148061073b575061073b82611905565b606481111561128c5760405162461bcd60e51b815260206004820152604360248201527f476f7665726e6f72566f74657351756f72756d4672616374696f6e3a2071756f60448201527f72756d4e756d657261746f72206f7665722071756f72756d44656e6f6d696e616064820152623a37b960e91b608482015260a401610779565b600780549082905560408051828152602081018490527f0553476bf02ef2726e8ce5ced78d63e26e602e4a2257b1f559418e24b4633997910160405180910390a15050565b61110a858585858561193a565b600061073b6112eb6119ae565b8360405161190160f01b6020820152602281018390526042810182905260009060620160405160208183030381529060405280519060200120905092915050565b600080600061133d87878787611ad5565b91509150610aea81611bc2565b600084815260016020819052604082209061136487610bbf565b600781111561137557611375612730565b146113ce5760405162461bcd60e51b815260206004820152602360248201527f476f7665726e6f723a20766f7465206e6f742063757272656e746c792061637460448201526269766560e81b6064820152608401610779565b604080516020810190915281546001600160401b0316908190526000906113f690879061118c565b905061140487878784611d7d565b856001600160a01b03167fb8e138887d0aa13bab447e82de9d5c1777041ecd21ca36ba824ff1e6c07ddda4888784886040516114439493929190612ddd565b60405180910390a29695505050505050565b60008061146183611efc565b9050600481600781111561147757611477612730565b146114825792915050565b6000838152600660205260409020548061149d575092915050565b600554604051632ab0f52960e01b8152600481018390526001600160a01b0390911690632ab0f52990602401602060405180830381865afa1580156114e6573d6000803e3d6000fd5b505050506040513d601f19601f8201168201806040525081019061150a9190612e05565b15611519575060079392505050565b600554604051632c258a9f60e11b8152600481018390526001600160a01b039091169063584b153e90602401602060405180830381865afa158015611562573d6000803e3d6000fd5b505050506040513d601f19601f820116820180604052508101906115869190612e05565b15611595575060059392505050565b5060029392505050565b6000610bd885858585612008565b60025460408051918252602082018390527fc565b045403dc03c2eea82b81a0465edad9e2e7fc4d97e11421c209da93d7a93910160405180910390a1600255565b60006001600160401b038211156116565760405162461bcd60e51b815260206004820152602660248201527f53616665436173743a2076616c756520646f65736e27742066697420696e203660448201526534206269747360d01b6064820152608401610779565b5090565b600554604080516001600160a01b03928316815291831660208301527f08f74ea46ef7894f65eabfb5e6e695de773a000b47c529ab559178069b226401910160405180910390a1600580546001600160a01b0319166001600160a01b0392909216919091179055565b6060610c02848484604051806060016040528060298152602001612e85602991396120ba565b600081116117495760405162461bcd60e51b815260206004820152602760248201527f476f7665726e6f7253657474696e67733a20766f74696e6720706572696f6420604482015266746f6f206c6f7760c81b6064820152608401610779565b60035460408051918252602082018390527f7e3f7f0708a84de9203036abaa450dccc85ad5ff52f78c170f3edb55cf5e8828910160405180910390a1600355565b604051630748d63560e31b81526001600160a01b038381166004830152602482018390526000917f000000000000000000000000000000000000000000000000000000000000000090911690633a46b1a890604401602060405180830381865afa1580156117fc573d6000803e3d6000fd5b505050506040513d601f19601f8201168201806040525081019061104f9190612a6a565b60045460408051918252602082018390527fccb45da8d5717e6c4544694297c4ba5cf151d455c9bb0ed4fc7a38411bc05461910160405180910390a1600455565b60006064600754604051632394e7a360e21b8152600481018590527f00000000000000000000000000000000000000000000000000000000000000006001600160a01b031690638e539e8c90602401602060405180830381865afa1580156118cd573d6000803e3d6000fd5b505050506040513d601f19601f820116820180604052508101906118f19190612a6a565b6118fb9190612e27565b61073b9190612e46565b60006001600160e01b0319821663bf26d89760e01b148061073b57506301ffc9a760e01b6001600160e01b031983161461073b565b60055460405163e38335e560e01b81526001600160a01b039091169063e38335e5903490611975908890889088906000908990600401612b4c565b6000604051808303818588803b15801561198e57600080fd5b505af11580156119a2573d6000803e3d6000fd5b50505050505050505050565b6000306001600160a01b037f000000000000000000000000000000000000000000000000000000000000000016148015611a0757507f000000000000000000000000000000000000000000000000000000000000000046145b15611a3157507f000000000000000000000000000000000000000000000000000000000000000090565b50604080517f00000000000000000000000000000000000000000000000000000000000000006020808301919091527f0000000000000000000000000000000000000000000000000000000000000000828401527f000000000000000000000000000000000000000000000000000000000000000060608301524660808301523060a0808401919091528351808403909101815260c0909201909252805191012090565b6000807f7fffffffffffffffffffffffffffffff5d576e7357a4501ddfe92f46681b20a0831115611b0c5750600090506003611bb9565b8460ff16601b14158015611b2457508460ff16601c14155b15611b355750600090506004611bb9565b6040805160008082526020820180845289905260ff881692820192909252606081018690526080810185905260019060a0016020604051602081039080840390855afa158015611b89573d6000803e3d6000fd5b5050604051601f1901519150506001600160a01b038116611bb257600060019250925050611bb9565b9150600090505b94509492505050565b6000816004811115611bd657611bd6612730565b1415611bdf5750565b6001816004811115611bf357611bf3612730565b1415611c415760405162461bcd60e51b815260206004820152601860248201527f45434453413a20696e76616c6964207369676e617475726500000000000000006044820152606401610779565b6002816004811115611c5557611c55612730565b1415611ca35760405162461bcd60e51b815260206004820152601f60248201527f45434453413a20696e76616c6964207369676e6174757265206c656e677468006044820152606401610779565b6003816004811115611cb757611cb7612730565b1415611d105760405162461bcd60e51b815260206004820152602260248201527f45434453413a20696e76616c6964207369676e6174757265202773272076616c604482015261756560f01b6064820152608401610779565b6004816004811115611d2457611d24612730565b141561078b5760405162461bcd60e51b815260206004820152602260248201527f45434453413a20696e76616c6964207369676e6174757265202776272076616c604482015261756560f01b6064820152608401610779565b60008481526008602090815260408083206001600160a01b0387168452600381019092529091205460ff1615611e055760405162461bcd60e51b815260206004820152602760248201527f476f7665726e6f72566f74696e6753696d706c653a20766f746520616c726561604482015266191e4818d85cdd60ca1b6064820152608401610779565b6001600160a01b03841660009081526003820160205260408120805460ff1916600117905560ff168360ff161415611e565781816000016000828254611e4b9190612c08565b9091555061110a9050565b60ff831660011415611e765781816001016000828254611e4b9190612c08565b60ff831660021415611e965781816002016000828254611e4b9190612c08565b60405162461bcd60e51b815260206004820152603560248201527f476f7665726e6f72566f74696e6753696d706c653a20696e76616c69642076616044820152746c756520666f7220656e756d20566f74655479706560581b6064820152608401610779565b6000818152600160205260408120600281015460ff1615611f205750600792915050565b6002810154610100900460ff1615611f3b5750600292915050565b6000611f4684610af4565b905080611f955760405162461bcd60e51b815260206004820152601d60248201527f476f7665726e6f723a20756e6b6e6f776e2070726f706f73616c2069640000006044820152606401610779565b438110611fa6575060009392505050565b6000611fb185611061565b9050438110611fc557506001949350505050565b611fce856121d7565b8015611fed575060008581526008602052604090208054600190910154115b15611ffd57506004949350505050565b506003949350505050565b6000806120178686868661220e565b60008181526006602052604090205490915015610bd8576005546000828152600660205260409081902054905163c4d252f560e01b81526001600160a01b039092169163c4d252f5916120709160040190815260200190565b600060405180830381600087803b15801561208a57600080fd5b505af115801561209e573d6000803e3d6000fd5b5050506000828152600660205260408120555095945050505050565b60608247101561211b5760405162461bcd60e51b815260206004820152602660248201527f416464726573733a20696e73756666696369656e742062616c616e636520666f6044820152651c8818d85b1b60d21b6064820152608401610779565b843b6121695760405162461bcd60e51b815260206004820152601d60248201527f416464726573733a2063616c6c20746f206e6f6e2d636f6e74726163740000006044820152606401610779565b600080866001600160a01b031685876040516121859190612e68565b60006040518083038185875af1925050503d80600081146121c2576040519150601f19603f3d011682016040523d82523d6000602084013e6121c7565b606091505b5091509150610bb482828661231a565b6000818152600860205260408120600281015460018201546121f99190612c08565b6122056106de85610af4565b11159392505050565b60008061221d86868686611111565b9050600061222a82610bbf565b9050600281600781111561224057612240612730565b141580156122605750600681600781111561225d5761225d612730565b14155b801561227e5750600781600781111561227b5761227b612730565b14155b6122ca5760405162461bcd60e51b815260206004820152601d60248201527f476f7665726e6f723a2070726f706f73616c206e6f74206163746976650000006044820152606401610779565b60008281526001602052604090819020600201805461ff001916610100179055517f789cf55be980739dad1d0699b93b58e806b51c9d96619bfa8fe0a28abaa7b30c90610a0f9084815260200190565b6060831561232957508161104f565b8251156123395782518084602001fd5b8160405162461bcd60e51b815260040161077991906123f2565b60006020828403121561236557600080fd5b81356001600160e01b03198116811461104f57600080fd5b60006020828403121561238f57600080fd5b5035919050565b60005b838110156123b1578181015183820152602001612399565b838111156123c0576000848401525b50505050565b600081518084526123de816020860160208601612396565b601f01601f19169290920160200192915050565b60208152600061104f60208301846123c6565b634e487b7160e01b600052604160045260246000fd5b604051601f8201601f191681016001600160401b038111828210171561244357612443612405565b604052919050565b60006001600160401b0382111561246457612464612405565b5060051b60200190565b6001600160a01b038116811461078b57600080fd5b600082601f83011261249457600080fd5b813560206124a96124a48361244b565b61241b565b82815260059290921b840181019181810190868411156124c857600080fd5b8286015b848110156124ec5780356124df8161246e565b83529183019183016124cc565b509695505050505050565b600082601f83011261250857600080fd5b813560206125186124a48361244b565b82815260059290921b8401810191818101908684111561253757600080fd5b8286015b848110156124ec578035835291830191830161253b565b60006001600160401b0383111561256b5761256b612405565b61257e601f8401601f191660200161241b565b905082815283838301111561259257600080fd5b828260208301376000602084830101529392505050565b600082601f8301126125ba57600080fd5b813560206125ca6124a48361244b565b82815260059290921b840181019181810190868411156125e957600080fd5b8286015b848110156124ec5780356001600160401b0381111561260c5760008081fd5b8701603f8101891361261e5760008081fd5b61262f898683013560408401612552565b8452509183019183016125ed565b6000806000806080858703121561265357600080fd5b84356001600160401b038082111561266a57600080fd5b61267688838901612483565b9550602087013591508082111561268c57600080fd5b612698888389016124f7565b945060408701359150808211156126ae57600080fd5b506126bb878288016125a9565b949793965093946060013593505050565b803560ff811681146126dd57600080fd5b919050565b600080600080600060a086880312156126fa57600080fd5b8535945061270a602087016126cc565b9350612718604087016126cc565b94979396509394606081013594506080013592915050565b634e487b7160e01b600052602160045260246000fd5b602081016008831061276857634e487b7160e01b600052602160045260246000fd5b91905290565b6000806040838503121561278157600080fd5b8235915060208301356127938161246e565b809150509250929050565b600080604083850312156127b157600080fd5b823591506127c1602084016126cc565b90509250929050565b60008083601f8401126127dc57600080fd5b5081356001600160401b038111156127f357600080fd5b60208301915083602082850101111561280b57600080fd5b9250929050565b6000806000806060858703121561282857600080fd5b84359350612838602086016126cc565b925060408501356001600160401b0381111561285357600080fd5b61285f878288016127ca565b95989497509550505050565b6000806000806080858703121561288157600080fd5b84356001600160401b038082111561289857600080fd5b6128a488838901612483565b955060208701359150808211156128ba57600080fd5b6128c6888389016124f7565b945060408701359150808211156128dc57600080fd5b6128e8888389016125a9565b935060608701359150808211156128fe57600080fd5b508501601f8101871361291057600080fd5b61291f87823560208401612552565b91505092959194509250565b60006020828403121561293d57600080fd5b813561104f8161246e565b6000806000806060858703121561295e57600080fd5b84356129698161246e565b93506020850135925060408501356001600160401b0381111561285357600080fd5b6000806040838503121561299e57600080fd5b82356129a98161246e565b946020939093013593505050565b60208082526018908201527f476f7665726e6f723a206f6e6c79476f7665726e616e63650000000000000000604082015260600190565b600181811c90821680612a0257607f821691505b60208210811415612a2357634e487b7160e01b600052602260045260246000fd5b50919050565b60208082526021908201527f476f7665726e6f723a2070726f706f73616c206e6f74207375636365737366756040820152601b60fa1b606082015260800190565b600060208284031215612a7c57600080fd5b5051919050565b600081518084526020808501945080840160005b83811015612abc5781516001600160a01b031687529582019590820190600101612a97565b509495945050505050565b600081518084526020808501945080840160005b83811015612abc57815187529582019590820190600101612adb565b600081518084526020808501808196508360051b8101915082860160005b85811015612b3f578284038952612b2d8483516123c6565b98850198935090840190600101612b15565b5091979650505050505050565b60a081526000612b5f60a0830188612a83565b8281036020840152612b718188612ac7565b90508281036040840152612b858187612af7565b60608401959095525050608001529392505050565b60c081526000612bad60c0830189612a83565b8281036020840152612bbf8189612ac7565b90508281036040840152612bd38188612af7565b60608401969096525050608081019290925260a0909101529392505050565b634e487b7160e01b600052601160045260246000fd5b60008219821115612c1b57612c1b612bf2565b500190565b600082821015612c3257612c32612bf2565b500390565b60208082526021908201527f476f7665726e6f723a20696e76616c69642070726f706f73616c206c656e67746040820152600d60fb1b606082015260800190565b60006001600160401b03808316818516808303821115612c9a57612c9a612bf2565b01949350505050565b60006101208b8352602060018060a01b038c1681850152816040850152612ccc8285018c612a83565b91508382036060850152612ce0828b612ac7565b915083820360808501528189518084528284019150828160051b850101838c0160005b83811015612d3157601f19878403018552612d1f8383516123c6565b94860194925090850190600101612d03565b505086810360a0880152612d45818c612af7565b945050505050612d6060c08401876001600160401b03169052565b6001600160401b03851660e0840152828103610100840152612d8281856123c6565b9c9b505050505050505050505050565b608081526000612da56080830187612a83565b8281036020840152612db78187612ac7565b90508281036040840152612dcb8186612af7565b91505082606083015295945050505050565b84815260ff84166020820152826040820152608060608201526000610c9360808301846123c6565b600060208284031215612e1757600080fd5b8151801515811461104f57600080fd5b6000816000190483118215151615612e4157612e41612bf2565b500290565b600082612e6357634e487b7160e01b600052601260045260246000fd5b500490565b60008251612e7a818460208701612396565b919091019291505056fe416464726573733a206c6f772d6c6576656c2063616c6c20776974682076616c7565206661696c6564a2646970667358221220de11f9acc75add1fa99e63a83cc3989da9c66b718d36eea583afc5735c353ac964736f6c634300080a0033",
  "linkReferences": {},
  "deployedLinkReferences": {}
}