{
  "_format": "hh-sol-artifact-1",
  "contractName": "GovernorCompMock",
  "sourceName": "contracts/openzeppelin/contracts/mocks/GovernorCompMock.sol",
  "abi": [
    {
      "inputs": [
        {
          "internalType": "string",
          "name": "name_",
          "type": "string"
        },
        {
          "internalType": "contract ERC20VotesComp",
          "name": "token_",
          "type": "address"
        }
      ],
      "stateMutability": "nonpayable",
      "type": "constructor"
    },
    {
      "anonymous": false,
      "inputs": [
        {
          "indexed": false,
          "internalType": "uint256",
          "name": "proposalId",
          "type": "uint256"
        }
      ],
      "name": "ProposalCanceled",
      "type": "event"
    },
    {
      "anonymous": false,
      "inputs": [
        {
          "indexed": false,
          "internalType": "uint256",
          "name": "proposalId",
          "type": "uint256"
        },
        {
          "indexed": false,
          "internalType": "address",
          "name": "proposer",
          "type": "address"
        },
        {
          "indexed": false,
          "internalType": "address[]",
          "name": "targets",
          "type": "address[]"
        },
        {
          "indexed": false,
          "internalType": "uint256[]",
          "name": "values",
          "type": "uint256[]"
        },
        {
          "indexed": false,
          "internalType": "string[]",
          "name": "signatures",
          "type": "string[]"
        },
        {
          "indexed": false,
          "internalType": "bytes[]",
          "name": "calldatas",
          "type": "bytes[]"
        },
        {
          "indexed": false,
          "internalType": "uint256",
          "name": "startBlock",
          "type": "uint256"
        },
        {
          "indexed": false,
          "internalType": "uint256",
          "name": "endBlock",
          "type": "uint256"
        },
        {
          "indexed": false,
          "internalType": "string",
          "name": "description",
          "type": "string"
        }
      ],
      "name": "ProposalCreated",
      "type": "event"
    },
    {
      "anonymous": false,
      "inputs": [
        {
          "indexed": false,
          "internalType": "uint256",
          "name": "proposalId",
          "type": "uint256"
        }
      ],
      "name": "ProposalExecuted",
      "type": "event"
    },
    {
      "anonymous": false,
      "inputs": [
        {
          "indexed": true,
          "internalType": "address",
          "name": "voter",
          "type": "address"
        },
        {
          "indexed": false,
          "internalType": "uint256",
          "name": "proposalId",
          "type": "uint256"
        },
        {
          "indexed": false,
          "internalType": "uint8",
          "name": "support",
          "type": "uint8"
        },
        {
          "indexed": false,
          "internalType": "uint256",
          "name": "weight",
          "type": "uint256"
        },
        {
          "indexed": false,
          "internalType": "string",
          "name": "reason",
          "type": "string"
        }
      ],
      "name": "VoteCast",
      "type": "event"
    },
    {
      "inputs": [],
      "name": "BALLOT_TYPEHASH",
      "outputs": [
        {
          "internalType": "bytes32",
          "name": "",
          "type": "bytes32"
        }
      ],
      "stateMutability": "view",
      "type": "function"
    },
    {
      "inputs": [],
      "name": "COUNTING_MODE",
      "outputs": [
        {
          "internalType": "string",
          "name": "",
          "type": "string"
        }
      ],
      "stateMutability": "pure",
      "type": "function"
    },
    {
      "inputs": [
        {
          "internalType": "address[]",
          "name": "targets",
          "type": "address[]"
        },
        {
          "internalType": "uint256[]",
          "name": "values",
          "type": "uint256[]"
        },
        {
          "internalType": "bytes[]",
          "name": "calldatas",
          "type": "bytes[]"
        },
        {
          "internalType": "bytes32",
          "name": "salt",
          "type": "bytes32"
        }
      ],
      "name": "cancel",
      "outputs": [
        {
          "internalType": "uint256",
          "name": "proposalId",
          "type": "uint256"
        }
      ],
      "stateMutability": "nonpayable",
      "type": "function"
    },
    {
      "inputs": [
        {
          "internalType": "uint256",
          "name": "proposalId",
          "type": "uint256"
        },
        {
          "internalType": "uint8",
          "name": "support",
          "type": "uint8"
        }
      ],
      "name": "castVote",
      "outputs": [
        {
          "internalType": "uint256",
          "name": "",
          "type": "uint256"
        }
      ],
      "stateMutability": "nonpayable",
      "type": "function"
    },
    {
      "inputs": [
        {
          "internalType": "uint256",
          "name": "proposalId",
          "type": "uint256"
        },
        {
          "internalType": "uint8",
          "name": "support",
          "type": "uint8"
        },
        {
          "internalType": "uint8",
          "name": "v",
          "type": "uint8"
        },
        {
          "internalType": "bytes32",
          "name": "r",
          "type": "bytes32"
        },
        {
          "internalType": "bytes32",
          "name": "s",
          "type": "bytes32"
        }
      ],
      "name": "castVoteBySig",
      "outputs": [
        {
          "internalType": "uint256",
          "name": "",
          "type": "uint256"
        }
      ],
      "stateMutability": "nonpayable",
      "type": "function"
    },
    {
      "inputs": [
        {
          "internalType": "uint256",
          "name": "proposalId",
          "type": "uint256"
        },
        {
          "internalType": "uint8",
          "name": "support",
          "type": "uint8"
        },
        {
          "internalType": "string",
          "name": "reason",
          "type": "string"
        }
      ],
      "name": "castVoteWithReason",
      "outputs": [
        {
          "internalType": "uint256",
          "name": "",
          "type": "uint256"
        }
      ],
      "stateMutability": "nonpayable",
      "type": "function"
    },
    {
      "inputs": [
        {
          "internalType": "address[]",
          "name": "targets",
          "type": "address[]"
        },
        {
          "internalType": "uint256[]",
          "name": "values",
          "type": "uint256[]"
        },
        {
          "internalType": "bytes[]",
          "name": "calldatas",
          "type": "bytes[]"
        },
        {
          "internalType": "bytes32",
          "name": "descriptionHash",
          "type": "bytes32"
        }
      ],
      "name": "execute",
      "outputs": [
        {
          "internalType": "uint256",
          "name": "",
          "type": "uint256"
        }
      ],
      "stateMutability": "payable",
      "type": "function"
    },
    {
      "inputs": [
        {
          "internalType": "address",
          "name": "account",
          "type": "address"
        },
        {
          "internalType": "uint256",
          "name": "blockNumber",
          "type": "uint256"
        }
      ],
      "name": "getVotes",
      "outputs": [
        {
          "internalType": "uint256",
          "name": "",
          "type": "uint256"
        }
      ],
      "stateMutability": "view",
      "type": "function"
    },
    {
      "inputs": [
        {
          "internalType": "uint256",
          "name": "proposalId",
          "type": "uint256"
        },
        {
          "internalType": "address",
          "name": "account",
          "type": "address"
        }
      ],
      "name": "hasVoted",
      "outputs": [
        {
          "internalType": "bool",
          "name": "",
          "type": "bool"
        }
      ],
      "stateMutability": "view",
      "type": "function"
    },
    {
      "inputs": [
        {
          "internalType": "address[]",
          "name": "targets",
          "type": "address[]"
        },
        {
          "internalType": "uint256[]",
          "name": "values",
          "type": "uint256[]"
        },
        {
          "internalType": "bytes[]",
          "name": "calldatas",
          "type": "bytes[]"
        },
        {
          "internalType": "bytes32",
          "name": "descriptionHash",
          "type": "bytes32"
        }
      ],
      "name": "hashProposal",
      "outputs": [
        {
          "internalType": "uint256",
          "name": "",
          "type": "uint256"
        }
      ],
      "stateMutability": "pure",
      "type": "function"
    },
    {
      "inputs": [],
      "name": "name",
      "outputs": [
        {
          "internalType": "string",
          "name": "",
          "type": "string"
        }
      ],
      "stateMutability": "view",
      "type": "function"
    },
    {
      "inputs": [
        {
          "internalType": "uint256",
          "name": "proposalId",
          "type": "uint256"
        }
      ],
      "name": "proposalDeadline",
      "outputs": [
        {
          "internalType": "uint256",
          "name": "",
          "type": "uint256"
        }
      ],
      "stateMutability": "view",
      "type": "function"
    },
    {
      "inputs": [
        {
          "internalType": "uint256",
          "name": "proposalId",
          "type": "uint256"
        }
      ],
      "name": "proposalSnapshot",
      "outputs": [
        {
          "internalType": "uint256",
          "name": "",
          "type": "uint256"
        }
      ],
      "stateMutability": "view",
      "type": "function"
    },
    {
      "inputs": [],
      "name": "proposalThreshold",
      "outputs": [
        {
          "internalType": "uint256",
          "name": "",
          "type": "uint256"
        }
      ],
      "stateMutability": "view",
      "type": "function"
    },
    {
      "inputs": [
        {
          "internalType": "uint256",
          "name": "proposalId",
          "type": "uint256"
        }
      ],
      "name": "proposalVotes",
      "outputs": [
        {
          "internalType": "uint256",
          "name": "againstVotes",
          "type": "uint256"
        },
        {
          "internalType": "uint256",
          "name": "forVotes",
          "type": "uint256"
        },
        {
          "internalType": "uint256",
          "name": "abstainVotes",
          "type": "uint256"
        }
      ],
      "stateMutability": "view",
      "type": "function"
    },
    {
      "inputs": [
        {
          "internalType": "address[]",
          "name": "targets",
          "type": "address[]"
        },
        {
          "internalType": "uint256[]",
          "name": "values",
          "type": "uint256[]"
        },
        {
          "internalType": "bytes[]",
          "name": "calldatas",
          "type": "bytes[]"
        },
        {
          "internalType": "string",
          "name": "description",
          "type": "string"
        }
      ],
      "name": "propose",
      "outputs": [
        {
          "internalType": "uint256",
          "name": "",
          "type": "uint256"
        }
      ],
      "stateMutability": "nonpayable",
      "type": "function"
    },
    {
      "inputs": [
        {
          "internalType": "uint256",
          "name": "",
          "type": "uint256"
        }
      ],
      "name": "quorum",
      "outputs": [
        {
          "internalType": "uint256",
          "name": "",
          "type": "uint256"
        }
      ],
      "stateMutability": "pure",
      "type": "function"
    },
    {
      "inputs": [
        {
          "internalType": "address",
          "name": "target",
          "type": "address"
        },
        {
          "internalType": "uint256",
          "name": "value",
          "type": "uint256"
        },
        {
          "internalType": "bytes",
          "name": "data",
          "type": "bytes"
        }
      ],
      "name": "relay",
      "outputs": [],
      "stateMutability": "nonpayable",
      "type": "function"
    },
    {
      "inputs": [
        {
          "internalType": "uint256",
          "name": "proposalId",
          "type": "uint256"
        }
      ],
      "name": "state",
      "outputs": [
        {
          "internalType": "enum IGovernor.ProposalState",
          "name": "",
          "type": "uint8"
        }
      ],
      "stateMutability": "view",
      "type": "function"
    },
    {
      "inputs": [
        {
          "internalType": "bytes4",
          "name": "interfaceId",
          "type": "bytes4"
        }
      ],
      "name": "supportsInterface",
      "outputs": [
        {
          "internalType": "bool",
          "name": "",
          "type": "bool"
        }
      ],
      "stateMutability": "view",
      "type": "function"
    },
    {
      "inputs": [],
      "name": "token",
      "outputs": [
        {
          "internalType": "contract ERC20VotesComp",
          "name": "",
          "type": "address"
        }
      ],
      "stateMutability": "view",
      "type": "function"
    },
    {
      "inputs": [],
      "name": "version",
      "outputs": [
        {
          "internalType": "string",
          "name": "",
          "type": "string"
        }
      ],
      "stateMutability": "view",
      "type": "function"
    },
    {
      "inputs": [],
      "name": "votingDelay",
      "outputs": [
        {
          "internalType": "uint256",
          "name": "",
          "type": "uint256"
        }
      ],
      "stateMutability": "pure",
      "type": "function"
    },
    {
      "inputs": [],
      "name": "votingPeriod",
      "outputs": [
        {
          "internalType": "uint256",
          "name": "",
          "type": "uint256"
        }
      ],
      "stateMutability": "pure",
      "type": "function"
    },
    {
      "stateMutability": "payable",
      "type": "receive"
    }
  ],
  "bytecode": "0x6101606040523480156200001257600080fd5b50604051620026cd380380620026cd8339810160408190526200003591620001ee565b808280620000576040805180820190915260018152603160f81b602082015290565b815160208084019190912082518383012060e08290526101008190524660a0818152604080517f8b73c3c69bb8fe3d512ecc4cf759cc79239f7b179b0ffacaa9a75d522b39400f81880181905281830187905260608201869052608082019490945230818401528151808203909301835260c00190528051940193909320919290916080523060c0526101205250508251620000fd925060009150602084019062000115565b50506001600160a01b031661014052506200031c9050565b8280546200012390620002df565b90600052602060002090601f01602090048101928262000147576000855562000192565b82601f106200016257805160ff191683800117855562000192565b8280016001018555821562000192579182015b828111156200019257825182559160200191906001019062000175565b50620001a0929150620001a4565b5090565b5b80821115620001a05760008155600101620001a5565b634e487b7160e01b600052604160045260246000fd5b80516001600160a01b0381168114620001e957600080fd5b919050565b600080604083850312156200020257600080fd5b82516001600160401b03808211156200021a57600080fd5b818501915085601f8301126200022f57600080fd5b815181811115620002445762000244620001bb565b604051601f8201601f19908116603f011681019083821181831017156200026f576200026f620001bb565b816040528281526020935088848487010111156200028c57600080fd5b600091505b82821015620002b0578482018401518183018501529083019062000291565b82821115620002c25760008484830101525b9550620002d4915050858201620001d1565b925050509250929050565b600181811c90821680620002f457607f821691505b602082108114156200031657634e487b7160e01b600052602260045260246000fd5b50919050565b60805160a05160c05160e05161010051610120516101405161234f6200037e600039600081816104f501526111db015260006113200152600061136f0152600061134a015260006112a3015260006112cd015260006112f7015261234f6000f3fe60806040526004361061014f5760003560e01c806356781388116100b6578063c59057e41161006f578063c59057e414610408578063dd4e2ba514610428578063deaaa7cc1461046e578063eb9019d4146104a2578063f8ce560a146104c2578063fc0c546a146104e357600080fd5b806356781388146103545780637b3c71d3146103745780637d5e81e214610394578063b58131b0146103b4578063c01f9e37146103c8578063c28bc2fa146103e857600080fd5b80633bccf4fd116101085780633bccf4fd146102195780633e4f49e6146102395780634385963214610266578063452115d6146102b0578063544ffc9c146102d057806354fd4d501461032a57600080fd5b806301ffc9a71461015d57806302a251a31461019257806306fdde03146101b05780632656227d146101d25780632d63f693146101e55780633932abb11461020557600080fd5b3661015857005b005b600080fd5b34801561016957600080fd5b5061017d610178366004611904565b61052f565b60405190151581526020015b60405180910390f35b34801561019e57600080fd5b5060105b604051908152602001610189565b3480156101bc57600080fd5b506101c5610566565b604051610189919061198a565b6101a26101e0366004611bda565b6105f8565b3480156101f157600080fd5b506101a2610200366004611c69565b61070a565b34801561021157600080fd5b5060046101a2565b34801561022557600080fd5b506101a2610234366004611c93565b610741565b34801561024557600080fd5b50610259610254366004611c69565b6107d5565b6040516101899190611cf7565b34801561027257600080fd5b5061017d610281366004611d1f565b60008281526002602090815260408083206001600160a01b038516845260030190915290205460ff1692915050565b3480156102bc57600080fd5b506101a26102cb366004611bda565b6108e1565b3480156102dc57600080fd5b5061030f6102eb366004611c69565b60008181526002602081905260409091208054600182015491909201549193909250565b60408051938452602084019290925290820152606001610189565b34801561033657600080fd5b506040805180820190915260018152603160f81b60208201526101c5565b34801561036057600080fd5b506101a261036f366004611d4b565b6108f8565b34801561038057600080fd5b506101a261038f366004611db6565b610921565b3480156103a057600080fd5b506101a26103af366004611e0f565b610973565b3480156103c057600080fd5b5060006101a2565b3480156103d457600080fd5b506101a26103e3366004611c69565b610c40565b3480156103f457600080fd5b50610156610403366004611ecf565b610c6f565b34801561041457600080fd5b506101a2610423366004611bda565b610d07565b34801561043457600080fd5b506040805180820190915260208082527f737570706f72743d627261766f2671756f72756d3d666f722c6162737461696e908201526101c5565b34801561047a57600080fd5b506101a27f150214d74d59b7d1e90c73fc22ef3d991dd0a76b046543d4d80ab92d2a50328f81565b3480156104ae57600080fd5b506101a26104bd366004611f10565b610d41565b3480156104ce57600080fd5b506101a26104dd366004611c69565b50600090565b3480156104ef57600080fd5b506105177f000000000000000000000000000000000000000000000000000000000000000081565b6040516001600160a01b039091168152602001610189565b60006001600160e01b0319821663bf26d89760e01b148061056057506301ffc9a760e01b6001600160e01b03198316145b92915050565b60606000805461057590611f3a565b80601f01602080910402602001604051908101604052809291908181526020018280546105a190611f3a565b80156105ee5780601f106105c3576101008083540402835291602001916105ee565b820191906000526020600020905b8154815290600101906020018083116105d157829003601f168201915b5050505050905090565b60008061060786868686610d07565b90506000610614826107d5565b9050600481600781111561062a5761062a611ce1565b14806106475750600581600781111561064557610645611ce1565b145b6106a25760405162461bcd60e51b815260206004820152602160248201527f476f7665726e6f723a2070726f706f73616c206e6f74207375636365737366756044820152601b60fa1b60648201526084015b60405180910390fd5b600082815260016020818152604092839020600201805460ff191690921790915590518381527f712ae1383f79ac853f8d882153778e0260ef8f03b504e2866e0593e04d2b291f910160405180910390a16107008288888888610d54565b5095945050505050565b60008181526001602090815260408083208151928301909152546001600160401b0316908190525b6001600160401b031692915050565b604080517f150214d74d59b7d1e90c73fc22ef3d991dd0a76b046543d4d80ab92d2a50328f602082015290810186905260ff8516606082015260009081906107ad906107a59060800160405160208183030381529060405280519060200120610e53565b868686610ea1565b90506107ca87828860405180602001604052806000815250610ebf565b979650505050505050565b6000818152600160205260408120600281015460ff16156107f95750600792915050565b6002810154610100900460ff16156108145750600292915050565b600061081f8461070a565b90508061086e5760405162461bcd60e51b815260206004820152601d60248201527f476f7665726e6f723a20756e6b6e6f776e2070726f706f73616c2069640000006044820152606401610699565b43811061087f575060009392505050565b600061088a85610c40565b905043811061089e57506001949350505050565b6108a785610fca565b80156108c6575060008581526002602052604090208054600190910154115b156108d657506004949350505050565b506003949350505050565b60006108ef85858585611002565b95945050505050565b60008033905061091984828560405180602001604052806000815250610ebf565b949350505050565b60008033905061096986828787878080601f016020809104026020016040519081016040528093929190818152602001838380828437600092019190915250610ebf92505050565b9695505050505050565b600080610985336104bd600143611f8b565b1015610a055760405162461bcd60e51b815260206004820152604360248201527f476f7665726e6f72436f6d7061746962696c697479427261766f3a2070726f7060448201527f6f73657220766f7465732062656c6f772070726f706f73616c207468726573686064820152621bdb1960ea1b608482015260a401610699565b6000610a1a8686868680519060200120610d07565b90508451865114610a3d5760405162461bcd60e51b815260040161069990611fa2565b8351865114610a5e5760405162461bcd60e51b815260040161069990611fa2565b6000865111610aaf5760405162461bcd60e51b815260206004820152601860248201527f476f7665726e6f723a20656d7074792070726f706f73616c00000000000000006044820152606401610699565b600081815260016020908152604091829020825191820190925281546001600160401b03169081905215610b2f5760405162461bcd60e51b815260206004820152602160248201527f476f7665726e6f723a2070726f706f73616c20616c72656164792065786973746044820152607360f81b6064820152608401610699565b6000610b3b6004611120565b610b4443611120565b610b4e9190611fe3565b90506000610b5c6010611120565b610b669083611fe3565b835467ffffffffffffffff19166001600160401b038416178455905060018301805467ffffffffffffffff19166001600160401b0383161790557f7d84a6263ae0d98d3329bd7b46bb4e8d6f98cd35a7adb45c274c8b7fd5ebd5e084338b8b8d516001600160401b03811115610bde57610bde61199d565b604051908082528060200260200182016040528015610c1157816020015b6060815260200190600190039081610bfc5790505b508c88888e604051610c2b999897969594939291906120d4565b60405180910390a15091979650505050505050565b60008181526001602081815260408084208151928301909152909101546001600160401b031690819052610732565b333014610cbe5760405162461bcd60e51b815260206004820152601860248201527f476f7665726e6f723a206f6e6c79476f7665726e616e636500000000000000006044820152606401610699565b610d008483838080601f01602080910402602001604051908101604052809392919081815260200183838082843760009201919091525088925061118c915050565b5050505050565b600084848484604051602001610d2094939291906121c3565b60408051601f19818403018152919052805160209091012095945050505050565b6000610d4d83836111b2565b9392505050565b60006040518060600160405280602781526020016122ca60279139905060005b8551811015610e4a57600080878381518110610d9257610d9261220e565b60200260200101516001600160a01b0316878481518110610db557610db561220e565b6020026020010151878581518110610dcf57610dcf61220e565b6020026020010151604051610de49190612224565b60006040518083038185875af1925050503d8060008114610e21576040519150601f19603f3d011682016040523d82523d6000602084013e610e26565b606091505b5091509150610e3682828661125d565b50505080610e4390612240565b9050610d74565b50505050505050565b6000610560610e60611296565b8360405161190160f01b6020820152602281018390526042810182905260009060620160405160208183030381529060405280519060200120905092915050565b6000806000610eb2878787876113bd565b91509150610700816114aa565b6000848152600160208190526040822090610ed9876107d5565b6007811115610eea57610eea611ce1565b14610f435760405162461bcd60e51b815260206004820152602360248201527f476f7665726e6f723a20766f7465206e6f742063757272656e746c792061637460448201526269766560e81b6064820152608401610699565b604080516020810190915281546001600160401b031690819052600090610f6b908790610d41565b9050610f7987878784611668565b856001600160a01b03167fb8e138887d0aa13bab447e82de9d5c1777041ecd21ca36ba824ff1e6c07ddda488878488604051610fb8949392919061225b565b60405180910390a29695505050505050565b60008181526002602081905260408220908101546001820154610fed9190612283565b610ff96104dd8561070a565b11159392505050565b60008061101186868686610d07565b9050600061101e826107d5565b9050600281600781111561103457611034611ce1565b141580156110545750600681600781111561105157611051611ce1565b14155b80156110725750600781600781111561106f5761106f611ce1565b14155b6110be5760405162461bcd60e51b815260206004820152601d60248201527f476f7665726e6f723a2070726f706f73616c206e6f74206163746976650000006044820152606401610699565b60008281526001602052604090819020600201805461ff001916610100179055517f789cf55be980739dad1d0699b93b58e806b51c9d96619bfa8fe0a28abaa7b30c9061110e9084815260200190565b60405180910390a15095945050505050565b60006001600160401b038211156111885760405162461bcd60e51b815260206004820152602660248201527f53616665436173743a2076616c756520646f65736e27742066697420696e203660448201526534206269747360d01b6064820152608401610699565b5090565b60606109198484846040518060600160405280602981526020016122f1602991396117e7565b60405163782d6fe160e01b81526001600160a01b038381166004830152602482018390526000917f00000000000000000000000000000000000000000000000000000000000000009091169063782d6fe190604401602060405180830381865afa158015611224573d6000803e3d6000fd5b505050506040513d601f19601f82011682018060405250810190611248919061229b565b6bffffffffffffffffffffffff169392505050565b6060831561126c575081610d4d565b82511561127c5782518084602001fd5b8160405162461bcd60e51b8152600401610699919061198a565b6000306001600160a01b037f0000000000000000000000000000000000000000000000000000000000000000161480156112ef57507f000000000000000000000000000000000000000000000000000000000000000046145b1561131957507f000000000000000000000000000000000000000000000000000000000000000090565b50604080517f00000000000000000000000000000000000000000000000000000000000000006020808301919091527f0000000000000000000000000000000000000000000000000000000000000000828401527f000000000000000000000000000000000000000000000000000000000000000060608301524660808301523060a0808401919091528351808403909101815260c0909201909252805191012090565b6000807f7fffffffffffffffffffffffffffffff5d576e7357a4501ddfe92f46681b20a08311156113f457506000905060036114a1565b8460ff16601b1415801561140c57508460ff16601c14155b1561141d57506000905060046114a1565b6040805160008082526020820180845289905260ff881692820192909252606081018690526080810185905260019060a0016020604051602081039080840390855afa158015611471573d6000803e3d6000fd5b5050604051601f1901519150506001600160a01b03811661149a576000600192509250506114a1565b9150600090505b94509492505050565b60008160048111156114be576114be611ce1565b14156114c75750565b60018160048111156114db576114db611ce1565b14156115295760405162461bcd60e51b815260206004820152601860248201527f45434453413a20696e76616c6964207369676e617475726500000000000000006044820152606401610699565b600281600481111561153d5761153d611ce1565b141561158b5760405162461bcd60e51b815260206004820152601f60248201527f45434453413a20696e76616c6964207369676e6174757265206c656e677468006044820152606401610699565b600381600481111561159f5761159f611ce1565b14156115f85760405162461bcd60e51b815260206004820152602260248201527f45434453413a20696e76616c6964207369676e6174757265202773272076616c604482015261756560f01b6064820152608401610699565b600481600481111561160c5761160c611ce1565b14156116655760405162461bcd60e51b815260206004820152602260248201527f45434453413a20696e76616c6964207369676e6174757265202776272076616c604482015261756560f01b6064820152608401610699565b50565b60008481526002602090815260408083206001600160a01b0387168452600381019092529091205460ff16156116f05760405162461bcd60e51b815260206004820152602760248201527f476f7665726e6f72566f74696e6753696d706c653a20766f746520616c726561604482015266191e4818d85cdd60ca1b6064820152608401610699565b6001600160a01b03841660009081526003820160205260408120805460ff1916600117905560ff168360ff16141561174157818160000160008282546117369190612283565b90915550610d009050565b60ff83166001141561176157818160010160008282546117369190612283565b60ff83166002141561178157818160020160008282546117369190612283565b60405162461bcd60e51b815260206004820152603560248201527f476f7665726e6f72566f74696e6753696d706c653a20696e76616c69642076616044820152746c756520666f7220656e756d20566f74655479706560581b6064820152608401610699565b6060824710156118485760405162461bcd60e51b815260206004820152602660248201527f416464726573733a20696e73756666696369656e742062616c616e636520666f6044820152651c8818d85b1b60d21b6064820152608401610699565b843b6118965760405162461bcd60e51b815260206004820152601d60248201527f416464726573733a2063616c6c20746f206e6f6e2d636f6e74726163740000006044820152606401610699565b600080866001600160a01b031685876040516118b29190612224565b60006040518083038185875af1925050503d80600081146118ef576040519150601f19603f3d011682016040523d82523d6000602084013e6118f4565b606091505b50915091506107ca82828661125d565b60006020828403121561191657600080fd5b81356001600160e01b031981168114610d4d57600080fd5b60005b83811015611949578181015183820152602001611931565b83811115611958576000848401525b50505050565b6000815180845261197681602086016020860161192e565b601f01601f19169290920160200192915050565b602081526000610d4d602083018461195e565b634e487b7160e01b600052604160045260246000fd5b604051601f8201601f191681016001600160401b03811182821017156119db576119db61199d565b604052919050565b60006001600160401b038211156119fc576119fc61199d565b5060051b60200190565b80356001600160a01b0381168114611a1d57600080fd5b919050565b600082601f830112611a3357600080fd5b81356020611a48611a43836119e3565b6119b3565b82815260059290921b84018101918181019086841115611a6757600080fd5b8286015b84811015611a8957611a7c81611a06565b8352918301918301611a6b565b509695505050505050565b600082601f830112611aa557600080fd5b81356020611ab5611a43836119e3565b82815260059290921b84018101918181019086841115611ad457600080fd5b8286015b84811015611a895780358352918301918301611ad8565b60006001600160401b03831115611b0857611b0861199d565b611b1b601f8401601f19166020016119b3565b9050828152838383011115611b2f57600080fd5b828260208301376000602084830101529392505050565b600082601f830112611b5757600080fd5b81356020611b67611a43836119e3565b82815260059290921b84018101918181019086841115611b8657600080fd5b8286015b84811015611a895780356001600160401b03811115611ba95760008081fd5b8701603f81018913611bbb5760008081fd5b611bcc898683013560408401611aef565b845250918301918301611b8a565b60008060008060808587031215611bf057600080fd5b84356001600160401b0380821115611c0757600080fd5b611c1388838901611a22565b95506020870135915080821115611c2957600080fd5b611c3588838901611a94565b94506040870135915080821115611c4b57600080fd5b50611c5887828801611b46565b949793965093946060013593505050565b600060208284031215611c7b57600080fd5b5035919050565b803560ff81168114611a1d57600080fd5b600080600080600060a08688031215611cab57600080fd5b85359450611cbb60208701611c82565b9350611cc960408701611c82565b94979396509394606081013594506080013592915050565b634e487b7160e01b600052602160045260246000fd5b6020810160088310611d1957634e487b7160e01b600052602160045260246000fd5b91905290565b60008060408385031215611d3257600080fd5b82359150611d4260208401611a06565b90509250929050565b60008060408385031215611d5e57600080fd5b82359150611d4260208401611c82565b60008083601f840112611d8057600080fd5b5081356001600160401b03811115611d9757600080fd5b602083019150836020828501011115611daf57600080fd5b9250929050565b60008060008060608587031215611dcc57600080fd5b84359350611ddc60208601611c82565b925060408501356001600160401b03811115611df757600080fd5b611e0387828801611d6e565b95989497509550505050565b60008060008060808587031215611e2557600080fd5b84356001600160401b0380821115611e3c57600080fd5b611e4888838901611a22565b95506020870135915080821115611e5e57600080fd5b611e6a88838901611a94565b94506040870135915080821115611e8057600080fd5b611e8c88838901611b46565b93506060870135915080821115611ea257600080fd5b508501601f81018713611eb457600080fd5b611ec387823560208401611aef565b91505092959194509250565b60008060008060608587031215611ee557600080fd5b611eee85611a06565b93506020850135925060408501356001600160401b03811115611df757600080fd5b60008060408385031215611f2357600080fd5b611f2c83611a06565b946020939093013593505050565b600181811c90821680611f4e57607f821691505b60208210811415611f6f57634e487b7160e01b600052602260045260246000fd5b50919050565b634e487b7160e01b600052601160045260246000fd5b600082821015611f9d57611f9d611f75565b500390565b60208082526021908201527f476f7665726e6f723a20696e76616c69642070726f706f73616c206c656e67746040820152600d60fb1b606082015260800190565b60006001600160401b0380831681851680830382111561200557612005611f75565b01949350505050565b600081518084526020808501945080840160005b838110156120475781516001600160a01b031687529582019590820190600101612022565b509495945050505050565b600081518084526020808501945080840160005b8381101561204757815187529582019590820190600101612066565b6000815180845260208085019450848260051b860182860160005b858110156120c75783830389526120b583835161195e565b9885019892509084019060010161209d565b5090979650505050505050565b60006101208b8352602060018060a01b038c16818501528160408501526120fd8285018c61200e565b91508382036060850152612111828b612052565b915083820360808501528189518084528284019150828160051b850101838c0160005b8381101561216257601f1987840301855261215083835161195e565b94860194925090850190600101612134565b505086810360a0880152612176818c612082565b94505050505061219160c08401876001600160401b03169052565b6001600160401b03851660e08401528281036101008401526121b3818561195e565b9c9b505050505050505050505050565b6080815260006121d6608083018761200e565b82810360208401526121e88187612052565b905082810360408401526121fc8186612082565b91505082606083015295945050505050565b634e487b7160e01b600052603260045260246000fd5b6000825161223681846020870161192e565b9190910192915050565b600060001982141561225457612254611f75565b5060010190565b84815260ff84166020820152826040820152608060608201526000610969608083018461195e565b6000821982111561229657612296611f75565b500190565b6000602082840312156122ad57600080fd5b81516bffffffffffffffffffffffff81168114610d4d57600080fdfe476f7665726e6f723a2063616c6c20726576657274656420776974686f7574206d657373616765416464726573733a206c6f772d6c6576656c2063616c6c20776974682076616c7565206661696c6564a26469706673582212208be3c0d9ed8343873af1473fa783db4918418fd32e51d7150f88fb0ddb1ddc0664736f6c634300080a0033",
  "linkReferences": {},
  "deployedLinkReferences": {}
}