{
  "_format": "hh-sol-artifact-1",
  "contractName": "GovernorPreventLateQuorumMock",
  "sourceName": "contracts/openzeppelin/contracts/mocks/GovernorPreventLateQuorumMock.sol",
  "abi": [
    {
      "inputs": [
        {
          "internalType": "string",
          "name": "name_",
          "type": "string"
        },
        {
          "internalType": "contract ERC20Votes",
          "name": "token_",
          "type": "address"
        },
        {
          "internalType": "uint256",
          "name": "votingDelay_",
          "type": "uint256"
        },
        {
          "internalType": "uint256",
          "name": "votingPeriod_",
          "type": "uint256"
        },
        {
          "internalType": "uint256",
          "name": "quorum_",
          "type": "uint256"
        },
        {
          "internalType": "uint64",
          "name": "voteExtension_",
          "type": "uint64"
        }
      ],
      "stateMutability": "nonpayable",
      "type": "constructor"
    },
    {
      "anonymous": false,
      "inputs": [
        {
          "indexed": false,
          "internalType": "uint64",
          "name": "oldVoteExtension",
          "type": "uint64"
        },
        {
          "indexed": false,
          "internalType": "uint64",
          "name": "newVoteExtension",
          "type": "uint64"
        }
      ],
      "name": "LateQuorumVoteExtensionSet",
      "type": "event"
    },
    {
      "anonymous": false,
      "inputs": [
        {
          "indexed": false,
          "internalType": "uint256",
          "name": "proposalId",
          "type": "uint256"
        }
      ],
      "name": "ProposalCanceled",
      "type": "event"
    },
    {
      "anonymous": false,
      "inputs": [
        {
          "indexed": false,
          "internalType": "uint256",
          "name": "proposalId",
          "type": "uint256"
        },
        {
          "indexed": false,
          "internalType": "address",
          "name": "proposer",
          "type": "address"
        },
        {
          "indexed": false,
          "internalType": "address[]",
          "name": "targets",
          "type": "address[]"
        },
        {
          "indexed": false,
          "internalType": "uint256[]",
          "name": "values",
          "type": "uint256[]"
        },
        {
          "indexed": false,
          "internalType": "string[]",
          "name": "signatures",
          "type": "string[]"
        },
        {
          "indexed": false,
          "internalType": "bytes[]",
          "name": "calldatas",
          "type": "bytes[]"
        },
        {
          "indexed": false,
          "internalType": "uint256",
          "name": "startBlock",
          "type": "uint256"
        },
        {
          "indexed": false,
          "internalType": "uint256",
          "name": "endBlock",
          "type": "uint256"
        },
        {
          "indexed": false,
          "internalType": "string",
          "name": "description",
          "type": "string"
        }
      ],
      "name": "ProposalCreated",
      "type": "event"
    },
    {
      "anonymous": false,
      "inputs": [
        {
          "indexed": false,
          "internalType": "uint256",
          "name": "proposalId",
          "type": "uint256"
        }
      ],
      "name": "ProposalExecuted",
      "type": "event"
    },
    {
      "anonymous": false,
      "inputs": [
        {
          "indexed": true,
          "internalType": "uint256",
          "name": "proposalId",
          "type": "uint256"
        },
        {
          "indexed": false,
          "internalType": "uint64",
          "name": "extendedDeadline",
          "type": "uint64"
        }
      ],
      "name": "ProposalExtended",
      "type": "event"
    },
    {
      "anonymous": false,
      "inputs": [
        {
          "indexed": false,
          "internalType": "uint256",
          "name": "oldProposalThreshold",
          "type": "uint256"
        },
        {
          "indexed": false,
          "internalType": "uint256",
          "name": "newProposalThreshold",
          "type": "uint256"
        }
      ],
      "name": "ProposalThresholdSet",
      "type": "event"
    },
    {
      "anonymous": false,
      "inputs": [
        {
          "indexed": true,
          "internalType": "address",
          "name": "voter",
          "type": "address"
        },
        {
          "indexed": false,
          "internalType": "uint256",
          "name": "proposalId",
          "type": "uint256"
        },
        {
          "indexed": false,
          "internalType": "uint8",
          "name": "support",
          "type": "uint8"
        },
        {
          "indexed": false,
          "internalType": "uint256",
          "name": "weight",
          "type": "uint256"
        },
        {
          "indexed": false,
          "internalType": "string",
          "name": "reason",
          "type": "string"
        }
      ],
      "name": "VoteCast",
      "type": "event"
    },
    {
      "anonymous": false,
      "inputs": [
        {
          "indexed": false,
          "internalType": "uint256",
          "name": "oldVotingDelay",
          "type": "uint256"
        },
        {
          "indexed": false,
          "internalType": "uint256",
          "name": "newVotingDelay",
          "type": "uint256"
        }
      ],
      "name": "VotingDelaySet",
      "type": "event"
    },
    {
      "anonymous": false,
      "inputs": [
        {
          "indexed": false,
          "internalType": "uint256",
          "name": "oldVotingPeriod",
          "type": "uint256"
        },
        {
          "indexed": false,
          "internalType": "uint256",
          "name": "newVotingPeriod",
          "type": "uint256"
        }
      ],
      "name": "VotingPeriodSet",
      "type": "event"
    },
    {
      "inputs": [],
      "name": "BALLOT_TYPEHASH",
      "outputs": [
        {
          "internalType": "bytes32",
          "name": "",
          "type": "bytes32"
        }
      ],
      "stateMutability": "view",
      "type": "function"
    },
    {
      "inputs": [],
      "name": "COUNTING_MODE",
      "outputs": [
        {
          "internalType": "string",
          "name": "",
          "type": "string"
        }
      ],
      "stateMutability": "pure",
      "type": "function"
    },
    {
      "inputs": [
        {
          "internalType": "uint256",
          "name": "proposalId",
          "type": "uint256"
        },
        {
          "internalType": "uint8",
          "name": "support",
          "type": "uint8"
        }
      ],
      "name": "castVote",
      "outputs": [
        {
          "internalType": "uint256",
          "name": "",
          "type": "uint256"
        }
      ],
      "stateMutability": "nonpayable",
      "type": "function"
    },
    {
      "inputs": [
        {
          "internalType": "uint256",
          "name": "proposalId",
          "type": "uint256"
        },
        {
          "internalType": "uint8",
          "name": "support",
          "type": "uint8"
        },
        {
          "internalType": "uint8",
          "name": "v",
          "type": "uint8"
        },
        {
          "internalType": "bytes32",
          "name": "r",
          "type": "bytes32"
        },
        {
          "internalType": "bytes32",
          "name": "s",
          "type": "bytes32"
        }
      ],
      "name": "castVoteBySig",
      "outputs": [
        {
          "internalType": "uint256",
          "name": "",
          "type": "uint256"
        }
      ],
      "stateMutability": "nonpayable",
      "type": "function"
    },
    {
      "inputs": [
        {
          "internalType": "uint256",
          "name": "proposalId",
          "type": "uint256"
        },
        {
          "internalType": "uint8",
          "name": "support",
          "type": "uint8"
        },
        {
          "internalType": "string",
          "name": "reason",
          "type": "string"
        }
      ],
      "name": "castVoteWithReason",
      "outputs": [
        {
          "internalType": "uint256",
          "name": "",
          "type": "uint256"
        }
      ],
      "stateMutability": "nonpayable",
      "type": "function"
    },
    {
      "inputs": [
        {
          "internalType": "address[]",
          "name": "targets",
          "type": "address[]"
        },
        {
          "internalType": "uint256[]",
          "name": "values",
          "type": "uint256[]"
        },
        {
          "internalType": "bytes[]",
          "name": "calldatas",
          "type": "bytes[]"
        },
        {
          "internalType": "bytes32",
          "name": "descriptionHash",
          "type": "bytes32"
        }
      ],
      "name": "execute",
      "outputs": [
        {
          "internalType": "uint256",
          "name": "",
          "type": "uint256"
        }
      ],
      "stateMutability": "payable",
      "type": "function"
    },
    {
      "inputs": [
        {
          "internalType": "address",
          "name": "account",
          "type": "address"
        },
        {
          "internalType": "uint256",
          "name": "blockNumber",
          "type": "uint256"
        }
      ],
      "name": "getVotes",
      "outputs": [
        {
          "internalType": "uint256",
          "name": "",
          "type": "uint256"
        }
      ],
      "stateMutability": "view",
      "type": "function"
    },
    {
      "inputs": [
        {
          "internalType": "uint256",
          "name": "proposalId",
          "type": "uint256"
        },
        {
          "internalType": "address",
          "name": "account",
          "type": "address"
        }
      ],
      "name": "hasVoted",
      "outputs": [
        {
          "internalType": "bool",
          "name": "",
          "type": "bool"
        }
      ],
      "stateMutability": "view",
      "type": "function"
    },
    {
      "inputs": [
        {
          "internalType": "address[]",
          "name": "targets",
          "type": "address[]"
        },
        {
          "internalType": "uint256[]",
          "name": "values",
          "type": "uint256[]"
        },
        {
          "internalType": "bytes[]",
          "name": "calldatas",
          "type": "bytes[]"
        },
        {
          "internalType": "bytes32",
          "name": "descriptionHash",
          "type": "bytes32"
        }
      ],
      "name": "hashProposal",
      "outputs": [
        {
          "internalType": "uint256",
          "name": "",
          "type": "uint256"
        }
      ],
      "stateMutability": "pure",
      "type": "function"
    },
    {
      "inputs": [],
      "name": "lateQuorumVoteExtension",
      "outputs": [
        {
          "internalType": "uint64",
          "name": "",
          "type": "uint64"
        }
      ],
      "stateMutability": "view",
      "type": "function"
    },
    {
      "inputs": [],
      "name": "name",
      "outputs": [
        {
          "internalType": "string",
          "name": "",
          "type": "string"
        }
      ],
      "stateMutability": "view",
      "type": "function"
    },
    {
      "inputs": [
        {
          "internalType": "uint256",
          "name": "proposalId",
          "type": "uint256"
        }
      ],
      "name": "proposalDeadline",
      "outputs": [
        {
          "internalType": "uint256",
          "name": "",
          "type": "uint256"
        }
      ],
      "stateMutability": "view",
      "type": "function"
    },
    {
      "inputs": [
        {
          "internalType": "uint256",
          "name": "proposalId",
          "type": "uint256"
        }
      ],
      "name": "proposalSnapshot",
      "outputs": [
        {
          "internalType": "uint256",
          "name": "",
          "type": "uint256"
        }
      ],
      "stateMutability": "view",
      "type": "function"
    },
    {
      "inputs": [],
      "name": "proposalThreshold",
      "outputs": [
        {
          "internalType": "uint256",
          "name": "",
          "type": "uint256"
        }
      ],
      "stateMutability": "view",
      "type": "function"
    },
    {
      "inputs": [
        {
          "internalType": "uint256",
          "name": "proposalId",
          "type": "uint256"
        }
      ],
      "name": "proposalVotes",
      "outputs": [
        {
          "internalType": "uint256",
          "name": "againstVotes",
          "type": "uint256"
        },
        {
          "internalType": "uint256",
          "name": "forVotes",
          "type": "uint256"
        },
        {
          "internalType": "uint256",
          "name": "abstainVotes",
          "type": "uint256"
        }
      ],
      "stateMutability": "view",
      "type": "function"
    },
    {
      "inputs": [
        {
          "internalType": "address[]",
          "name": "targets",
          "type": "address[]"
        },
        {
          "internalType": "uint256[]",
          "name": "values",
          "type": "uint256[]"
        },
        {
          "internalType": "bytes[]",
          "name": "calldatas",
          "type": "bytes[]"
        },
        {
          "internalType": "string",
          "name": "description",
          "type": "string"
        }
      ],
      "name": "propose",
      "outputs": [
        {
          "internalType": "uint256",
          "name": "",
          "type": "uint256"
        }
      ],
      "stateMutability": "nonpayable",
      "type": "function"
    },
    {
      "inputs": [
        {
          "internalType": "uint256",
          "name": "",
          "type": "uint256"
        }
      ],
      "name": "quorum",
      "outputs": [
        {
          "internalType": "uint256",
          "name": "",
          "type": "uint256"
        }
      ],
      "stateMutability": "view",
      "type": "function"
    },
    {
      "inputs": [
        {
          "internalType": "address",
          "name": "target",
          "type": "address"
        },
        {
          "internalType": "uint256",
          "name": "value",
          "type": "uint256"
        },
        {
          "internalType": "bytes",
          "name": "data",
          "type": "bytes"
        }
      ],
      "name": "relay",
      "outputs": [],
      "stateMutability": "nonpayable",
      "type": "function"
    },
    {
      "inputs": [
        {
          "internalType": "uint64",
          "name": "newVoteExtension",
          "type": "uint64"
        }
      ],
      "name": "setLateQuorumVoteExtension",
      "outputs": [],
      "stateMutability": "nonpayable",
      "type": "function"
    },
    {
      "inputs": [
        {
          "internalType": "uint256",
          "name": "newProposalThreshold",
          "type": "uint256"
        }
      ],
      "name": "setProposalThreshold",
      "outputs": [],
      "stateMutability": "nonpayable",
      "type": "function"
    },
    {
      "inputs": [
        {
          "internalType": "uint256",
          "name": "newVotingDelay",
          "type": "uint256"
        }
      ],
      "name": "setVotingDelay",
      "outputs": [],
      "stateMutability": "nonpayable",
      "type": "function"
    },
    {
      "inputs": [
        {
          "internalType": "uint256",
          "name": "newVotingPeriod",
          "type": "uint256"
        }
      ],
      "name": "setVotingPeriod",
      "outputs": [],
      "stateMutability": "nonpayable",
      "type": "function"
    },
    {
      "inputs": [
        {
          "internalType": "uint256",
          "name": "proposalId",
          "type": "uint256"
        }
      ],
      "name": "state",
      "outputs": [
        {
          "internalType": "enum IGovernor.ProposalState",
          "name": "",
          "type": "uint8"
        }
      ],
      "stateMutability": "view",
      "type": "function"
    },
    {
      "inputs": [
        {
          "internalType": "bytes4",
          "name": "interfaceId",
          "type": "bytes4"
        }
      ],
      "name": "supportsInterface",
      "outputs": [
        {
          "internalType": "bool",
          "name": "",
          "type": "bool"
        }
      ],
      "stateMutability": "view",
      "type": "function"
    },
    {
      "inputs": [],
      "name": "token",
      "outputs": [
        {
          "internalType": "contract ERC20Votes",
          "name": "",
          "type": "address"
        }
      ],
      "stateMutability": "view",
      "type": "function"
    },
    {
      "inputs": [],
      "name": "version",
      "outputs": [
        {
          "internalType": "string",
          "name": "",
          "type": "string"
        }
      ],
      "stateMutability": "view",
      "type": "function"
    },
    {
      "inputs": [],
      "name": "votingDelay",
      "outputs": [
        {
          "internalType": "uint256",
          "name": "",
          "type": "uint256"
        }
      ],
      "stateMutability": "view",
      "type": "function"
    },
    {
      "inputs": [],
      "name": "votingPeriod",
      "outputs": [
        {
          "internalType": "uint256",
          "name": "",
          "type": "uint256"
        }
      ],
      "stateMutability": "view",
      "type": "function"
    },
    {
      "stateMutability": "payable",
      "type": "receive"
    }
  ],
  "bytecode": "0x6101606040523480156200001257600080fd5b5060405162002c4238038062002c428339810160408190526200003591620003d3565b8085858560008a806200005c6040805180820190915260018152603160f81b602082015290565b815160208084019190912082518383012060e08290526101008190524660a0818152604080517f8b73c3c69bb8fe3d512ecc4cf759cc79239f7b179b0ffacaa9a75d522b39400f81880181905281830187905260608201869052608082019490945230818401528151808203909301835260c00190528051940193909320919290916080523060c0526101205250508251620001029250600091506020840190620002e2565b506200011090508362000151565b6200011b8262000192565b620001268162000238565b5050506001600160a01b031661014052620001418162000279565b5050600855506200052f92505050565b60025460408051918252602082018390527fc565b045403dc03c2eea82b81a0465edad9e2e7fc4d97e11421c209da93d7a93910160405180910390a1600255565b60008111620001f75760405162461bcd60e51b815260206004820152602760248201527f476f7665726e6f7253657474696e67733a20766f74696e6720706572696f6420604482015266746f6f206c6f7760c81b606482015260840160405180910390fd5b60035460408051918252602082018390527f7e3f7f0708a84de9203036abaa450dccc85ad5ff52f78c170f3edb55cf5e8828910160405180910390a1600355565b60045460408051918252602082018390527fccb45da8d5717e6c4544694297c4ba5cf151d455c9bb0ed4fc7a38411bc05461910160405180910390a1600455565b600654604080516001600160401b03928316815291831660208301527f7ca4ac117ed3cdce75c1161d8207c440389b1a15d69d096831664657c07dafc2910160405180910390a1600680546001600160401b0319166001600160401b0392909216919091179055565b828054620002f090620004f2565b90600052602060002090601f0160209004810192826200031457600085556200035f565b82601f106200032f57805160ff19168380011785556200035f565b828001600101855582156200035f579182015b828111156200035f57825182559160200191906001019062000342565b506200036d92915062000371565b5090565b5b808211156200036d576000815560010162000372565b634e487b7160e01b600052604160045260246000fd5b80516001600160a01b0381168114620003b657600080fd5b919050565b80516001600160401b0381168114620003b657600080fd5b60008060008060008060c08789031215620003ed57600080fd5b86516001600160401b03808211156200040557600080fd5b818901915089601f8301126200041a57600080fd5b8151818111156200042f576200042f62000388565b604051601f8201601f19908116603f011681019083821181831017156200045a576200045a62000388565b81604052828152602093508c848487010111156200047757600080fd5b600091505b828210156200049b57848201840151818301850152908301906200047c565b82821115620004ad5760008484830101525b9950620004bf9150508982016200039e565b96505050604087015193506060870151925060808701519150620004e660a08801620003bb565b90509295509295509295565b600181811c908216806200050757607f821691505b602082108114156200052957634e487b7160e01b600052602260045260246000fd5b50919050565b60805160a05160c05160e0516101005161012051610140516126b162000591600039600081816105e80152610e6c015260006113fd0152600061144c0152600061142701526000611380015260006113aa015260006113d401526126b16000f3fe6080604052600436106101bb5760003560e01c80637b3c71d3116100ec578063dd4e2ba51161008a578063eb9019d411610064578063eb9019d414610574578063ece40cc114610594578063f8ce560a146105b4578063fc0c546a146105d657600080fd5b8063dd4e2ba5146104da578063deaaa7cc14610520578063ea0217cf1461055457600080fd5b8063c01f9e37116100c6578063c01f9e371461045a578063c28bc2fa1461047a578063c59057e41461049a578063d07f91e9146104ba57600080fd5b80637b3c71d3146104055780637d5e81e214610425578063b58131b01461044557600080fd5b80633bccf4fd11610159578063544ffc9c11610133578063544ffc9c1461034657806354fd4d501461039b57806356781388146103c557806370b0f660146103e557600080fd5b80633bccf4fd146102af5780633e4f49e6146102cf57806343859632146102fc57600080fd5b80632656227d116101955780632656227d1461023f5780632d63f6931461025257806332b8113e146102725780633932abb11461029a57600080fd5b806301ffc9a7146101c957806302a251a3146101fe57806306fdde031461021d57600080fd5b366101c457005b005b600080fd5b3480156101d557600080fd5b506101e96101e4366004611c18565b610622565b60405190151581526020015b60405180910390f35b34801561020a57600080fd5b506003545b6040519081526020016101f5565b34801561022957600080fd5b50610232610659565b6040516101f59190611c9e565b61020f61024d366004611eee565b6106eb565b34801561025e57600080fd5b5061020f61026d366004611f7d565b6107fd565b34801561027e57600080fd5b506006546040516001600160401b0390911681526020016101f5565b3480156102a657600080fd5b5060025461020f565b3480156102bb57600080fd5b5061020f6102ca366004611fa7565b610834565b3480156102db57600080fd5b506102ef6102ea366004611f7d565b6108c8565b6040516101f5919061200b565b34801561030857600080fd5b506101e9610317366004612033565b60008281526005602090815260408083206001600160a01b038516845260030190915290205460ff1692915050565b34801561035257600080fd5b50610380610361366004611f7d565b6000908152600560205260409020805460018201546002909201549092565b604080519384526020840192909252908201526060016101f5565b3480156103a757600080fd5b506040805180820190915260018152603160f81b6020820152610232565b3480156103d157600080fd5b5061020f6103e036600461205f565b6109d4565b3480156103f157600080fd5b506101c2610400366004611f7d565b6109fd565b34801561041157600080fd5b5061020f6104203660046120ca565b610a28565b34801561043157600080fd5b5061020f610440366004612123565b610a7a565b34801561045157600080fd5b5061020f610d36565b34801561046657600080fd5b5061020f610475366004611f7d565b610d46565b34801561048657600080fd5b506101c26104953660046121e3565b610d51565b3480156104a657600080fd5b5061020f6104b5366004611eee565b610db9565b3480156104c657600080fd5b506101c26104d5366004612224565b610df3565b3480156104e657600080fd5b506040805180820190915260208082527f737570706f72743d627261766f2671756f72756d3d666f722c6162737461696e90820152610232565b34801561052c57600080fd5b5061020f7f150214d74d59b7d1e90c73fc22ef3d991dd0a76b046543d4d80ab92d2a50328f81565b34801561056057600080fd5b506101c261056f366004611f7d565b610e1b565b34801561058057600080fd5b5061020f61058f36600461224d565b610e43565b3480156105a057600080fd5b506101c26105af366004611f7d565b610ee0565b3480156105c057600080fd5b5061020f6105cf366004611f7d565b5060085490565b3480156105e257600080fd5b5061060a7f000000000000000000000000000000000000000000000000000000000000000081565b6040516001600160a01b0390911681526020016101f5565b60006001600160e01b0319821663bf26d89760e01b148061065357506301ffc9a760e01b6001600160e01b03198316145b92915050565b60606000805461066890612277565b80601f016020809104026020016040519081016040528092919081815260200182805461069490612277565b80156106e15780601f106106b6576101008083540402835291602001916106e1565b820191906000526020600020905b8154815290600101906020018083116106c457829003601f168201915b5050505050905090565b6000806106fa86868686610db9565b90506000610707826108c8565b9050600481600781111561071d5761071d611ff5565b148061073a5750600581600781111561073857610738611ff5565b145b6107955760405162461bcd60e51b815260206004820152602160248201527f476f7665726e6f723a2070726f706f73616c206e6f74207375636365737366756044820152601b60fa1b60648201526084015b60405180910390fd5b600082815260016020818152604092839020600201805460ff191690921790915590518381527f712ae1383f79ac853f8d882153778e0260ef8f03b504e2866e0593e04d2b291f910160405180910390a16107f38288888888610f08565b5095945050505050565b60008181526001602090815260408083208151928301909152546001600160401b0316908190525b6001600160401b031692915050565b604080517f150214d74d59b7d1e90c73fc22ef3d991dd0a76b046543d4d80ab92d2a50328f602082015290810186905260ff8516606082015260009081906108a0906108989060800160405160208183030381529060405280519060200120611007565b868686611055565b90506108bd87828860405180602001604052806000815250611073565b979650505050505050565b6000818152600160205260408120600281015460ff16156108ec5750600792915050565b6002810154610100900460ff16156109075750600292915050565b6000610912846107fd565b9050806109615760405162461bcd60e51b815260206004820152601d60248201527f476f7665726e6f723a20756e6b6e6f776e2070726f706f73616c206964000000604482015260640161078c565b438110610972575060009392505050565b600061097d85610d46565b905043811061099157506001949350505050565b61099a8561108a565b80156109b9575060008581526005602052604090208054600190910154115b156109c957506004949350505050565b506003949350505050565b6000803390506109f584828560405180602001604052806000815250611073565b949350505050565b333014610a1c5760405162461bcd60e51b815260040161078c906122b2565b610a25816110c1565b50565b600080339050610a7086828787878080601f01602080910402602001604051908101604052809392919081815260200183838082843760009201919091525061107392505050565b9695505050505050565b6000610a84610d36565b610a933361058f6001436122ff565b1015610b135760405162461bcd60e51b815260206004820152604360248201527f476f7665726e6f72436f6d7061746962696c697479427261766f3a2070726f7060448201527f6f73657220766f7465732062656c6f772070726f706f73616c207468726573686064820152621bdb1960ea1b608482015260a40161078c565b6000610b288686868680519060200120610db9565b90508451865114610b4b5760405162461bcd60e51b815260040161078c90612316565b8351865114610b6c5760405162461bcd60e51b815260040161078c90612316565b6000865111610bbd5760405162461bcd60e51b815260206004820152601860248201527f476f7665726e6f723a20656d7074792070726f706f73616c0000000000000000604482015260640161078c565b600081815260016020908152604091829020825191820190925281546001600160401b03169081905215610c3d5760405162461bcd60e51b815260206004820152602160248201527f476f7665726e6f723a2070726f706f73616c20616c72656164792065786973746044820152607360f81b606482015260840161078c565b6000610c50610c4b60025490565b611102565b610c5943611102565b610c639190612357565b90506000610c73610c4b60035490565b610c7d9083612357565b9050610c89838361116e565b610c96600184018261116e565b7f7d84a6263ae0d98d3329bd7b46bb4e8d6f98cd35a7adb45c274c8b7fd5ebd5e084338b8b8d516001600160401b03811115610cd457610cd4611cb1565b604051908082528060200260200182016040528015610d0757816020015b6060815260200190600190039081610cf25790505b508c88888e604051610d219998979695949392919061244b565b60405180910390a15091979650505050505050565b6000610d4160045490565b905090565b60006106538261118c565b333014610d705760405162461bcd60e51b815260040161078c906122b2565b610db28483838080601f0160208091040260200160405190810160405280939291908181526020018383808284376000920191909152508892506111c8915050565b5050505050565b600084848484604051602001610dd2949392919061253a565b60408051601f19818403018152919052805160209091012095945050505050565b333014610e125760405162461bcd60e51b815260040161078c906122b2565b610a25816111ee565b333014610e3a5760405162461bcd60e51b815260040161078c906122b2565b610a2581611258565b604051630748d63560e31b81526001600160a01b038381166004830152602482018390526000917f000000000000000000000000000000000000000000000000000000000000000090911690633a46b1a890604401602060405180830381865afa158015610eb5573d6000803e3d6000fd5b505050506040513d601f19601f82011682018060405250810190610ed99190612585565b9392505050565b333014610eff5760405162461bcd60e51b815260040161078c906122b2565b610a25816112f9565b600060405180606001604052806027815260200161262c60279139905060005b8551811015610ffe57600080878381518110610f4657610f4661259e565b60200260200101516001600160a01b0316878481518110610f6957610f6961259e565b6020026020010151878581518110610f8357610f8361259e565b6020026020010151604051610f9891906125b4565b60006040518083038185875af1925050503d8060008114610fd5576040519150601f19603f3d011682016040523d82523d6000602084013e610fda565b606091505b5091509150610fea82828661133a565b50505080610ff7906125d0565b9050610f28565b50505050505050565b6000610653611014611373565b8360405161190160f01b6020820152602281018390526042810182905260009060620160405160208183030381529060405280519060200120905092915050565b60008060006110668787878761149a565b915091506107f381611587565b600061108185858585611742565b95945050505050565b6000818152600560205260408120600281015460018201546110ac91906125eb565b6110b86105cf856107fd565b11159392505050565b60025460408051918252602082018390527fc565b045403dc03c2eea82b81a0465edad9e2e7fc4d97e11421c209da93d7a93910160405180910390a1600255565b60006001600160401b0382111561116a5760405162461bcd60e51b815260206004820152602660248201527f53616665436173743a2076616c756520646f65736e27742066697420696e203660448201526534206269747360d01b606482015260840161078c565b5090565b815467ffffffffffffffff19166001600160401b0391909116179055565b600061065361119a8361182b565b600084815260076020908152604091829020825191820190925290546001600160401b03169081905261185a565b60606109f584848460405180606001604052806029815260200161265360299139611871565b600654604080516001600160401b03928316815291831660208301527f7ca4ac117ed3cdce75c1161d8207c440389b1a15d69d096831664657c07dafc2910160405180910390a16006805467ffffffffffffffff19166001600160401b0392909216919091179055565b600081116112b85760405162461bcd60e51b815260206004820152602760248201527f476f7665726e6f7253657474696e67733a20766f74696e6720706572696f6420604482015266746f6f206c6f7760c81b606482015260840161078c565b60035460408051918252602082018390527f7e3f7f0708a84de9203036abaa450dccc85ad5ff52f78c170f3edb55cf5e8828910160405180910390a1600355565b60045460408051918252602082018390527fccb45da8d5717e6c4544694297c4ba5cf151d455c9bb0ed4fc7a38411bc05461910160405180910390a1600455565b60608315611349575081610ed9565b8251156113595782518084602001fd5b8160405162461bcd60e51b815260040161078c9190611c9e565b6000306001600160a01b037f0000000000000000000000000000000000000000000000000000000000000000161480156113cc57507f000000000000000000000000000000000000000000000000000000000000000046145b156113f657507f000000000000000000000000000000000000000000000000000000000000000090565b50604080517f00000000000000000000000000000000000000000000000000000000000000006020808301919091527f0000000000000000000000000000000000000000000000000000000000000000828401527f000000000000000000000000000000000000000000000000000000000000000060608301524660808301523060a0808401919091528351808403909101815260c0909201909252805191012090565b6000807f7fffffffffffffffffffffffffffffff5d576e7357a4501ddfe92f46681b20a08311156114d1575060009050600361157e565b8460ff16601b141580156114e957508460ff16601c14155b156114fa575060009050600461157e565b6040805160008082526020820180845289905260ff881692820192909252606081018690526080810185905260019060a0016020604051602081039080840390855afa15801561154e573d6000803e3d6000fd5b5050604051601f1901519150506001600160a01b0381166115775760006001925092505061157e565b9150600090505b94509492505050565b600081600481111561159b5761159b611ff5565b14156115a45750565b60018160048111156115b8576115b8611ff5565b14156116065760405162461bcd60e51b815260206004820152601860248201527f45434453413a20696e76616c6964207369676e61747572650000000000000000604482015260640161078c565b600281600481111561161a5761161a611ff5565b14156116685760405162461bcd60e51b815260206004820152601f60248201527f45434453413a20696e76616c6964207369676e6174757265206c656e67746800604482015260640161078c565b600381600481111561167c5761167c611ff5565b14156116d55760405162461bcd60e51b815260206004820152602260248201527f45434453413a20696e76616c6964207369676e6174757265202773272076616c604482015261756560f01b606482015260840161078c565b60048160048111156116e9576116e9611ff5565b1415610a255760405162461bcd60e51b815260206004820152602260248201527f45434453413a20696e76616c6964207369676e6174757265202776272076616c604482015261756560f01b606482015260840161078c565b6000806117518686868661198e565b600087815260076020908152604091829020825191820190925281546001600160401b0316908190529192509015801561178f575061178f8761108a565b156107f35760006117a86006546001600160401b031690565b6117b143611102565b6117bb9190612357565b90506117c688610d46565b816001600160401b03161115611815576040516001600160401b038216815288907f541f725fb9f7c98a30cc9c0ff32fbb14358cd7159c847a3aa20a2bdc442ba5119060200160405180910390a25b61181f828261116e565b50509050949350505050565b60008181526001602081815260408084208151928301909152909101546001600160401b031690819052610825565b60008183101561186a5781610ed9565b5090919050565b6060824710156118d25760405162461bcd60e51b815260206004820152602660248201527f416464726573733a20696e73756666696369656e742062616c616e636520666f6044820152651c8818d85b1b60d21b606482015260840161078c565b843b6119205760405162461bcd60e51b815260206004820152601d60248201527f416464726573733a2063616c6c20746f206e6f6e2d636f6e7472616374000000604482015260640161078c565b600080866001600160a01b0316858760405161193c91906125b4565b60006040518083038185875af1925050503d8060008114611979576040519150601f19603f3d011682016040523d82523d6000602084013e61197e565b606091505b50915091506108bd82828661133a565b60008481526001602081905260408220906119a8876108c8565b60078111156119b9576119b9611ff5565b14611a125760405162461bcd60e51b815260206004820152602360248201527f476f7665726e6f723a20766f7465206e6f742063757272656e746c792061637460448201526269766560e81b606482015260840161078c565b604080516020810190915281546001600160401b031690819052600090611a3a908790610e43565b9050611a4887878784611a99565b856001600160a01b03167fb8e138887d0aa13bab447e82de9d5c1777041ecd21ca36ba824ff1e6c07ddda488878488604051611a879493929190612603565b60405180910390a29695505050505050565b60008481526005602090815260408083206001600160a01b0387168452600381019092529091205460ff1615611b215760405162461bcd60e51b815260206004820152602760248201527f476f7665726e6f72566f74696e6753696d706c653a20766f746520616c726561604482015266191e4818d85cdd60ca1b606482015260840161078c565b6001600160a01b03841660009081526003820160205260408120805460ff1916600117905560ff168360ff161415611b725781816000016000828254611b6791906125eb565b90915550610db29050565b60ff831660011415611b925781816001016000828254611b6791906125eb565b60ff831660021415611bb25781816002016000828254611b6791906125eb565b60405162461bcd60e51b815260206004820152603560248201527f476f7665726e6f72566f74696e6753696d706c653a20696e76616c69642076616044820152746c756520666f7220656e756d20566f74655479706560581b606482015260840161078c565b600060208284031215611c2a57600080fd5b81356001600160e01b031981168114610ed957600080fd5b60005b83811015611c5d578181015183820152602001611c45565b83811115611c6c576000848401525b50505050565b60008151808452611c8a816020860160208601611c42565b601f01601f19169290920160200192915050565b602081526000610ed96020830184611c72565b634e487b7160e01b600052604160045260246000fd5b604051601f8201601f191681016001600160401b0381118282101715611cef57611cef611cb1565b604052919050565b60006001600160401b03821115611d1057611d10611cb1565b5060051b60200190565b80356001600160a01b0381168114611d3157600080fd5b919050565b600082601f830112611d4757600080fd5b81356020611d5c611d5783611cf7565b611cc7565b82815260059290921b84018101918181019086841115611d7b57600080fd5b8286015b84811015611d9d57611d9081611d1a565b8352918301918301611d7f565b509695505050505050565b600082601f830112611db957600080fd5b81356020611dc9611d5783611cf7565b82815260059290921b84018101918181019086841115611de857600080fd5b8286015b84811015611d9d5780358352918301918301611dec565b60006001600160401b03831115611e1c57611e1c611cb1565b611e2f601f8401601f1916602001611cc7565b9050828152838383011115611e4357600080fd5b828260208301376000602084830101529392505050565b600082601f830112611e6b57600080fd5b81356020611e7b611d5783611cf7565b82815260059290921b84018101918181019086841115611e9a57600080fd5b8286015b84811015611d9d5780356001600160401b03811115611ebd5760008081fd5b8701603f81018913611ecf5760008081fd5b611ee0898683013560408401611e03565b845250918301918301611e9e565b60008060008060808587031215611f0457600080fd5b84356001600160401b0380821115611f1b57600080fd5b611f2788838901611d36565b95506020870135915080821115611f3d57600080fd5b611f4988838901611da8565b94506040870135915080821115611f5f57600080fd5b50611f6c87828801611e5a565b949793965093946060013593505050565b600060208284031215611f8f57600080fd5b5035919050565b803560ff81168114611d3157600080fd5b600080600080600060a08688031215611fbf57600080fd5b85359450611fcf60208701611f96565b9350611fdd60408701611f96565b94979396509394606081013594506080013592915050565b634e487b7160e01b600052602160045260246000fd5b602081016008831061202d57634e487b7160e01b600052602160045260246000fd5b91905290565b6000806040838503121561204657600080fd5b8235915061205660208401611d1a565b90509250929050565b6000806040838503121561207257600080fd5b8235915061205660208401611f96565b60008083601f84011261209457600080fd5b5081356001600160401b038111156120ab57600080fd5b6020830191508360208285010111156120c357600080fd5b9250929050565b600080600080606085870312156120e057600080fd5b843593506120f060208601611f96565b925060408501356001600160401b0381111561210b57600080fd5b61211787828801612082565b95989497509550505050565b6000806000806080858703121561213957600080fd5b84356001600160401b038082111561215057600080fd5b61215c88838901611d36565b9550602087013591508082111561217257600080fd5b61217e88838901611da8565b9450604087013591508082111561219457600080fd5b6121a088838901611e5a565b935060608701359150808211156121b657600080fd5b508501601f810187136121c857600080fd5b6121d787823560208401611e03565b91505092959194509250565b600080600080606085870312156121f957600080fd5b61220285611d1a565b93506020850135925060408501356001600160401b0381111561210b57600080fd5b60006020828403121561223657600080fd5b81356001600160401b0381168114610ed957600080fd5b6000806040838503121561226057600080fd5b61226983611d1a565b946020939093013593505050565b600181811c9082168061228b57607f821691505b602082108114156122ac57634e487b7160e01b600052602260045260246000fd5b50919050565b60208082526018908201527f476f7665726e6f723a206f6e6c79476f7665726e616e63650000000000000000604082015260600190565b634e487b7160e01b600052601160045260246000fd5b600082821015612311576123116122e9565b500390565b60208082526021908201527f476f7665726e6f723a20696e76616c69642070726f706f73616c206c656e67746040820152600d60fb1b606082015260800190565b60006001600160401b03808316818516808303821115612379576123796122e9565b01949350505050565b600081518084526020808501945080840160005b838110156123bb5781516001600160a01b031687529582019590820190600101612396565b509495945050505050565b600081518084526020808501945080840160005b838110156123bb578151875295820195908201906001016123da565b600081518084526020808501808196508360051b8101915082860160005b8581101561243e57828403895261242c848351611c72565b98850198935090840190600101612414565b5091979650505050505050565b60006101208b8352602060018060a01b038c16818501528160408501526124748285018c612382565b91508382036060850152612488828b6123c6565b915083820360808501528189518084528284019150828160051b850101838c0160005b838110156124d957601f198784030185526124c7838351611c72565b948601949250908501906001016124ab565b505086810360a08801526124ed818c6123f6565b94505050505061250860c08401876001600160401b03169052565b6001600160401b03851660e084015282810361010084015261252a8185611c72565b9c9b505050505050505050505050565b60808152600061254d6080830187612382565b828103602084015261255f81876123c6565b9050828103604084015261257381866123f6565b91505082606083015295945050505050565b60006020828403121561259757600080fd5b5051919050565b634e487b7160e01b600052603260045260246000fd5b600082516125c6818460208701611c42565b9190910192915050565b60006000198214156125e4576125e46122e9565b5060010190565b600082198211156125fe576125fe6122e9565b500190565b84815260ff84166020820152826040820152608060608201526000610a706080830184611c7256fe476f7665726e6f723a2063616c6c20726576657274656420776974686f7574206d657373616765416464726573733a206c6f772d6c6576656c2063616c6c20776974682076616c7565206661696c6564a2646970667358221220f204d8174f0d698d26be8efcf9b4e4f9bc948468ba05d33d3d18f351dfbdd73464736f6c634300080a0033",
  "linkReferences": {},
  "deployedLinkReferences": {}
}