{
  "_format": "hh-sol-artifact-1",
  "contractName": "BuybackFund",
  "sourceName": "contracts/BuybackFund/BuybackFund.sol",
  "abi": [
    {
      "inputs": [
        {
          "internalType": "contract IPax",
          "name": "_pax",
          "type": "address"
        },
        {
          "internalType": "address",
          "name": "_receiver",
          "type": "address"
        }
      ],
      "stateMutability": "nonpayable",
      "type": "constructor"
    },
    {
      "anonymous": false,
      "inputs": [
        {
          "indexed": true,
          "internalType": "address",
          "name": "previousOwner",
          "type": "address"
        },
        {
          "indexed": true,
          "internalType": "address",
          "name": "newOwner",
          "type": "address"
        }
      ],
      "name": "OwnershipTransferred",
      "type": "event"
    },
    {
      "inputs": [],
      "name": "owner",
      "outputs": [
        {
          "internalType": "address",
          "name": "",
          "type": "address"
        }
      ],
      "stateMutability": "view",
      "type": "function"
    },
    {
      "inputs": [],
      "name": "pax",
      "outputs": [
        {
          "internalType": "contract IPax",
          "name": "",
          "type": "address"
        }
      ],
      "stateMutability": "view",
      "type": "function"
    },
    {
      "inputs": [],
      "name": "receiver",
      "outputs": [
        {
          "internalType": "address",
          "name": "",
          "type": "address"
        }
      ],
      "stateMutability": "view",
      "type": "function"
    },
    {
      "inputs": [],
      "name": "renounceOwnership",
      "outputs": [],
      "stateMutability": "nonpayable",
      "type": "function"
    },
    {
      "inputs": [
        {
          "internalType": "address",
          "name": "_receiver",
          "type": "address"
        }
      ],
      "name": "setReceiver",
      "outputs": [],
      "stateMutability": "nonpayable",
      "type": "function"
    },
    {
      "inputs": [
        {
          "internalType": "address",
          "name": "newOwner",
          "type": "address"
        }
      ],
      "name": "transferOwnership",
      "outputs": [],
      "stateMutability": "nonpayable",
      "type": "function"
    },
    {
      "inputs": [],
      "name": "transferToReceiver",
      "outputs": [],
      "stateMutability": "nonpayable",
      "type": "function"
    }
  ],
  "bytecode": "0x608060405234801561001057600080fd5b5060405161058138038061058183398101604081905261002f916100d1565b61003833610069565b600180546001600160a01b039384166001600160a01b0319918216179091556002805492909316911617905561010b565b600080546001600160a01b038381166001600160a01b0319831681178455604051919092169283917f8be0079c531659141344cd1fd0a4f28419497f9722a3daafe3b4186f6b6457e09190a35050565b6001600160a01b03811681146100ce57600080fd5b50565b600080604083850312156100e457600080fd5b82516100ef816100b9565b6020840151909250610100816100b9565b809150509250929050565b6104678061011a6000396000f3fe608060405234801561001057600080fd5b506004361061007d5760003560e01c8063718da7ee1161005b578063718da7ee146100c35780638da5cb5b146100d6578063f2fde38b146100e7578063f7260d3e146100fa57600080fd5b8063462567e71461008257806352a701b41461008c578063715018a6146100bb575b600080fd5b61008a61010d565b005b60015461009f906001600160a01b031681565b6040516001600160a01b03909116815260200160405180910390f35b61008a61022b565b61008a6100d1366004610391565b610261565b6000546001600160a01b031661009f565b61008a6100f5366004610391565b6102ad565b60025461009f906001600160a01b031681565b6000546001600160a01b031633146101405760405162461bcd60e51b8152600401610137906103c1565b60405180910390fd5b6001546002546040516370a0823160e01b81523060048201526001600160a01b039283169263a9059cbb92169083906370a0823190602401602060405180830381865afa158015610195573d6000803e3d6000fd5b505050506040513d601f19601f820116820180604052508101906101b991906103f6565b6040516001600160e01b031960e085901b1681526001600160a01b03909216600483015260248201526044016020604051808303816000875af1158015610204573d6000803e3d6000fd5b505050506040513d601f19601f82011682018060405250810190610228919061040f565b50565b6000546001600160a01b031633146102555760405162461bcd60e51b8152600401610137906103c1565b61025f6000610341565b565b6000546001600160a01b0316331461028b5760405162461bcd60e51b8152600401610137906103c1565b600280546001600160a01b0319166001600160a01b0392909216919091179055565b6000546001600160a01b031633146102d75760405162461bcd60e51b8152600401610137906103c1565b6001600160a01b03811661033c5760405162461bcd60e51b815260206004820152602660248201527f4f776e61626c653a206e6577206f776e657220697320746865207a65726f206160448201526564647265737360d01b6064820152608401610137565b610228815b600080546001600160a01b038381166001600160a01b0319831681178455604051919092169283917f8be0079c531659141344cd1fd0a4f28419497f9722a3daafe3b4186f6b6457e09190a35050565b6000602082840312156103a357600080fd5b81356001600160a01b03811681146103ba57600080fd5b9392505050565b6020808252818101527f4f776e61626c653a2063616c6c6572206973206e6f7420746865206f776e6572604082015260600190565b60006020828403121561040857600080fd5b5051919050565b60006020828403121561042157600080fd5b815180151581146103ba57600080fdfea2646970667358221220571074bb40376a7cd44c4ff0ce54730380f296ff91bbe526b3156c8e9faff58564736f6c634300080a0033",
  "linkReferences": {},
  "deployedLinkReferences": {}
}