{
    "_format": "hh-sol-artifact-1",
    "contractName": "Pax",
    "sourceName": "contracts/Pax/Pax.sol",
    "abi": [
        {
            "inputs": [],
            "stateMutability": "nonpayable",
            "type": "constructor"
        },
        {
            "anonymous": false,
            "inputs": [
                {
                    "indexed": true,
                    "internalType": "address",
                    "name": "owner",
                    "type": "address"
                },
                {
                    "indexed": true,
                    "internalType": "address",
                    "name": "spender",
                    "type": "address"
                },
                {
                    "indexed": false,
                    "internalType": "uint256",
                    "name": "value",
                    "type": "uint256"
                }
            ],
            "name": "Approval",
            "type": "event"
        },
        {
            "anonymous": false,
            "inputs": [
                {
                    "indexed": true,
                    "internalType": "address",
                    "name": "previousOwner",
                    "type": "address"
                },
                {
                    "indexed": true,
                    "internalType": "address",
                    "name": "newOwner",
                    "type": "address"
                }
            ],
            "name": "OwnershipTransferred",
            "type": "event"
        },
        {
            "anonymous": false,
            "inputs": [
                {
                    "indexed": false,
                    "internalType": "uint256",
                    "name": "id",
                    "type": "uint256"
                }
            ],
            "name": "Snapshot",
            "type": "event"
        },
        {
            "anonymous": false,
            "inputs": [
                {
                    "indexed": true,
                    "internalType": "address",
                    "name": "from",
                    "type": "address"
                },
                {
                    "indexed": true,
                    "internalType": "address",
                    "name": "to",
                    "type": "address"
                },
                {
                    "indexed": false,
                    "internalType": "uint256",
                    "name": "value",
                    "type": "uint256"
                }
            ],
            "name": "Transfer",
            "type": "event"
        },
        {
            "inputs": [],
            "name": "INITIAL_SUPPLY",
            "outputs": [
                {
                    "internalType": "uint256",
                    "name": "",
                    "type": "uint256"
                }
            ],
            "stateMutability": "view",
            "type": "function"
        },
        {
            "inputs": [
                {
                    "internalType": "address",
                    "name": "owner",
                    "type": "address"
                },
                {
                    "internalType": "address",
                    "name": "spender",
                    "type": "address"
                }
            ],
            "name": "allowance",
            "outputs": [
                {
                    "internalType": "uint256",
                    "name": "",
                    "type": "uint256"
                }
            ],
            "stateMutability": "view",
            "type": "function"
        },
        {
            "inputs": [
                {
                    "internalType": "address",
                    "name": "spender",
                    "type": "address"
                },
                {
                    "internalType": "uint256",
                    "name": "amount",
                    "type": "uint256"
                }
            ],
            "name": "approve",
            "outputs": [
                {
                    "internalType": "bool",
                    "name": "",
                    "type": "bool"
                }
            ],
            "stateMutability": "nonpayable",
            "type": "function"
        },
        {
            "inputs": [
                {
                    "internalType": "address",
                    "name": "account",
                    "type": "address"
                }
            ],
            "name": "balanceOf",
            "outputs": [
                {
                    "internalType": "uint256",
                    "name": "",
                    "type": "uint256"
                }
            ],
            "stateMutability": "view",
            "type": "function"
        },
        {
            "inputs": [
                {
                    "internalType": "address",
                    "name": "account",
                    "type": "address"
                },
                {
                    "internalType": "uint256",
                    "name": "snapshotId",
                    "type": "uint256"
                }
            ],
            "name": "balanceOfAt",
            "outputs": [
                {
                    "internalType": "uint256",
                    "name": "",
                    "type": "uint256"
                }
            ],
            "stateMutability": "view",
            "type": "function"
        },
        {
            "inputs": [
                {
                    "internalType": "uint256",
                    "name": "amount",
                    "type": "uint256"
                }
            ],
            "name": "burn",
            "outputs": [],
            "stateMutability": "nonpayable",
            "type": "function"
        },
        {
            "inputs": [
                {
                    "internalType": "address",
                    "name": "account",
                    "type": "address"
                },
                {
                    "internalType": "uint256",
                    "name": "amount",
                    "type": "uint256"
                }
            ],
            "name": "burnFrom",
            "outputs": [],
            "stateMutability": "nonpayable",
            "type": "function"
        },
        {
            "inputs": [],
            "name": "buyback",
            "outputs": [
                {
                    "internalType": "address",
                    "name": "",
                    "type": "address"
                }
            ],
            "stateMutability": "view",
            "type": "function"
        },
        {
            "inputs": [],
            "name": "decimals",
            "outputs": [
                {
                    "internalType": "uint8",
                    "name": "",
                    "type": "uint8"
                }
            ],
            "stateMutability": "view",
            "type": "function"
        },
        {
            "inputs": [
                {
                    "internalType": "address",
                    "name": "spender",
                    "type": "address"
                },
                {
                    "internalType": "uint256",
                    "name": "subtractedValue",
                    "type": "uint256"
                }
            ],
            "name": "decreaseAllowance",
            "outputs": [
                {
                    "internalType": "bool",
                    "name": "",
                    "type": "bool"
                }
            ],
            "stateMutability": "nonpayable",
            "type": "function"
        },
        {
            "inputs": [],
            "name": "emitter",
            "outputs": [
                {
                    "internalType": "address",
                    "name": "",
                    "type": "address"
                }
            ],
            "stateMutability": "view",
            "type": "function"
        },
        {
            "inputs": [
                {
                    "internalType": "address",
                    "name": "spender",
                    "type": "address"
                },
                {
                    "internalType": "uint256",
                    "name": "addedValue",
                    "type": "uint256"
                }
            ],
            "name": "increaseAllowance",
            "outputs": [
                {
                    "internalType": "bool",
                    "name": "",
                    "type": "bool"
                }
            ],
            "stateMutability": "nonpayable",
            "type": "function"
        },
        {
            "inputs": [
                {
                    "internalType": "address",
                    "name": "to",
                    "type": "address"
                },
                {
                    "internalType": "uint256",
                    "name": "amount",
                    "type": "uint256"
                }
            ],
            "name": "mint",
            "outputs": [],
            "stateMutability": "nonpayable",
            "type": "function"
        },
        {
            "inputs": [],
            "name": "name",
            "outputs": [
                {
                    "internalType": "string",
                    "name": "",
                    "type": "string"
                }
            ],
            "stateMutability": "view",
            "type": "function"
        },
        {
            "inputs": [],
            "name": "owner",
            "outputs": [
                {
                    "internalType": "address",
                    "name": "",
                    "type": "address"
                }
            ],
            "stateMutability": "view",
            "type": "function"
        },
        {
            "inputs": [],
            "name": "renounceOwnership",
            "outputs": [],
            "stateMutability": "nonpayable",
            "type": "function"
        },
        {
            "inputs": [
                {
                    "internalType": "address",
                    "name": "_buyback",
                    "type": "address"
                }
            ],
            "name": "setBuybackFund",
            "outputs": [],
            "stateMutability": "nonpayable",
            "type": "function"
        },
        {
            "inputs": [
                {
                    "internalType": "address",
                    "name": "_emitter",
                    "type": "address"
                }
            ],
            "name": "setEmitter",
            "outputs": [],
            "stateMutability": "nonpayable",
            "type": "function"
        },
        {
            "inputs": [
                {
                    "internalType": "address",
                    "name": "_whitehole",
                    "type": "address"
                }
            ],
            "name": "setWhitehole",
            "outputs": [],
            "stateMutability": "nonpayable",
            "type": "function"
        },
        {
            "inputs": [],
            "name": "snapshot",
            "outputs": [],
            "stateMutability": "nonpayable",
            "type": "function"
        },
        {
            "inputs": [],
            "name": "symbol",
            "outputs": [
                {
                    "internalType": "string",
                    "name": "",
                    "type": "string"
                }
            ],
            "stateMutability": "view",
            "type": "function"
        },
        {
            "inputs": [],
            "name": "totalSupply",
            "outputs": [
                {
                    "internalType": "uint256",
                    "name": "",
                    "type": "uint256"
                }
            ],
            "stateMutability": "view",
            "type": "function"
        },
        {
            "inputs": [
                {
                    "internalType": "uint256",
                    "name": "snapshotId",
                    "type": "uint256"
                }
            ],
            "name": "totalSupplyAt",
            "outputs": [
                {
                    "internalType": "uint256",
                    "name": "",
                    "type": "uint256"
                }
            ],
            "stateMutability": "view",
            "type": "function"
        },
        {
            "inputs": [
                {
                    "internalType": "address",
                    "name": "recipient",
                    "type": "address"
                },
                {
                    "internalType": "uint256",
                    "name": "amount",
                    "type": "uint256"
                }
            ],
            "name": "transfer",
            "outputs": [
                {
                    "internalType": "bool",
                    "name": "",
                    "type": "bool"
                }
            ],
            "stateMutability": "nonpayable",
            "type": "function"
        },
        {
            "inputs": [
                {
                    "internalType": "address",
                    "name": "sender",
                    "type": "address"
                },
                {
                    "internalType": "address",
                    "name": "recipient",
                    "type": "address"
                },
                {
                    "internalType": "uint256",
                    "name": "amount",
                    "type": "uint256"
                }
            ],
            "name": "transferFrom",
            "outputs": [
                {
                    "internalType": "bool",
                    "name": "",
                    "type": "bool"
                }
            ],
            "stateMutability": "nonpayable",
            "type": "function"
        },
        {
            "inputs": [
                {
                    "internalType": "address",
                    "name": "newOwner",
                    "type": "address"
                }
            ],
            "name": "transferOwnership",
            "outputs": [],
            "stateMutability": "nonpayable",
            "type": "function"
        },
        {
            "inputs": [],
            "name": "whitehole",
            "outputs": [
                {
                    "internalType": "address",
                    "name": "",
                    "type": "address"
                }
            ],
            "stateMutability": "view",
            "type": "function"
        }
    ],
    "bytecode": "0x60806040526a14c7a68f80b99cf87a0a8e600d553480156200002057600080fd5b50604051806040016040528060078152602001660869c8840a0c2f60cb1b815250604051806040016040528060038152602001620a082b60eb1b81525081600390805190602001906200007592919062000390565b5080516200008b90600490602084019062000390565b505050620000a8620000a2620000bc60201b60201c565b620000c0565b620000b633600d5462000112565b620004d4565b3390565b600980546001600160a01b038381166001600160a01b0319831681179093556040519116919082907f8be0079c531659141344cd1fd0a4f28419497f9722a3daafe3b4186f6b6457e090600090a35050565b6001600160a01b0382166200016d5760405162461bcd60e51b815260206004820152601f60248201527f45524332303a206d696e7420746f20746865207a65726f206164647265737300604482015260640160405180910390fd5b6200017b6000838362000208565b80600260008282546200018f91906200044c565b90915550506001600160a01b03821660009081526020819052604081208054839290620001be9084906200044c565b90915550506040518181526001600160a01b038316906000907fddf252ad1be2c89b69c2b068fc378daa952ba7f163c4a11628f55a4df523b3ef9060200160405180910390a35050565b620002208383836200022560201b620009941760201c565b505050565b6200023d8383836200022060201b6200074a1760201c565b6001600160a01b038316620002615762000257826200028c565b62000220620002c4565b6001600160a01b0382166200027b5762000257836200028c565b62000286836200028c565b62000220825b6001600160a01b03811660009081526005602090815260408083209183905290912054620002c19190620002d6565b620002d6565b50565b620002d46006620002bb60025490565b565b6000620002e262000325565b905080620002f08462000343565b101562000220578254600180820185556000858152602080822090930193909355938401805494850181558252902090910155565b60006200033e60086200038c60201b620009dc1760201c565b905090565b80546000906200035557506000919050565b81548290620003679060019062000467565b815481106200037a576200037a62000481565b90600052602060002001549050919050565b5490565b8280546200039e9062000497565b90600052602060002090601f016020900481019282620003c257600085556200040d565b82601f10620003dd57805160ff19168380011785556200040d565b828001600101855582156200040d579182015b828111156200040d578251825591602001919060010190620003f0565b506200041b9291506200041f565b5090565b5b808211156200041b576000815560010162000420565b634e487b7160e01b600052601160045260246000fd5b6000821982111562000462576200046262000436565b500190565b6000828210156200047c576200047c62000436565b500390565b634e487b7160e01b600052603260045260246000fd5b600181811c90821680620004ac57607f821691505b60208210811415620004ce57634e487b7160e01b600052602260045260246000fd5b50919050565b61152b80620004e46000396000f3fe608060405234801561001057600080fd5b50600436106101a95760003560e01c8063715018a6116100f95780639f903ff611610097578063dce1137511610071578063dce113751461037c578063dd62ed3e1461038f578063f2fde38b146103c8578063f8ec6911146103db57600080fd5b80639f903ff614610343578063a457c2d714610356578063a9059cbb1461036957600080fd5b806395d89b41116100d357806395d89b411461030d5780639711715a14610315578063981b24d01461031d5780639af2bb0c1461033057600080fd5b8063715018a6146102e157806379cc6790146102e95780638da5cb5b146102fc57600080fd5b806339509351116101665780634ee2cd7e116101405780634ee2cd7e14610267578063550d1eb91461027a5780636c82a323146102a557806370a08231146102b857600080fd5b8063395093511461022c57806340c10f191461023f57806342966c681461025457600080fd5b806306fdde03146101ae578063095ea7b3146101cc57806318160ddd146101ef57806323b872dd146102015780632ff2e9dc14610214578063313ce5671461021d575b600080fd5b6101b66103ee565b6040516101c391906112b0565b60405180910390f35b6101df6101da36600461131c565b610480565b60405190151581526020016101c3565b6002545b6040519081526020016101c3565b6101df61020f366004611346565b610497565b6101f3600d5481565b604051601281526020016101c3565b6101df61023a36600461131c565b610546565b61025261024d36600461131c565b610582565b005b610252610262366004611382565b6105b0565b6101f361027536600461131c565b610618565b600b5461028d906001600160a01b031681565b6040516001600160a01b0390911681526020016101c3565b6102526102b336600461139b565b610671565b6101f36102c636600461139b565b6001600160a01b031660009081526020819052604090205490565b6102526106bd565b6102526102f736600461131c565b6106f3565b6009546001600160a01b031661028d565b6101b661074f565b61025261075e565b6101f361032b366004611382565b610793565b61025261033e36600461139b565b6107be565b61025261035136600461139b565b61080a565b6101df61036436600461131c565b610856565b6101df61037736600461131c565b6108ef565b600a5461028d906001600160a01b031681565b6101f361039d3660046113b6565b6001600160a01b03918216600090815260016020908152604080832093909416825291909152205490565b6102526103d636600461139b565b6108fc565b600c5461028d906001600160a01b031681565b6060600380546103fd906113e9565b80601f0160208091040260200160405190810160405280929190818152602001828054610429906113e9565b80156104765780601f1061044b57610100808354040283529160200191610476565b820191906000526020600020905b81548152906001019060200180831161045957829003601f168201915b5050505050905090565b600061048d3384846109e0565b5060015b92915050565b60006104a4848484610b04565b6001600160a01b03841660009081526001602090815260408083203384529091529020548281101561052e5760405162461bcd60e51b815260206004820152602860248201527f45524332303a207472616e7366657220616d6f756e74206578636565647320616044820152676c6c6f77616e636560c01b60648201526084015b60405180910390fd5b61053b85338584036109e0565b506001949350505050565b3360008181526001602090815260408083206001600160a01b0387168452909152812054909161048d91859061057d90869061143a565b6109e0565b600a546001600160a01b0316336001600160a01b0316146105a257600080fd5b6105ac8282610cde565b5050565b60006105c96103e86105c3846005610dc9565b90610ddc565b600b549091506105e2906001600160a01b0316826108ef565b50600c546105f9906001600160a01b0316826108ef565b506105ac33610609836002610dc9565b6106139085611452565b610de8565b6001600160a01b03821660009081526005602052604081208190819061063f908590610f42565b9150915081610666576001600160a01b038516600090815260208190526040902054610668565b805b95945050505050565b6009546001600160a01b0316331461069b5760405162461bcd60e51b815260040161052590611469565b600b80546001600160a01b0319166001600160a01b0392909216919091179055565b6009546001600160a01b031633146106e75760405162461bcd60e51b815260040161052590611469565b6106f16000611039565b565b60006107066103e86105c3846005610dc9565b600b549091506107219084906001600160a01b031683610497565b50600c5461073a9084906001600160a01b031683610497565b5061074a83610609836002610dc9565b505050565b6060600480546103fd906113e9565b6009546001600160a01b031633146107885760405162461bcd60e51b815260040161052590611469565b61079061108b565b50565b60008060006107a3846006610f42565b91509150816107b4576002546107b6565b805b949350505050565b6009546001600160a01b031633146107e85760405162461bcd60e51b815260040161052590611469565b600c80546001600160a01b0319166001600160a01b0392909216919091179055565b6009546001600160a01b031633146108345760405162461bcd60e51b815260040161052590611469565b600a80546001600160a01b0319166001600160a01b0392909216919091179055565b3360009081526001602090815260408083206001600160a01b0386168452909152812054828110156108d85760405162461bcd60e51b815260206004820152602560248201527f45524332303a2064656372656173656420616c6c6f77616e63652062656c6f77604482015264207a65726f60d81b6064820152608401610525565b6108e533858584036109e0565b5060019392505050565b600061048d338484610b04565b6009546001600160a01b031633146109265760405162461bcd60e51b815260040161052590611469565b6001600160a01b03811661098b5760405162461bcd60e51b815260206004820152602660248201527f4f776e61626c653a206e6577206f776e657220697320746865207a65726f206160448201526564647265737360d01b6064820152608401610525565b61079081611039565b6001600160a01b0383166109b3576109ab826110e5565b61074a611117565b6001600160a01b0382166109ca576109ab836110e5565b6109d3836110e5565b61074a826110e5565b5490565b6001600160a01b038316610a425760405162461bcd60e51b8152602060048201526024808201527f45524332303a20617070726f76652066726f6d20746865207a65726f206164646044820152637265737360e01b6064820152608401610525565b6001600160a01b038216610aa35760405162461bcd60e51b815260206004820152602260248201527f45524332303a20617070726f766520746f20746865207a65726f206164647265604482015261737360f01b6064820152608401610525565b6001600160a01b0383811660008181526001602090815260408083209487168084529482529182902085905590518481527f8c5be1e5ebec7d5bd14f71427d1e84f3dd0314c0f7b2291e5b200ac8c7c3b925910160405180910390a3505050565b6001600160a01b038316610b685760405162461bcd60e51b815260206004820152602560248201527f45524332303a207472616e736665722066726f6d20746865207a65726f206164604482015264647265737360d81b6064820152608401610525565b6001600160a01b038216610bca5760405162461bcd60e51b815260206004820152602360248201527f45524332303a207472616e7366657220746f20746865207a65726f206164647260448201526265737360e81b6064820152608401610525565b610bd5838383611125565b6001600160a01b03831660009081526020819052604090205481811015610c4d5760405162461bcd60e51b815260206004820152602660248201527f45524332303a207472616e7366657220616d6f756e7420657863656564732062604482015265616c616e636560d01b6064820152608401610525565b6001600160a01b03808516600090815260208190526040808220858503905591851681529081208054849290610c8490849061143a565b92505081905550826001600160a01b0316846001600160a01b03167fddf252ad1be2c89b69c2b068fc378daa952ba7f163c4a11628f55a4df523b3ef84604051610cd091815260200190565b60405180910390a350505050565b6001600160a01b038216610d345760405162461bcd60e51b815260206004820152601f60248201527f45524332303a206d696e7420746f20746865207a65726f2061646472657373006044820152606401610525565b610d4060008383611125565b8060026000828254610d52919061143a565b90915550506001600160a01b03821660009081526020819052604081208054839290610d7f90849061143a565b90915550506040518181526001600160a01b038316906000907fddf252ad1be2c89b69c2b068fc378daa952ba7f163c4a11628f55a4df523b3ef9060200160405180910390a35050565b6000610dd5828461149e565b9392505050565b6000610dd582846114bd565b6001600160a01b038216610e485760405162461bcd60e51b815260206004820152602160248201527f45524332303a206275726e2066726f6d20746865207a65726f206164647265736044820152607360f81b6064820152608401610525565b610e5482600083611125565b6001600160a01b03821660009081526020819052604090205481811015610ec85760405162461bcd60e51b815260206004820152602260248201527f45524332303a206275726e20616d6f756e7420657863656564732062616c616e604482015261636560f01b6064820152608401610525565b6001600160a01b0383166000908152602081905260408120838303905560028054849290610ef7908490611452565b90915550506040518281526000906001600160a01b038516907fddf252ad1be2c89b69c2b068fc378daa952ba7f163c4a11628f55a4df523b3ef9060200160405180910390a3505050565b60008060008411610f8e5760405162461bcd60e51b815260206004820152601660248201527504552433230536e617073686f743a20696420697320360541b6044820152606401610525565b610f96611130565b841115610fe55760405162461bcd60e51b815260206004820152601d60248201527f4552433230536e617073686f743a206e6f6e6578697374656e742069640000006044820152606401610525565b6000610ff18486611140565b845490915081141561100a576000809250925050611032565b6001846001018281548110611021576110216114df565b906000526020600020015492509250505b9250929050565b600980546001600160a01b038381166001600160a01b0319831681179093556040519116919082907f8be0079c531659141344cd1fd0a4f28419497f9722a3daafe3b4186f6b6457e090600090a35050565b600061109b600880546001019055565b60006110a5611130565b90507f8030e83b04d87bef53480e26263266d6ca66863aa8506aca6f2559d18aa1cb67816040516110d891815260200190565b60405180910390a1919050565b6001600160a01b038116600090815260056020908152604080832091839052909120546107909190611203565b611203565b6106f1600661111260025490565b61074a838383610994565b600061113b60085490565b905090565b815460009061115157506000610491565b82546000905b808210156111ad57600061116b838361124d565b905084868281548110611180576111806114df565b90600052602060002001541115611199578091506111a7565b6111a481600161143a565b92505b50611157565b6000821180156111e2575083856111c5600185611452565b815481106111d5576111d56114df565b9060005260206000200154145b156111fb576111f2600183611452565b92505050610491565b509050610491565b600061120d611130565b90508061121984611268565b101561074a578254600180820185556000858152602080822090930193909355938401805494850181558252902090910155565b600061125c60028484186114bd565b610dd59084841661143a565b805460009061127957506000919050565b8154829061128990600190611452565b81548110611299576112996114df565b90600052602060002001549050919050565b919050565b600060208083528351808285015260005b818110156112dd578581018301518582016040015282016112c1565b818111156112ef576000604083870101525b50601f01601f1916929092016040019392505050565b80356001600160a01b03811681146112ab57600080fd5b6000806040838503121561132f57600080fd5b61133883611305565b946020939093013593505050565b60008060006060848603121561135b57600080fd5b61136484611305565b925061137260208501611305565b9150604084013590509250925092565b60006020828403121561139457600080fd5b5035919050565b6000602082840312156113ad57600080fd5b610dd582611305565b600080604083850312156113c957600080fd5b6113d283611305565b91506113e060208401611305565b90509250929050565b600181811c908216806113fd57607f821691505b6020821081141561141e57634e487b7160e01b600052602260045260246000fd5b50919050565b634e487b7160e01b600052601160045260246000fd5b6000821982111561144d5761144d611424565b500190565b60008282101561146457611464611424565b500390565b6020808252818101527f4f776e61626c653a2063616c6c6572206973206e6f7420746865206f776e6572604082015260600190565b60008160001904831182151516156114b8576114b8611424565b500290565b6000826114da57634e487b7160e01b600052601260045260246000fd5b500490565b634e487b7160e01b600052603260045260246000fdfea2646970667358221220d4429c5605f7010444e14cb56d8b9a5ff94649d08cddf74753067cb9a9123b6864736f6c634300080a0033",
    "linkReferences": {},
    "deployedLinkReferences": {}
}