{
  "_format": "hh-sol-artifact-1",
  "contractName": "PaxEmitter",
  "sourceName": "contracts/Pax/PaxEmitter.sol",
  "abi": [
    {
      "inputs": [
        {
          "internalType": "contract IPax",
          "name": "_pax",
          "type": "address"
        },
        {
          "internalType": "uint256",
          "name": "_emissionPerBlock",
          "type": "uint256"
        }
      ],
      "stateMutability": "nonpayable",
      "type": "constructor"
    },
    {
      "anonymous": false,
      "inputs": [
        {
          "indexed": false,
          "internalType": "address",
          "name": "to",
          "type": "address"
        },
        {
          "indexed": false,
          "internalType": "uint256",
          "name": "allocPoint",
          "type": "uint256"
        }
      ],
      "name": "Add",
      "type": "event"
    },
    {
      "anonymous": false,
      "inputs": [
        {
          "indexed": true,
          "internalType": "address",
          "name": "previousOwner",
          "type": "address"
        },
        {
          "indexed": true,
          "internalType": "address",
          "name": "newOwner",
          "type": "address"
        }
      ],
      "name": "OwnershipTransferred",
      "type": "event"
    },
    {
      "anonymous": false,
      "inputs": [
        {
          "indexed": true,
          "internalType": "uint256",
          "name": "pid",
          "type": "uint256"
        },
        {
          "indexed": false,
          "internalType": "uint256",
          "name": "allocPoint",
          "type": "uint256"
        }
      ],
      "name": "Set",
      "type": "event"
    },
    {
      "anonymous": false,
      "inputs": [
        {
          "indexed": false,
          "internalType": "uint256",
          "name": "emissionPerBlock",
          "type": "uint256"
        }
      ],
      "name": "SetEmissionPerBlock",
      "type": "event"
    },
    {
      "inputs": [
        {
          "internalType": "address",
          "name": "to",
          "type": "address"
        },
        {
          "internalType": "uint256",
          "name": "allocPoint",
          "type": "uint256"
        }
      ],
      "name": "add",
      "outputs": [],
      "stateMutability": "nonpayable",
      "type": "function"
    },
    {
      "inputs": [],
      "name": "emissionPerBlock",
      "outputs": [
        {
          "internalType": "uint256",
          "name": "",
          "type": "uint256"
        }
      ],
      "stateMutability": "view",
      "type": "function"
    },
    {
      "inputs": [],
      "name": "owner",
      "outputs": [
        {
          "internalType": "address",
          "name": "",
          "type": "address"
        }
      ],
      "stateMutability": "view",
      "type": "function"
    },
    {
      "inputs": [],
      "name": "pax",
      "outputs": [
        {
          "internalType": "contract IPax",
          "name": "",
          "type": "address"
        }
      ],
      "stateMutability": "view",
      "type": "function"
    },
    {
      "inputs": [
        {
          "internalType": "uint256",
          "name": "pid",
          "type": "uint256"
        }
      ],
      "name": "pendingPax",
      "outputs": [
        {
          "internalType": "uint256",
          "name": "",
          "type": "uint256"
        }
      ],
      "stateMutability": "view",
      "type": "function"
    },
    {
      "inputs": [],
      "name": "poolCount",
      "outputs": [
        {
          "internalType": "uint256",
          "name": "",
          "type": "uint256"
        }
      ],
      "stateMutability": "view",
      "type": "function"
    },
    {
      "inputs": [
        {
          "internalType": "uint256",
          "name": "",
          "type": "uint256"
        }
      ],
      "name": "poolInfo",
      "outputs": [
        {
          "internalType": "address",
          "name": "to",
          "type": "address"
        },
        {
          "internalType": "uint256",
          "name": "allocPoint",
          "type": "uint256"
        },
        {
          "internalType": "uint256",
          "name": "lastEmitBlock",
          "type": "uint256"
        }
      ],
      "stateMutability": "view",
      "type": "function"
    },
    {
      "inputs": [],
      "name": "renounceOwnership",
      "outputs": [],
      "stateMutability": "nonpayable",
      "type": "function"
    },
    {
      "inputs": [
        {
          "internalType": "uint256",
          "name": "pid",
          "type": "uint256"
        },
        {
          "internalType": "uint256",
          "name": "allocPoint",
          "type": "uint256"
        }
      ],
      "name": "set",
      "outputs": [],
      "stateMutability": "nonpayable",
      "type": "function"
    },
    {
      "inputs": [
        {
          "internalType": "uint256",
          "name": "_emissionPerBlock",
          "type": "uint256"
        }
      ],
      "name": "setEmissionPerBlock",
      "outputs": [],
      "stateMutability": "nonpayable",
      "type": "function"
    },
    {
      "inputs": [],
      "name": "start",
      "outputs": [],
      "stateMutability": "nonpayable",
      "type": "function"
    },
    {
      "inputs": [],
      "name": "started",
      "outputs": [
        {
          "internalType": "bool",
          "name": "",
          "type": "bool"
        }
      ],
      "stateMutability": "view",
      "type": "function"
    },
    {
      "inputs": [],
      "name": "totalAllocPoint",
      "outputs": [
        {
          "internalType": "uint256",
          "name": "",
          "type": "uint256"
        }
      ],
      "stateMutability": "view",
      "type": "function"
    },
    {
      "inputs": [
        {
          "internalType": "address",
          "name": "newOwner",
          "type": "address"
        }
      ],
      "name": "transferOwnership",
      "outputs": [],
      "stateMutability": "nonpayable",
      "type": "function"
    },
    {
      "inputs": [
        {
          "internalType": "uint256",
          "name": "pid",
          "type": "uint256"
        }
      ],
      "name": "updatePool",
      "outputs": [],
      "stateMutability": "nonpayable",
      "type": "function"
    }
  ],
  "bytecode": "0x60806040526005805460ff1916905534801561001a57600080fd5b50604051610b39380380610b39833981016040819052610039916100bb565b6100423361006b565b600180546001600160a01b0319166001600160a01b0393909316929092179091556002556100f5565b600080546001600160a01b038381166001600160a01b0319831681178455604051919092169283917f8be0079c531659141344cd1fd0a4f28419497f9722a3daafe3b4186f6b6457e09190a35050565b600080604083850312156100ce57600080fd5b82516001600160a01b03811681146100e557600080fd5b6020939093015192949293505050565b610a35806101046000396000f3fe608060405234801561001057600080fd5b50600436106100f55760003560e01c8063710fe5cd11610097578063c95986a211610066578063c95986a214610205578063f2fde38b1461020e578063f525cb6814610221578063f5d82b6b1461022957600080fd5b8063710fe5cd146101d1578063715018a6146101e45780638da5cb5b146101ec578063be9a6555146101fd57600080fd5b80631f2698ab116100d35780631f2698ab1461016357806334b259011461018057806351eb05a61461019357806352a701b4146101a657600080fd5b80631526fe27146100fa57806317caf6f1146101375780631ab06ee51461014e575b600080fd5b61010d610108366004610892565b61023c565b604080516001600160a01b0390941684526020840192909252908201526060015b60405180910390f35b61014060045481565b60405190815260200161012e565b61016161015c3660046108ab565b610279565b005b6005546101709060ff1681565b604051901515815260200161012e565b61014061018e366004610892565b610364565b6101616101a1366004610892565b61041a565b6001546101b9906001600160a01b031681565b6040516001600160a01b03909116815260200161012e565b6101616101df366004610892565b610509565b610161610576565b6000546001600160a01b03166101b9565b6101616105ac565b61014060025481565b61016161021c3660046108e9565b61063f565b600354610140565b610161610237366004610904565b6106da565b6003818154811061024c57600080fd5b60009182526020909120600390910201805460018201546002909201546001600160a01b03909116925083565b6000546001600160a01b031633146102ac5760405162461bcd60e51b81526004016102a39061092e565b60405180910390fd5b6102b46107de565b6102f7816102f1600385815481106102ce576102ce610963565b90600052602060002090600302016001015460045461080b90919063ffffffff16565b9061081e565b600481905550806003838154811061031157610311610963565b906000526020600020906003020160010181905550817f545b620a3000f6303b158b321f06b4e95e28a27d70aecac8c6bdac4f48a9f6b38260405161035891815260200190565b60405180910390a25050565b6000806003838154811061037a5761037a610963565b600091825260209182902060408051606081018252600390930290910180546001600160a01b03168352600181015493830193909352600290920154918101829052915043811080156103d05750602082015115155b156104105761040860045461040284602001516103fc6002546103fc874361080b90919063ffffffff16565b9061082a565b90610836565b949350505050565b5060009392505050565b60006003828154811061042f5761042f610963565b9060005260206000209060030201905060008160020154905080431161045457505050565b600182015461046857504360029091015550565b600061049160045461040285600101546103fc6002546103fc884361080b90919063ffffffff16565b60015484546040516340c10f1960e01b81526001600160a01b0391821660048201526024810184905292935016906340c10f1990604401600060405180830381600087803b1580156104e257600080fd5b505af11580156104f6573d6000803e3d6000fd5b5050505043836002018190555050505050565b6000546001600160a01b031633146105335760405162461bcd60e51b81526004016102a39061092e565b61053b6107de565b60028190556040518181527f8b4310f1fd18dcc17d090874bf2aec666d0e75364021a5bc6f53ddcb5d64cfa89060200160405180910390a150565b6000546001600160a01b031633146105a05760405162461bcd60e51b81526004016102a39061092e565b6105aa6000610842565b565b6000546001600160a01b031633146105d65760405162461bcd60e51b81526004016102a39061092e565b60055460ff16156105e657600080fd5b60035460005b8181101561062e57436003828154811061060857610608610963565b600091825260209091206002600390920201015561062781600161098f565b90506105ec565b50506005805460ff19166001179055565b6000546001600160a01b031633146106695760405162461bcd60e51b81526004016102a39061092e565b6001600160a01b0381166106ce5760405162461bcd60e51b815260206004820152602660248201527f4f776e61626c653a206e6577206f776e657220697320746865207a65726f206160448201526564647265737360d01b60648201526084016102a3565b6106d781610842565b50565b6000546001600160a01b031633146107045760405162461bcd60e51b81526004016102a39061092e565b61070c6107de565b600454610719908261081e565b600455604080516060810182526001600160a01b03841681526020810183905260055460039282019060ff1661075157600019610753565b435b90528154600180820184556000938452602093849020835160039093020180546001600160a01b0319166001600160a01b039384161781558385015191810191909155604092830151600290910155815190851681529182018390527f2728c9d3205d667bbc0eefdfeda366261b4d021949630c047f3e5834b30611ab910160405180910390a15050565b60035460005b81811015610807576107f58161041a565b61080081600161098f565b90506107e4565b5050565b600061081782846109a7565b9392505050565b6000610817828461098f565b600061081782846109be565b600061081782846109dd565b600080546001600160a01b038381166001600160a01b0319831681178455604051919092169283917f8be0079c531659141344cd1fd0a4f28419497f9722a3daafe3b4186f6b6457e09190a35050565b6000602082840312156108a457600080fd5b5035919050565b600080604083850312156108be57600080fd5b50508035926020909101359150565b80356001600160a01b03811681146108e457600080fd5b919050565b6000602082840312156108fb57600080fd5b610817826108cd565b6000806040838503121561091757600080fd5b610920836108cd565b946020939093013593505050565b6020808252818101527f4f776e61626c653a2063616c6c6572206973206e6f7420746865206f776e6572604082015260600190565b634e487b7160e01b600052603260045260246000fd5b634e487b7160e01b600052601160045260246000fd5b600082198211156109a2576109a2610979565b500190565b6000828210156109b9576109b9610979565b500390565b60008160001904831182151516156109d8576109d8610979565b500290565b6000826109fa57634e487b7160e01b600052601260045260246000fd5b50049056fea2646970667358221220c4ab95c6b0a6003b581cbfa0b81cc5553dac0032983deeb152df80d85b48824f64736f6c634300080a0033",
  "linkReferences": {},
  "deployedLinkReferences": {}
}